:0300000002150ED8
:0C150E00787FE4F6D8FD75816402155565
:101284008C8A88868482808D8B8987858381433A82
:101294002030307C323030302F30302F303000541A
:1012A4003A2030307C30303A30303A303020300020
:1012B400202020202020202020202020202020202A
:1012C400002020536574205265616C2054696D655B
:1012D40020002020536574204F70656E2054696D82
:1012E40065200020202053746172742054696D6558
:1012F4003A2020002020202030303A30303A30305C
:10130400202020200020202020456E642054696D78
:10131400653A20202000446174653A203230303030
:101324002F30302F30300054696D653A2030303A18
:0813340030303A303020300067
:060003000154000146005B
:1016EC007F057E00121702D2927F057E0012170230
:0616FC008B807F057E00DB
:10170200D3EF9400EE940040147D0A7C00ED1D702E
:0D171200011CED4C70F7EF1F70E61E80E328
:01171F0022A7
:10172000AF5CAE5BAD5AAC59120EB9AD077FC412B7
:0917300017B67FC41217397F0FB0
:10173900AB07C2911216FEC2901216ECC2927F0537
:051749007E0002170202
:08185100FF121739E92430FFF2
:10185900AB07C2911216FED2901216ECC2927F0506
:051869007E00021702E1
:1011CB00E4F534F533753288753141F529F5287519
:1011DB00278075263FF53DF53C753B80753A3FF50D
:1011EB0041F540753F70753E41F564F5637562F0EE
:1011FB00756141F560F55F755E48755D427530014F
:10120B00F558F5577556B0755541F539F538F5372D
:10121B00F536F525F524F523F522F55CF55B755AC6
:10122B0090755941F545F544F543F542F52FF52EEB
:10123B00F52DF52CC2927F381217397F0C12173906
:10124B007F061217397F011217397F80121739E485
:10125B00FAEA90129293FF1218591216FE0ABA105C
:10126B00F07FC0121739E4FAEA9012A393FF121819
:08127B00591216FE0ABA10F028
:011283002248
:0F17A700AF45AE44AD43AC42120EB9AD077FC79C
:1017B600ED75F00A84F9ED75F00A84AAF012185254
:0717C600EA2430FF0218596C
:0418C600AD307FCFF3
:0C18CA00AA05121739EA2430FF02185951
:10188700EDC4540FF9ED540FFAEF2403121851EA7F
:061897002430FF02185985
:071638007F0112163F7F0243
:02163F00A907F9
:10164100B9011B7F80121739E4FAEA9012B493FFB3
:101651001218597F017E001217020ABA10ECB90262
:101661001B7FC0121739E4FAEA9012B493FF1218E3
:0C167100597F017E001217020ABA10EC2B
:01167D00224A
:10159A00F5517F0C1217397F0112163F7F0212167E
:0915AA003F7A1279927BFF7F0168
:0615B3008B088A09890A79
:1015B900E4F50CBF0105750C808006BF0203750CAC
:1015C900C0E4F50BAF0C121739AB08AA09A90A85B3
:1015D9000B82758300120F5CFF121859050C050B5D
:0715E900E50BC3941040DD87
:0115F00022D8
:1013E60012189DAD4E7FC9121887AD4D7FC61218D3
:1013F60087AD4C7FC3121887AD4B7F8B121887AD14
:101406004A7F88121887AD497FCF1218CAAD487F28
:1014160085121887E54CC4540F75F00AA4FFE54CF5
:10142600540F7C002FFDEC35F0FCE4120E808F414A
:101436008E408D3F8C3EE54DC4540F75F00AA4FFD7
:10144600E54D540F7C002FFDEC35F0FCE4120E80C8
:101456008F648E638D628C61E54EC4540F75F00AFD
:10146600A4FFE54E540F7C002FFDEC35F0FCE41292
:0B1476000E808F608E5F8D5E8C5D220B
:1018B300E4FEC2A5EF1392A6EFC313FFD2A50EBE9B
:0218C30008F02B
:0118C5002200
:10186E00C2A700C2A500D2A7001218B3AF05121866
:09187E00B3C2A700D2A6D2A52234
:10174E00C2A700C2A500D2A7001218B3E4FFEDC3D2
:10175E0013FDC2A530A603430580D2A50FBF08EE28
:0C176E00C2A700C2A500D2A5D2A6AF05FC
:01177A00224C
:1015F100E4FC74482CF8E6FF75F00A84FEEF75F000
:101601000A84A6F0EEC454F0FF74482CF8EF26F6D5
:101611000CBC07DEE4FD7F8E12186EE4FCEC901228
:101621008493FF74482CF8E6FD12186E0CBC07ED8C
:071631007D807F8E02186E20
:10189D00E4FCEC90128B93FF12174E74482CF8A6B3
:0518AD00070CBC07ED73
:0118B2002213
:10000E003096030200B07F027E0012170220960780
:10001E003096FD0535D201E5356401702C12163887
:10002E007A1279C51215AF7BFF7A1279D67F02123A
:10003E0015B37F801217397F3E1218597F81121720
:10004E00397F3E121859E4F551E5356402703012CD
:10005E0016387BFF7A1279C57F011215B37BFF7AB2
:10006E001279D67F021215B37FC01217397F3E1256
:10007E0018597FC11217397F3E121859E4F551E510
:10008E0035640370151215A17BFF7A1279A37F02D6
:10009E001215B3E4F535F551C2017F0C121739E490
:1000AE00F5513097030202F07F027E0012170220F4
:1000BE0097053097FD0551E5356401600302020D89
:1000CE00E551640160030201641216387BFF7A1356
:1000DE00791A7F011215B37BFF7A13792B7F0212E7
:1000EE0015B3AF34AE33AD32AC31120EB9AD077FAE
:1000FE00881217B6AF29AE28AD27AC26120EB9ADB1
:10010E00077F8B1217B6AF3DAE3CAD3BAC3A120E2D
:10011E00B9AD077F8E1217B6AF41AE40AD3FAC3EC4
:10012E00120EB9AD077FC61217B6AF64AE63AD62DD
:10013E00AC61120EB9AD077FC91217B6AF60AE5FD4
:10014E00AD5EAC5D120EB9AD077FCC1217B61218AC
:10015E00C67F88121734E551B402057F8B1217340F
:10016E00E551B403057F8E121734E551B404057FB3
:10017E00C6121734E551B405057FC9121734E5517F
:10018E00B406057FCC121734E551B407057FCF12A4
:10019E001734E5516408706712159A7BFF7A12794D
:1001AE00A37F021215B3AF34AE33AD32AC31120EA3
:1001BE00B98F48853049AF29AE28AD27AC26120E2F
:1001CE00B98F4AAF3DAE3CAD3BAC3A120EB98F4B38
:1001DE00AF41AE40AD3FAC3E120EB98F4CAF64AEE8
:1001EE0063AD62AC61120EB98F4DAF60AE5FAD5EA6
:1001FE00AC5D120EB98F4E1215F1E4F535C201E564
:10020E0035640260030202F0E5516401704012167B
:10021E00387BFF7A1279E77F011215B37BFF7A12D2
:10022E0079F87F021215B3AF5CAE5BAD5AAC5912C2
:10023E000EB9AD077FC41217B61217A7AF2FAE2E89
:10024E00AD2DAC2C120EB9AD077FCA12172FE5518A
:10025E00B402057FC7121734E551B403057FCA12E5
:10026E001734E5516404704D7F0C1217391216388D
:10027E007BFF7A1379097F011215B37BFF7A12790E
:10028E00F87F021215B3AF58AE57AD56AC55120EDD
:10029E00B9AD077FC41217B6AF39AE38AD37AC362D
:1002AE001217AFAF25AE24AD23AC22120EB9AD0797
:1002BE007FCA12172FE551B405057FC7121734E513
:1002CE0051B406057FCA121734E551640770131234
:1002DE00159A7BFF7A1279A37F021215B3E4F535D6
:1002EE00C20130B0030206FB7F027E0012170230FD
:1002FE00B0030206FB30B0FDE53564016003020574
:10030E002AE5516401704FAF34AE33AD32AC31FBE0
:10031E00FA7980783F120B778F348E338D328C3191
:10032E00E4FFFE7DC67C42AB34AA33A932A831125B
:10033E000E0E600B4009E4F534F533F532F531AFAE
:10034E0034AE33AD32AC31120EB9AD077F88121711
:10035E00B67F88121734E55164027051AF29AE286A
:10036E00AD27AC26FBFA7980783F120B778F298E5A
:10037E00288D278C26E4FFFE7D407C41AB29AA28E0
:10038E00A927A826120E0E600D400BE4F529F528BC
:10039E0075278075263FAF29AE28AD27AC26120EE5
:1003AE00B9AD077F8B1217B67F8B121734E55164E8
:1003BE00037051AF3DAE3CAD3BAC3AFBFA79807861
:1003CE003F120B778F3D8E3C8D3B8C3AE4FFFE7DCA
:1003DE00F87C41AB3DAA3CA93BA83A120E0E600D2B
:1003EE00400BE4F53DF53C753B80753A3FAF3DAEB5
:1003FE003CAD3BAC3A120EB9AD077F8E1217B67FED
:10040E008E121734E5516404704FAF41AE40AD3FCC
:10041E00AC3EFBFA7980783F120B778F418E408D80
:10042E003F8C3EE4FFFE7DB87C41AB41AA40A93F24
:10043E00A83E120E0E600B4009E4F541F540F53F63
:10044E00F53EAF41AE40AD3FAC3E120EB9AD077FAB
:10045E00C61217B67FC6121734E5516405704FAF3A
:10046E0064AE63AD62AC61FBFA7980783F120B77B4
:10047E008F648E638D628C61E4FFFE7D6C7C42AB7B
:10048E0064AA63A962A861120E0E600B4009E4F51E
:10049E0064F563F562F561AF64AE63AD62AC611293
:1004AE000EB9AD077FC91217B67FC9121734E551C1
:1004BE006406704FAF60AE5FAD5EAC5DFBFA7980E7
:1004CE00783F120B778F608E5F8D5E8C5DE4FFFE42
:1004DE007D6C7C42AB60AA5FA95EA85D120E0E60B9
:1004EE000B4009E4F560F55FF55EF55DAF60AE5F5C
:1004FE00AD5EAC5D120EB9AD077FCC1217B67FCCD8
:10050E00121734E551B407140530E530D394074083
:10051E00037530011218C67FCF121734E535640209
:10052E0060030206FBE5516401703BAF5CAE5BAD50
:10053E005AAC59FBFA7980783F120B778F5C8E5B41
:10054E008D5A8C59E4FFFE7DB87C41AB5CAA5BA949
:10055E005AA859120E0E600B4009E4F55CF55BF5D6
:10056E005AF559121720E55164027040AF45AE445A
:10057E00AD43AC42FBFA7980783F120B778F458EF4
:10058E00448D438C42E4FFFE7D6C7C42AB45AA4415
:10059E00A943A842120E0E600B4009E4F545F5443E
:1005AE00F543F5421217A77FC7121734E5516403BE
:1005BE00704FAF2FAE2EAD2DAC2CFBFA7980783F5D
:1005CE00120B778F2F8E2E8D2D8C2CE4FFFE7D6CD3
:1005DE007C42AB2FAA2EA92DA82C120E0E600B401A
:1005EE0009E4F52FF52EF52DF52CAF2FAE2EAD2DF2
:1005FE00AC2C120EB9AD077FCA1217B67FCA1217EE
:10060E0034E55164047043AF58AE57AD56AC55FB4C
:10061E00FA7980783F120B778F588E578D568C55FE
:10062E00E4FFFE7DB87C41AB58AA57A956A85512D7
:10063E000E0E600B4009E4F558F557F556F555AF1B
:10064E0058AE57AD56AC55121728E5516405704893
:10065E00AF39AE38AD37AC36FBFA7980783F120B36
:10066E00778F398E388D378C36E4FFFE7D6C7C4269
:10067E00AB39AA38A937A836120E0E600B4009E422
:10068E00F539F538F537F536AF39AE38AD37AC3616
:10069E001217AF7FC7121734E5516406704FAF259E
:1006AE00AE24AD23AC22FBFA7980783F120B778F04
:1006BE00258E248D238C22E4FFFE7D6C7C42AB259F
:1006CE00AA24A923A822120E0E600B4009E4F525D8
:1006DE00F524F523F522AF25AE24AD23AC22120E60
:1006EE00B9AD077FCA1217B67FCA12173430B103DD
:1006FE00020AEE7F027E0012170230B103020AEEEA
:10070E0030B1FDE53564016003020929E55164014C
:10071E00704DAF34AE33AD32AC31FBFA798078BF69
:10072E00120B778F348E338D328C31E4FFFEFDFC4D
:10073E00AB34AA33A932A831120E0E500BE4F534A5
:10074E00F5337532C6753142AF34AE33AD32AC319E
:10075E00120EB9AD077F881217B67F88121734E5CF
:10076E00516402704FAF29AE28AD27AC26FBFA7943
:10077E008078BF120B778F298E288D278C26E4FF69
:10078E00FE7D807C3FAB29AA28A927A826120E0E33
:10079E00500BE4F529F528752740752641AF29AE93
:1007AE0028AD27AC26120EB9AD077F8B1217B67F78
:1007BE008B121734E5516403704FAF3DAE3CAD3B29
:1007CE00AC3AFBFA798078BF120B778F3D8E3C8D59
:1007DE003B8C3AE4FFFE7D807C3FAB3DAA3CA93BBF
:1007EE00A83A120E0E500BE4F53DF53C753BF8752C
:1007FE003A41AF3DAE3CAD3BAC3A120EB9AD077FC0
:10080E008E1217B67F8E121734E5516404704DAFF9
:10081E0041AE40AD3FAC3EFBFA798078BF120B770C
:10082E008F418E408D3F8C3EE4FFFEFDFCAB41AA16
:10083E0040A93FA83E120E0E500BE4F541F540754F
:10084E003FB8753E41AF41AE40AD3FAC3E120EB922
:10085E00AD077FC61217B67FC6121734E551640571
:10086E00704DAF64AE63AD62AC61FBFA798078BF58
:10087E00120B778F648E638D628C61E4FFFEFDFC3C
:10088E00AB64AA63A962A861120E0E500BE4F56464
:10089E00F56375626C756142AF64AE63AD62AC6157
:1008AE00120EB9AD077FC91217B67FC9121734E5FC
:1008BE00516406704DAF60AE5FAD5EAC5DFBFA7914
:1008CE008078BF120B778F608E5F8D5E8C5DE4FF3C
:1008DE00FEFDFCAB60AA5FA95EA85D120E0E500B6A
:1008EE00E4F560F55F755E6C755D42AF60AE5FAD51
:1008FE005EAC5D120EB9AD077FCC1217B67FCC126F
:10090E001734E551B407141530E530C39401500384
:10091E007530071218C67FCF121734E535640260A2
:10092E0003020AEEE55164017039AF5CAE5BAD5A5D
:10093E00AC59FBFA798078BF120B778F5C8E5B8D8A
:10094E005A8C59E4FFFEFDFCAB5CAA5BA95AA85970
:10095E00120E0E500BE4F55CF55B755AB8755941E5
:10096E00121720E5516402703EAF45AE44AD43AC64
:10097E0042FBFA798078BF120B778F458E448D43F8
:10098E008C42E4FFFEFDFCAB45AA44A943A84212EB
:10099E000E0E500BE4F545F54475436C754242124C
:1009AE0017A77FC7121734E5516403704DAF2FAEF2
:1009BE002EAD2DAC2CFBFA798078BF120B778F2FD2
:1009CE008E2E8D2D8C2CE4FFFEFDFCAB2FAA2EA9B6
:1009DE002DA82C120E0E500BE4F52FF52E752D6C46
:1009EE00752C42AF2FAE2EAD2DAC2C120EB9AD071D
:1009FE007FCA1217B67FCA121734E55164047041CC
:100A0E00AF58AE57AD56AC55FBFA798078BF120B86
:100A1E00778F588E578D568C55E4FFFEFDFCAB58E4
:100A2E00AA57A956A855120E0E500BE4F558F557B5
:100A3E007556B8755541AF58AE57AD56AC551217E1
:100A4E0028E55164057046AF39AE38AD37AC36FB8C
:100A5E00FA798078BF120B778F398E388D378C36B6
:100A6E00E4FFFEFDFCAB39AA38A937A836120E0EEC
:100A7E00500BE4F539F53875376C753642AF39AE33
:100A8E0038AD37AC361217AF7FC7121734E5516445
:100A9E0006704DAF25AE24AD23AC22FBFA798078DB
:100AAE00BF120B778F258E248D238C22E4FFFEFD43
:100ABE00FCAB25AA24A923A822120E0E500BE4F596
:100ACE0025F52475236C752242AF25AE24AD23ACDB
:100ADE0022120EB9AD077FCA1217B67FCA1217348B
:100AEE0020B2257F027E0012170220B21B30B2FD0B
:100AFE00B200200004C293D29430000CD293C29460
:100B0E00D2B4D2B5D2B6D2B730005620B3537F028C
:100B1E007E0012170220B34930B3FD0547E547B4F6
:100B2E000108C2B4D2B5D2B6D2B7E547B40208C2F4
:100B3E00B4C2B5D2B6D2B7E547B40308C2B4C2B593
:100B4E00C2B6D2B7E547B40408C2B4C2B5C2B6C283
:100B5E00B7E547B4050BD2B4D2B5D2B6D2B7E4F5E9
:020B6E0047221C
:100F9700E4FBFA79707842AF64AE63AD62AC61127C
:100FA7000D71AB41AA40A93FA83E120B77C004C000
:100FB70005C006C007E4FBFA79617845AF60AE5F0C
:100FC700AD5EAC5D120D71D003D002D001D000121E
:100FD7000B778F0B8E0A8D098C08E4FBFA797078F2
:100FE70042AF45AE44AD43AC42120D71AB5CAA5B58
:100FF700A95AA859120B77C004C005C006C007E458
:10100700FBFA79617845AF2FAE2EAD2DAC2C120DC2
:1010170071D003D002D001D000120B778F0F8E0E44
:101027008D0D8C0CE4FBFA79707842AF39AE38AD90
:1010370037AC36120D71AB58AA57A956A855120BE3
:1010470077C004C005C006C007E4FBFA796178459C
:10105700AF25AE24AD23AC22120D71D003D002D040
:1010670001D000120B778F138E128D118C10300068
:10107700030211CAAB0BAA0AA909A808120E0E602F
:101087000250067F01C00780047F00C007AF0FAE84
:101097000EAD0DAC0CAB0BAA0AA909A808120E0ECF
:1010A70040047E0180027E00D0E05E700302118161
:1010B70030A003021176E550454F7008D2B4D2B57F
:1010C700D2B6D2B7D3E5509400E54F648094804000
:1010D700047F0180027F00C3E550940AE54F6480D6
:1010E700948050047E0180027E00EE5F6008C2B4E7
:1010F700D2B5D2B6D2B7C3E550940AE54F6480940F
:101107008040047F0180027F00C3E5509414E54FBF
:101117006480948050047E0180027E00EE5F600848
:10112700C2B4C2B5D2B6D2B7C3E5509414E54F6482
:1011370080948040047F0180027F00C3E550941EA5
:10114700E54F6480948050047E0180027E00EE5F4C
:101157006008C2B4C2B5C2B6D2B7C3E550941EE5A3
:101167004F648094804008C2B4C2B5C2B6C2B730DB
:10117700A008D2B4D2B5D2B6D2B7AF13AE12AD1162
:10118700AC10AB0BAA0AA909A808120E0E600840FA
:10119700067F01C00780047F00C007AF0FAE0EAD0A
:1011A7000DAC0CAB0BAA0AA909A808120E0E500425
:1011B7007E0180027E00D0E04E6008D2B4D2B5D264
:0311C700B6D2B7E6
:0111CA002202
:10148100AD507F831217B620A2417F017E00121753
:101491000220A23730A2FDE5467005755401D28CB9
:1014A100E546B401260550E5507002054FC394632B
:1014B100E54F648094804006754F00755063E4F5F4
:1014C10046F554C28CF52AF52BF52120A13E7F016A
:1014D1007E0012170220A13430A1FDE5547005757C
:1014E1004601D28CE554B40123E550155070021524
:1014F1004FC3E54F648094805005E4F54FF550E407
:0D150100F554F546C28CF52AF52BF5212294
:0617CD00D2957F087E00AA
:1017D300D3EF9400EE940040147D017C00ED1D7066
:0D17E300011CED4C70F7EF1F70E61E80E357
:0117F00022D6
:04177B008E0A8F0B38
:10177F00E4FBC295E50B1392957F047E001217D3FD
:10178F00D295E50AC313F50AE50B13F50B0BBB084E
:08179F00E17F047E000217D374
:1017F100E4F9C295EAC313FAEB13FBD295309503D2
:101801004303807F047E001217D309B908E4AF03B4
:0118110022B4
:101832001217CDC2957F507E001217D31217CDA278
:0F18420095E433750A00F50B7F047E000217D37F
:10133C001218327FCC7E0012177B7F447E0012176E
:10134C007B7F2C7E011217D31218327FCC7E0012B9
:10135C00177B7FBE7E0012177B1217F17508008F6A
:10136C00091217F18F82758300E582758200F5836F
:10137C00E5084283E509F582C3E5836480948040E7
:10138C0022AD82AC83EC120E80E4FBFA7980783DBE
:10139C00120C68120EB98E838F827FC21217397F9E
:1013AC0020802FE582F4FFE583F4FEEF2401F58223
:1013BC00E43EF583AD82FC120E80E4FBFA79807872
:1013CC003D120C68120EB98E838F827FC2121739B0
:0913DC007F2D121859AE83AF8277
:0113E50022E5
:10181200ED75F00A120F3AF9ED75F00A120F3AAEB1
:10182200F0AA06EF24C0121851EA2430FF02185918
:0E18D600758911758C3C758AB0D2AFD2A922EB
:1016B700C29312133C8E528F531211CB1218D67F3E
:1016C700407E1F12170220011712133C8E528F53B0
:1016D700AD537F031218121213E6120F97121481DB
:0516E70012000E80E17D
:03000B0002167E5C
:10167E00C0E0C0D0758C3C758AB0052BE52B70028E
:10168E00052AC39414E52A94004019752A00752B77
:10169E00000521E5219403400B7521007546007568
:0916AE005400C28CD0D0D0E0320F
:100B7000020F25E86480F8E933E83360110460F07F
:100B8000ED33EC337009E8FCE9FDEAFEEBFF2204EB
:100B900060DED3EB9FEA9EE99DE8C2E78CF0C2F7E6
:100BA00095F0400CE8CCF8E9CDF9EACEFAEBCFFBB2
:100BB000120EF085D0F05804700320D5B3E804700D
:100BC000075002B2D5020F2F92D5EC0460F7E4CCA7
:100BD000C0E0C398F8603B94186008400DD0E0FB7B
:100BE000020F07E4FBFAC9FC8028E830E406E4C9F8
:100BF000FBE4CAFCE830E305E4C9CACBFCE85407CF
:100C00006010F8C3E913F9EA13FAEB13FBEC13FCD9
:100C1000D8F130F52FC3E49CFCEF9BFFEE9AFEED7C
:100C200099FDD0E0FBEF4E4D4C701222DB03020F1A
:100C30002CEC2CFCEF33FFEE33FEED33FDED30E713
:100C4000EB020F07EF2BFFEE3AFEED39FDD0E0FB94
:100C500050130BBB0003020F2FED13FDEE13FEEF3D
:080C600013FFEC13FC020F0767
:100C6800EC4D6011E8497017ED33EC3304600DE486
:100C7800FCFFFEFD22E933E8330470F8020F251269
:100C88000EF058046009E4CC24815006285009026B
:100C98000F2F284003020F2CC0E0EB4A7044B980A4
:100CA80006D0E0FB020F1BEF4E701CBD8008EBFF67
:100CB800EAFEE9FD80EBE98DF0A4FEE5F0020D51B6
:100CC800E9CDF9EAFEEBFFEF89F0A4FCE5F0CE8967
:100CD800F0A42EFFE435F0CD89F0A42DFEE435F024
:100CE8008067EF4E7005BD80D780C3EF8BF0A4AC52
:100CF800F0EE8BF0A42CFCE435F0F8EF8AF0A42C8D
:100D0800E5F038FCE433CB8DF0A42CFCE5F03BF89F
:100D1800EE8AF0A42CFCE5F038F8E433CF89F0A48F
:100D28002CFCE5F038CF3400CE89F0A42FFFE5F095
:100D38003EFEE433C98DF0A42EFEE5F039CD8AF0ED
:100D4800A42FFFE5F03EFEE43DFD33D0E0FB500765
:100D58000BBB000F020F2FEC2CFCEF33FFEE33FE22
:060D6800ED33FD020F0750
:100D6E00020F2FEC5D046005E859047003020F2595
:100D7E00120EF0580460F6EC4860F2EC7004FDFEC2
:100D8E00FF22C860DB2481C85009C3986002500658
:100D9E00020F2C9850CAF582E9294B4A7005AB8296
:100DAE00020F1B75F0007C1A7880C3EF9BEE9AED54
:100DBE0099400DC3EF9BFFEE9AFEED99FDE842F0D0
:100DCE00DC23ACF0D0E0FFD0E0FED0E0FDAB822023
:100DDE00E7101BEB60BAEC2CFCEF33FFEE33FEEDAD
:100DEE0033FD020F07E803F830E705C0F075F00099
:100DFE00EF2FFFEE33FEED33FD40B830E7C280AA91
:100E0E0074F8CC6480CCC86480C8F582046043C397
:100E1E00EB9FF5F0EA9E42F0E99D42F0E89C45F02A
:100E2E0060305018E5825FFFE582F42B5582FB504F
:100E3E00210ABA001D09B90019088016E5825BFB6C
:100E4E00E582F42F5582FF50090EBE00050DBD0040
:100E5E00010CC3EB9FF5F0EA9E42F0E99D42F0E8EB
:0D0E6E009C45F06007CC4820E701B3EC2262
:100E7B0075F020800E75F010800575F0087D007EF2
:100E8B00007F003392D530D503120F89EC3340101D
:100E9B00EF33FFEE33FEED33FDEC33FCD5F0ED22FB
:0E0EAB00E5F0247EA2D513CC92E7CDCEFF2237
:100EB900EDD2E7CD33EC3392D524814006E4FFFE31
:100EC900FDFC22FCE4CFCECDCC24E0501174FF8090
:100ED900EDC3CC13CCCD13CDCE13CECF13CF04702D
:070EE900F030D5DE020F8995
:100EF000E9D2E7C933E833F892D5EDD2E7CD33EC48
:070F000033FC5002B2D522C0
:100F0700EC30E7100FBF000C0EBE00080DBD00044B
:100F17000BEB6014A2D5EB13FCED92E7FD2274FFF7
:100F2700FCFDFEFF22E480F8A2D574FF13FC7D8050
:030F3700E480EF64
:10151A000216B7E493A3F8E493A34003F68001F21A
:10152A0008DFF48029E493A3F85407240CC8C333D2
:10153A00C4540F4420C8834004F456800146F6DFA1
:10154A00E4800B0102040810204080900003E47E2E
:10155A00019360BCA3FF543F30E509541FFEE49396
:10156A00A360010ECF54C025E060A840B8E493A35D
:10157A00FAE493A3F8E493A3C8C582C8CAC583CA88
:10158A00F0A3C8C582C8CAC583CADFE9DEE780BE40
:0100090000F6
:100F3A00C2D530F707B2D563F0FF05F030E70CB23F
:100F4A00D5F4048463F0FF05F080018430D502F4FF
:020F5A0004226F
:100F5C00BB010CE58229F582E5833AF583E022504A
:100F6C0006E92582F8E622BBFE06E92582F8E22294
:0D0F7C00E58229F582E5833AF583E49322AE
:0E0F8900C3E49FFFE49EFEE49DFDE49CFC2279
:00000001FF
