:1007D000F80800F80008F800033C0700073C030095
:1007E0000000808080800000001F2222222213004F
:1007F000000808F8000000000020203F2020000032
:100800000000008080800000000E112020201100D8
:100810000000808080800000001F202020201F001A
:100820008080808080808000203F20003F20003F2B
:100830008080000000808000001F202020103F20CA
:10084000000080808080800000332424242419004C
:10085000808080008080800020203F2120000100D7
:100860000000000000000000000000000000000088
:1008700010218670007E4A4A4A4A4A7E00000000E3
:1008800002FE01407F41417F41417F41417F400065
:100890000000FC042424FCA5A6A4FC2424240400B9
:1008A00080601F808042462A12122A2642C04000E1
:1008B000106002CC00003E2AAA2AAA2A3E000000AC
:1008C0000808FE0140424C407F407F4844424000BF
:1008D00000E010080810E000000F102020100F00AA
:1008E000001010F8000000000020203F2020000031
:1008F0000070080808887000003028242221300089
:1009000000300888884830000018202020110E0090
:100910000000C02010F8000000070424243F240039
:1009200000F80888880808000019212020110E000E
:1009300000E0108888180000000F112020110E0020
:1009400000380808C83808000000003F0000000018
:100950000070880808887000001C222121221C00D9
:1009600000E010080810E0000000312222110F0002
:10097000000205E21804020202020202041E000044
:100980000000000718204040404040402018000070
:1009900000007C82827C008040201008040200005D
:1009A00000201008040201007C82827C000000000C
:1009B000180808F8080818000000203F2000000070
:1009C00008F808000008F808203F210101213F2015
:1009D000000000C0C0000000000000303000000037
:1009E0000000000000000000000101010101010100
:10133E001E45FF08D0FF08E0FF08F0FF0900FF0977
:10134E0010FF0920FF0930FF0940FF0950FF096017
:0F135E0001630A01441E01432801415001400070
:0413BF007F647E00C9
:1013C300D3EF9400EE940040147D6E7C00ED1D700D
:0D13D300011CED4C70F7EF1F70E61E80E36B
:0113E00022EA
:06144E00AD077F017E00E6
:0B145400EF1FAC0670011E4C70F6226A
:10147000438901758CF8758A2FD28CD2A9D2AF22FC
:10122000756B14E5B0540F640F60347F017E0012BB
:1012300013C3E5B0540F640F6028E540B40123E404
:10124000F54075B00FAFB0EF24F5600F24FE6007D6
:1012500014700F756B0122756B0222756B0322757A
:0212600040014B
:011262002269
:10140100EF14600C14600E2402700ED2A3D2A42239
:0A141100C2A3D2A422D2A3C2A422D7
:0A141B007F02121401E50D24B8FF52
:1014250012144EC2A2C2A0C2A18D80D2A0C2A02217
:1013E100AB10AA11A9128513827583001202EDFFB9
:1013F10012144ED2A2C2A0C2A18D80D2A0C2A0223C
:10136E00E4FF1214017FC0121425E4FB7F3F121418
:10137E0025EB24B8FF1214257F40121425E4FAE45D
:0C138E00FF1213F10ABA40F70BBB08E095
:01139A002230
:0610ED008F0D8D0E8B0F2C
:1010F300E50EC39440505D7F0112141DE50E24409C
:10110300FF121425E50E250FFFE433FED3EF9440C1
:10111300EE648094805011E4F513E513C3950F50EA
:101123004C1213E1051380F2E4F5131213E10513D6
:10113300E513C3944040F412141B7F40121425C3DB
:101143007440950EF513E513C3950F50201213E168
:10115300051380F212141BAF0E121425E4F513E5E8
:0D11630013C3950F50071213E1051380F21E
:01117000225C
:0A12A2007D107BFF7A0879907F022F
:1012AC008F088D098B0A8A0B890C8B108A11891275
:1012BC007B101210EDE50804FFE50C2410F9E43561
:0F12CC000B850A10F51189127B10AD090210ED88
:1011D600E5687D2875F00A84E5F075F003A42445DA
:0B11E600F8860308E6FA08E6F97F022D
:1011F1008F088D098B0A8A0B890C8B108A11891231
:101201007B081210EDE50804FFE50C2408F9E4352C
:0F1211000B850A10F51189127B08AD090210ED4B
:1012DB00E4FE7D80EDD394004017ED5F6004D29067
:1012EB008002C290D291000000C291EDC313FD8029
:1012FB00E3D290D291A290E433000000C291D2903D
:01130B00FFE2
:01130C0022BE
:10130D00E4FED2907D80EDD394004010D2913090C8
:10131D0003ED4206C291EDC313FD80EAEF24FFB346
:10132D009290D291000000C291000000D290AF06C1
:01133D00228D
:10143500D290C29100D29100C29000C291000000EA
:09144500D29100D29000C2912264
:10145F00D290C291E4FFD291C2910FBF09F802144A
:01146F003547
:061064008B128A138914AF
:10106A00E4F519F51A121435E51824FE6007047020
:10107A00187F0380027F051212DBEF3395E0FEEF43
:10108A00251AF51AEE3519F519900000AF82AE83CC
:10109A00E4FCFD7BFF7AFFF9F8D31203E740063040
:1010AA009003A380E7309008051AE51A7002051923
:1010BA007F0112130DAB12AA13A914EF12031A7FA0
:1010CA000112130DAB12AA13A914900001EF120317
:1010DA002CE4FF12130DAB15AA16A917EF12031A67
:0210EA00AF1A3B
:0110EC0022E1
:060BF7008B128A13891421
:100BFD00E4F51BF51A7519807518C0751F54751E0F
:100C0D00E3751D25751C3D7523A27522E775213BE6
:100C1D007520B675270A7526D775252375243C755D
:100C2D002BAC752AC57529A77528381203FD8F2F92
:100C3D008E2E8D2D8C2CAB15AA16A9171203FD8F98
:100C4D00338E328D318C307F0A7ED77D237C3CAB49
:100C5D0033AA32A931A830120106E4FBFA792078C3
:100C6D00C21200158F3F8E3E8D3D8C3CAF2FAE2EA8
:100C7D00AD2DAC2CAB23AA22A921A820120106ABC5
:100C8D002FAA2EA92DA82C120106C004C005C0063E
:100C9D00C007AF2FAE2EAD2DAC2CAB1FAA1EA91DBC
:100CAD00A81C120106D003D002D001D000120015ED
:100CBD00AB1BAA1AA919A8181200158F378E368DDD
:100CCD00358C34AF2FAE2EAD2DAC2CAB2BAA2AA963
:100CDD0029A828120106AB27AA26A925A8241200A7
:100CED0015C004C005C006C007E4FFFE7DC87CC169
:100CFD00AB3FAA3EA93DA83C120015D003D002D0AF
:100D0D0001D000120106AB37AA36A935A83412005E
:100D1D00158F3B8E3A8D398C38AF3FAE3EAD3DAC25
:100D2D003CAB15AA16A91712041DAF3BAE3AAD394F
:0B0D3D00AC38AB12AA13A91402041D6D
:10117100C3EE648094805003E4FEFFD3EF94CAEE83
:101181006480948340047E037FCAD3EF94EBEE64C2
:101191008094804007740A2FFFE43EFED3EF942B26
:1011A100EE648094824007740A2FFFE43EFED3EF81
:1011B100946BEE648094834007740A2FFFE43EFE33
:1011C1007C037DE81203A37E007F0ACFCDCFCECC76
:0511D100CE1203A32271
:10126300D3EF94E7EE940340047E037FE7D3EF9438
:10127300EAEE94014010EF94B7EE9403500874F62D
:101283002FFF74FF3EFE7C037DE812034E7E007F3A
:0F1293000ACFCDCFCECCCE12034EEF2404FF22D4
:100E9400E4F510F515751600751711751801FB7A30
:100EA40000790C121064EF2510F5107515007516F5
:100EB400007517117518027B007A00790812106406
:100EC400EF2510F510600302145FAC08AD09E412BD
:100ED40002118F0B8E0A8D098C08AC0CAD0DE41237
:100EE40002118F0F8E0E8D0D8C0C7515007516006A
:100EF40075170C7B007A007908120BF7E4FFFE7D6E
:100F0400207C41AB0FAA0EA90DA80C1201061202F7
:100F14004A1211718F68E4FFFE7D207C41AB0BAA5D
:100F24000AA909A808120106E4FBFA794878C21252
:0A0F3400001512024A1212638F67C3
:010F3E002290
:100F3F00AF44EF3395E0FEAD687C00D3ED9FEE64D8
:100F4F0080F87480984006C294D293801EAF63EFEE
:100F5F003395E0FEC3ED9FEE6480F8EC648098500B
:100F6F0006C293D2948004D294D293AF41EF3395BB
:100F7F00E0FEAD677C00D3ED9FEE6480F87480983F
:100F8F004006C296D295801EAF43EF3395E0FEC365
:100F9F00ED9FEE6480F8EC6480985006C295D2966F
:100FAF008004D296D295309609309506309403205E
:100FBF009316E4F56EC2921213BFD2921213BF05AD
:090FCF006EE56EC3940340ED22AF
:10048F00E56C24E070030205F9241060030207CF26
:10049F00E56B640160030207CF756C20F56D1213D5
:1004AF006E7BFF7A0979B0E4FDFF1211F17BFF7AC1
:1004BF000979D07D08E4FF1211F1E56375F00A1296
:1004CF0002CB75F003A42445F8860308E6FA08E684
:1004DF00F97D10E4FF1211F1E56375F00A1202CBFA
:1004EF00AFF0EF75F003A42445F8860308E6FA0889
:1004FF00E6F97D18E4FF1211F17BFF7A0979E07DAF
:10050F0020E4FF1211F1E54475F00A1202CB75F0E9
:10051F0003A42445F8860308E6FA08E6F97D28E4E3
:10052F00FF1211F1E54475F00A1202CBAFF0EF752F
:10053F00F003A42445F8860308E6FA08E6F97D30AF
:10054F00E4FF1211F17BFF7A0979C0E4FD7F0212FB
:10055F0011F17BFF7A0979D07D087F021211F1E545
:10056F004375F00A1202CB75F003A42445F88603F5
:10057F0008E6FA08E6F97D107F021211F1E54375DE
:10058F00F00A1202CBAFF0EF75F003A42445F88602
:10059F000308E6FA08E6F97D187F021211F17BFFD6
:1005AF007A0979E07D207F021211F1E54175F00A99
:1005BF001202CB75F003A42445F8860308E6FA0867
:1005CF00E6F97D287F021211F1E54175F00A12025A
:1005DF00CBAFF0EF75F003A42445F8860308E6FAD5
:1005EF0008E6F97D307F020211F1E56B64016003CB
:1005FF00020724056DE56DD394035003020724E42D
:10060F00F56D756C1012136E7BFF7A0779D07D1024
:10061F00E4FF1211F17BFF7A0779E07D18E4FF12F6
:10062F0011F17BFF7A0779F07D20E4FF1211F17B46
:10063F00FF7A0879007D28E4FF1211F17BFF7A0819
:10064F0079107D30E4FF1211F17BFF7A0879207D5C
:10065F0038E4FF1211F17BFF7A0779E07D40E4FF68
:10066F001211F17BFF7A0879307D50E4FF1211F1FE
:10067F007BFF7A0879407D58E4FF1211F17BFF7AF6
:10068F000779E07D60E4FF1211F17BFF7A08795062
:10069F007D68E4FF1211F17BFF7A087970E4FD7F2A
:1006AF00021212AC1212A2E56875F00A8475F003FB
:1006BF00A42445F8860308E6FA08E6F97D207F02B0
:1006CF001211F11211D67BFF7A0979707D307F02FA
:1006DF001212AC7BFF7A0879B07D407F021212AC08
:1006EF007D501212A4E56775F00A8475F003A424F7
:1006FF0045F8860308E6FA08E6F97D607F021211D5
:10070F00F1E5677D681211DA7BFF7A0979907D70C8
:10071F007F021212ACE56B64027051E56D7010052B
:10072F0063D3E563648094E34042E4F563803DE581
:10073F006DB401100544D3E544648094E3402DE487
:10074F00F5448028E56DB402100543D3E54364807A
:10075F0094E34018E4F5438013E56DB4030E0541AF
:10076F00D3E541648094E34003E4F541E56B640312
:10077F00704EE56D700F1563C3E563648094805010
:10078F003F75636322E56DB4010F1544C3E54464FF
:10079F00809480502B75446322E56DB4020F15438E
:1007AF00C3E54364809480501775436322E56DB4AD
:1007BF00030E1541C3E54164809480500375416376
:0107CF002207
:1009F000E5427003020BF6E4F5420565E565D39424
:100A0000024013E5696005E4F5698007E569700354
:100A1000756901E4F565E56C6410705F120E94E58C
:100A20006875F00A8475F003A42445F8860308E687
:100A3000FA08E6F97D207F021211F11211D6E5675E
:100A400075F00A8475F003A42445F8860308E6FAD5
:100A500008E6F97D607F021211F1E56775F00A84FE
:100A6000E5F075F003A42445F8860308E6FA08E6E5
:100A7000F97D687F021211F1120F3FE56C6420606E
:100A800003020BF6E5696018E56D70147BFF7A08C8
:100A900079607D10FF1211F17BFF7A087960803850
:100AA000E56375F00A1202CB75F003A42445F886BD
:100AB0000308E6FA08E6F97D10E4FF1211F1E56398
:100AC00075F00A1202CBAFF0EF75F003A42445F8DD
:100AD000860308E6FA08E6F97D18E4FF1211F1E54D
:100AE00069601AE56DB401157BFF7A0879607D288D
:100AF000E4FF1211F17BFF7A0879608038E54475D4
:100B0000F00A1202CB75F003A42445F8860308E628
:100B1000FA08E6F97D28E4FF1211F1E54475F00AC0
:100B20001202CBAFF0EF75F003A42445F88603085A
:100B3000E6FA08E6F97D30E4FF1211F1E569601A82
:100B4000E56DB402157BFF7A0879607D107F021293
:100B500011F17BFF7A0879608038E54375F00A125D
:100B600002CB75F003A42445F8860308E6FA08E6EC
:100B7000F97D107F021211F1E54375F00A1202CBE4
:100B8000AFF0EF75F003A42445F8860308E6FA08F1
:100B9000E6F97D187F021211F1E569601AE56DB47E
:100BA00003157BFF7A0879607D287F021211F17BA3
:100BB000FF7A0879608038E54175F00A1202CB753A
:100BC000F003A42445F8860308E6FA08E6F97D2830
:100BD0007F021211F1E54175F00A1202CBAFF0EF7E
:100BE00075F003A42445F8860308E6FA08E6F97DC3
:070BF000307F021211F12217
:100D48001213BF12147012145F120E9412136E1243
:100D580013BF7BFF7A0779D07D10E4FF1211F17B76
:100D6800FF7A0779E07D18E4FF1211F17BFF7A071B
:100D780079F07D20E4FF1211F17BFF7A0879007D7C
:100D880028E4FF1211F17BFF7A0879107D30E4FF27
:100D98001211F17BFF7A0879207D38E4FF1211F1F6
:100DA8007BFF7A0779E07D40E4FF1211F17BFF7A3F
:100DB8000879307D50E4FF1211F17BFF7A08794001
:100DC8007D58E4FF1211F17BFF7A0779E07D60E43A
:100DD800FF1211F17BFF7A0879507D68E4FF121148
:100DE800F17BFF7A087970E4FD7F021212AC1212CF
:100DF800A2E56875F00A8475F003A42445F8860313
:100E080008E6FA08E6F97D207F021211F11211D6E0
:100E18007BFF7A0979707D307F021212AC7BFF7AF2
:100E28000879B07D407F021212AC7BFF7A08799076
:100E38007D507F021212ACE56775F00A8475F003E5
:100E4800A42445F8860308E6FA08E6F97D607F02DF
:100E58001211F1E56775F00A84E5F075F003A42432
:100E680045F8860308E6FA08E6F97D687F0212115C
:100E7800F17BFF7A0979907D707F021212AC756B55
:0C0E880014756C10E4F564F542F56D2261
:0E148000120D4812122012048F1209F080F58E
:03000B0002139B42
:10139B00C0E0C0D0C28DC28C0564E564D3943240EA
:1013AB0006756400754201D28C758CF8758A2FD046
:0413BB00D0D0E0327C
:10000E000202B6E86480F8E933E83360110460F068
:10001E00ED33EC337009E8FCE9FDEAFEEBFF220458
:10002E0060DED3EB9FEA9EE99DE8C2E78CF0C2F753
:10003E0095F0400CE8CCF8E9CDF9EACEFAEBCFFB1F
:10004E0012028185D0F05804700320D5B3E80470F5
:10005E00075002B2D50202C092D5EC0460F7E4CC90
:10006E00C0E0C398F8603B94186008400DD0E0FBE8
:10007E00020298E4FBFAC9FC8028E830E406E4C9E1
:10008E00FBE4CAFCE830E305E4C9CACBFCE854073C
:10009E006010F8C3E913F9EA13FAEB13FBEC13FC47
:1000AE00D8F130F52FC3E49CFCEF9BFFEE9AFEEDEA
:1000BE0099FDD0E0FBEF4E4D4C701222DB03020295
:1000CE00BDEC2CFCEF33FFEE33FEED33FDED30E7F0
:1000DE00EB020298EF2BFFEE3AFEED39FDD0E0FB7E
:1000EE0050130BBB00030202C0ED13FDEE13FEEF27
:0800FE0013FFEC13FC02029851
:10010600EC4D6011E8497017ED33EC3304600DE4F3
:10011600FCFFFEFD22E933E8330470F80202B61252
:10012600028158046009E4CC248150062850090253
:1001360002C02840030202BDC0E0EB4A7044B98009
:1001460006D0E0FB0202ACEF4E701CBD8008EBFF50
:10015600EAFEE9FD80EBE98DF0A4FEE5F00201EF91
:10016600E9CDF9EAFEEBFFEF89F0A4FCE5F0CE89D4
:10017600F0A42EFFE435F0CD89F0A42DFEE435F091
:100186008067EF4E7005BD80D780C3EF8BF0A4ACBF
:10019600F0EE8BF0A42CFCE435F0F8EF8AF0A42CFA
:1001A600E5F038FCE433CB8DF0A42CFCE5F03BF80D
:1001B600EE8AF0A42CFCE5F038F8E433CF89F0A4FD
:1001C6002CFCE5F038CF3400CE89F0A42FFFE5F003
:1001D6003EFEE433C98DF0A42EFEE5F039CD8AF05B
:1001E600A42FFFE5F03EFEE43DFD33D0E0FB5007D3
:1001F6000BBB000F0202C0EC2CFCEF33FFEE33FE0C
:06020600ED33FD02029839
:10020C0075F020800E75F010800575F0087D007E6D
:10021C00007F003392D530D5031203D9EC33401054
:10022C00EF33FFEE33FEED33FDEC33FCD5F0ED2276
:0E023C00E5F0247EA2D513CC92E7CDCEFF22B2
:10024A00EDD2E7CD33EC3392D524814006E4FFFEAC
:10025A00FDFC22FCE4CFCECDCC24E0501174FF800B
:10026A00EDC3CC13CCCD13CDCE13CECF13CF0470A8
:07027A00F030D5DE0203D9CC
:10028100E9D2E7C933E833F892D5EDD2E7CD33ECC3
:0702910033FC5002B2D5223C
:10029800EC30E7100FBF000C0EBE00080DBD0004C7
:1002A8000BEB6014A2D5EB13FCED92E7FD2274FF73
:1002B800FCFDFEFF22E480F8A2D574FF13FC7D80CC
:0302C800E480EFE0
:03000000020FD814
:0C0FD800787FE4F6D8FD75816E02101FD2
:1002CB00C2D530F707B2D563F0FF05F030E70CB2BB
:1002DB00D5F4048463F0FF05F080018430D502F47B
:0202EB000422EB
:1002ED00BB010CE58229F582E5833AF583E02250C6
:1002FD0006E92582F8E622BBFE06E92582F8E22210
:0D030D00E58229F582E5833AF583E4932229
:10031A00BB010689828A83F0225002F722BBFE01C2
:02032A00F322BC
:10032C00F8BB010DE58229F582E5833AF583E8F007
:10033C00225006E92582C8F622BBFE05E92582C8B3
:02034C00F2229B
:10034E00BC000BBE0029EF8DF084FFADF022E4CC93
:10035E00F875F008EF2FFFEE33FEEC33FCEE9DEC5C
:10036E00984005FCEE9DFE0FD5F0E9E4CEFD22EDA2
:10037E00F8F5F0EE8420D21CFEADF075F008EF2FEC
:10038E00FFED33FD4007985006D5F0F222C398FDDD
:05039E000FD5F0EA227A
:1003A300C2D5EC30E709B2D5E4C39DFDE49CFCEE75
:1003B30030E715B2D5E4C39FFFE49EFE12034EC39C
:1003C300E49DFDE49CFC800312034E30D507C3E497
:0603D3009FFFE49EFE22E4
:0E03D900C3E49FFFE49EFEE49DFDE49CFC2235
:1003E700EB9FF5F0EA9E42F0E99D42F0EC6480C88D
:0603F70064809845F0222D
:1003FD00BB010789828A830204435005E9F8020490
:10040D0037BBFE05E9F802044F89828A8302045B3B
:10041D00BB010789828A830204775005E9F802043B
:0A042D006BBBFE05E9F80204832210
:100FE400021480E493A3F8E493A34003F68001F28F
:100FF40008DFF48029E493A3F85407240CC8C3330E
:10100400C4540F4420C8834004F456800146F6DFDC
:10101400E4800B010204081020408090133EE47E1B
:10102400019360BCA3FF543F30E509541FFEE493D1
:10103400A360010ECF54C025E060A840B8E493A398
:10104400FAE493A3F8E493A3C8C582C8CAC583CAC3
:10105400F0A3C8C582C8CAC583CADFE9DEE780BE7B
:01136D00007F
:0C043700E6FC08E6FD08E6FE08E6FF22F1
:0C044300E0FCA3E0FDA3E0FEA3E0FF222C
:0C044F00E2FC08E2FD08E2FE08E2FF22E9
:10045B00E493FC740193FD740293FE740393FF22E7
:0C046B00ECF608EDF608EEF608EFF622BD
:0C047700ECF0A3EDF0A3EEF0A3EFF022F8
:0C048300ECF208EDF208EEF208EFF222B5
:00000001FF
