:03000000020E31BC
:0C0E3100787FE4F6D8FD75815C020E7835
:1011C40053455420414C41524D00534554205355EE
:1011D40043434553530043414E43454C20535543E9
:0511E4004345535300D8
:1010B900092320203A20203A2020000B1232302028
:1010C900202D20202D202000163653756E4D6F6E71
:1010D900547565576564546875467269536174003F
:0610E900041F202020007E
:04119F007F0A7E0045
:1011A300EF1FAA0670011E4A60167C007D64D3ED12
:1011B3009400EC6480948040E7ED1D70F11C80EE98
:0111C3002209
:1010F000E50BC4540F2430F526E50B540F2430F5CE
:0D110000277FC312110DAF261210A07FC46F
:10110D00C290C2928FA07F057E001211A3D2927F52
:09111D00057E001211A3C292220A
:10107E00E50AC4540F2430F529E50A540F2430F53F
:10108E002A7FC612110DAF291210A07FC712110DA3
:02109E00AF2A77
:1010A000D290C2928FA07F057E001211A3D2927FB0
:0910B000057E001211A3C2922278
:10127C00C291C2927F3812110D7F0C12110D7F0694
:08128C0012110D7F0102110D8A
:06126300C295C293D29572
:10126900E4FEEF139294C293D293EFC313FF0EBE21
:0212790008F07B
:01127B002250
:0D129400121263AF05121269D293C29522A7
:10120C00121263E4FF309403430580D293C293ED32
:0D121C00C313FD0FBF08EED293C295AF05BE
:0112290022A2
:06114F008B538A54895500
:10115500755681E4FCAF5612120CAB53AA54A9552F
:101165008C82758300EF120A8A055605560CBC075A
:01117500E495
:011176002256
:10112600755280E4FD7F8E1212947C07120A71FDBF
:10113600AF52121294740129F9E43AFA0552055293
:09114600DCEA7D807F8E02129428
:100FE3007F8112120C8F11E51130E745E4FD7F8EEE
:100FF3001212947DA57F90121294E4FD7F80121249
:10100300947D597F821212947D107F841212947DF5
:10101300077F861212947D057F881212941D7F8AA2
:101023001212947D147F8C1212947D807F8E121283
:02103300942205
:0A0F2400FC7D0A120AACAE04AF0512
:100F2E007D30EE7051EFB40A00504B900F40F82810
:100F3E002873020F5E020F62020F66020F6A020F23
:100F4E006E020F72020F76020F7A020F7E020F826E
:100F5E007D3080227D31801E7D32801A7D33801659
:100F6E007D3480127D35800E7D36800A7D37800679
:080F7E007D3880027D39AF05CA
:010F86002248
:100B69007B007A00790A12114FE50AC4540F243028
:100B7900F529E50A540F2430F52AE50BC4540F244E
:100B890030F526E50B540F2430F527E50CC4540F36
:100B99002430F523E50C540F2430F524E50DC45415
:100BA9000F2430F51AE50D540F2430F51BE50EC45A
:100BB900540F2430F517E50E540F2430F518E510BD
:100BC900C4540F2430F514E510540F2430F515E5FD
:100BD9000F75F00A84AFF0EF75F003A42436F8E638
:100BE900F51FEF75F003A42437F8E6F520E50F7536
:100BF900F00A84E5F075F003A42438F8E6F5217FBE
:100C09008112110DE4F534F53574122535F8E6FF36
:100C19001210A00535E53570020534C3940AE53490
:100C29006480948040E37F201210A0E4F534F53508
:100C3900741F2535F8E6FF1210A00535E535700259
:100C49000534C39403E5346480948040E37FC01283
:100C5900110DE4F534F53574232535F8E6FF121046
:100C6900A00535E53570020534C39408E534648080
:100C7900948040E37FC812110D120D428E2E8F2FE2
:100C89007C037DE8120AACEF2430F550AE2EAF2F6D
:100C99007C037DE8120AAC7E007F64CFCDCFCECC39
:100CA900CE120AACEF2430FBAE2EAF2F7C007D6450
:100CB900120AAC7E007F0ACFCDCFCECCCE120AACC1
:100CC900EF2430F551AE2EAF2F7C007D64120AACB3
:100CD9007E007F0ACFCDCFCECCCE120AACED243028
:100CE900F9E52D6401452C7019755220E550B43091
:100CF90008755020BB30027B20AF521210A0AF50B4
:100D0900801675522D7F201210A0BB30097F20124A
:100D190010A0AF528007AF521210A0AF031210A05B
:100D2900AF511210A07F2E1210A0AF011210A07F98
:090D3900DF1210A07F430210A09C
:06103500AB078D828C83E5
:10103B007C007D0AAF82AE83120AAC8E528F53AE08
:10104B0083AF827C007D0A120AAC8C548D55AF03A2
:10105B0012110DAF53AE52120F2E1210A0EB04FF54
:10106B0012110DAF55AE54120F2E1210A0EB04FF40
:03107B0002110D52
:100EBD00E509450870607F0112110D7F8312110D38
:100ECD00E4FBEB9011C493FF1210A00BBB09F3AD23
:100EDD0033AC327FC51210357FC712110D7F3A1218
:100EED0010A0AD31AC307FC8121035E54F454E7FA7
:100EFD00CD601112110D7F201210A07F4F1210A086
:100F0D007F4E800F12110D7F4F1210A07F461210D1
:060F1D00A07F461210A0A7
:010F230022AB
:1000030030B4030200A712119F30B4030200A730DB
:10001300B4FD12119F30B4FDE509450860030200E9
:10002300A7051EE51E7002051D7D807F80121294B8
:10003300E51E6408451D701B7F0C12110DE4FD7F46
:10004300801212947B007A00790A121126E4F51DBE
:10005300F51E22E51D7048E51E14B40700504090BC
:10006300007075F003A4C58325F0C5837302008572
:1000730002008902008D020091020095020099029C
:10008300009D7FC780167FC480127FC1800E7F8E44
:10009300800A7F8A80067F8780027F8412110D7F0A
:1000A3000F12110D30B5030203C112119F30B503B6
:1000B3000203C130B5FD12119F30B5FDE51E451D8C
:1000C3007003020331E51D6003020331E51E14B41E
:1000D300070040030203319000E875F003A4C583D1
:1000E30025F0C583730200FD020137020176020188
:1000F300BA02022E02027A0202B5050AE50AB45ACE
:1001030003E4F50AE50AB44A03750A50E50AB43A6A
:1001130003750A40E50AB42A03750A30E50AB41ADE
:1001230003750A20E50AB40A03750A1012107E7FCC
:10013300C702032E050BE50BB45A03E4F50BE50BDD
:10014300B44A03750B50E50BB43A03750B40E50B4A
:10015300B42A03750B30E50BB41A03750B20E50BBA
:10016300B40A03750B101210F0AF271210A07FC44E
:1001730002032E050CE50CB42403E4F50CE50CB4E2
:100183001A03750C20E50CB40A03750C10E50CC4B6
:10019300540F2430F523E50C540F2430F5247FC08D
:1001A30012110DAF231210A07FC112110DAF241233
:1001B30010A07FC102032E050FE50FB40803750FCE
:1001C30001E50F75F00A84ADF0ED75F003A4641535
:1001D30045F0700B85361F8537208538218029E54A
:1001E3000F75F00A84AFF0EF75F003A42436F8E638
:1001F300F51FEF75F003A42437F8E6F520ED75F04D
:1002030003A42438F8E6F5217F8C12110DAF1F12D9
:1002130010A07F8D12110DAF201210A07F8E12112E
:100223000DAF211210A07F8E02032E050DE50DB434
:100233003203750D01E50DB42A03750D30E50DB4D8
:100243001A03750D20E50DB40A03750D10E50DC4F1
:10025300540F2430F51AE50D540F2430F51B7F8914
:1002630012110DAF1A1210A07F8A12110DAF1B12BB
:1002730010A07F8A02032E050EE50EB41303750E3C
:1002830001E50EB40A03750E10E50EC4540F2430B5
:10029300F517E50E540F2430F5187F8612110DAFB4
:1002A300171210A07F8712110DAF181210A07F87AD
:1002B30080790510E510B49A03E4F510E510B48ACB
:1002C30003751090E510B47A03751080E510B46AD5
:1002D30003751070E510B45A03751060E510B44A45
:1002E30003751050E510B43A03751040E510B42AB5
:1002F30003751030E510B41A03751020E510B40A25
:1003030003751010E510C4540F2430F514E5105490
:100313000F2430F5157F8312110DAF141210A07F37
:100323008412110DAF151210A07F8412110DE5096F
:10033300450870030203C1E50860030203C1E50930
:1003430024FE604514605C24027073E54F454E70D3
:1003530018F54E754F017FCD12110D7F201210A09D
:100363007F4F1210A07F4E8016E4F54EF54F7FCDE0
:1003730012110D7F4F1210A07F461210A07F46125C
:1003830010A07FCF12110D80350531E531700205C4
:1003930030643C45307004F530F531AD31AC307F1D
:1003A300C880180533E5337002053264184532708E
:1003B30004F532F533AD33AC327FC512103530B6A8
:1003C300030206DC12119F30B6030206DC30B6FDD1
:1003D30012119F30B6FDE51E451D700302063FE571
:1003E3001D600302063FE51E14B407004003020626
:1003F3003F90040275F003A4C58325F0C5837302FF
:1004030004170204510204900204D40205440205B5
:100413008C0205C3150AE50AB4FF03750A59E50AF8
:10042300B44F03750A49E50AB43F03750A39E50A6F
:10043300B42F03750A29E50AB41F03750A19E50ADF
:10044300B40F03750A0912107E7FC702063C150B11
:10045300E50BB4FF03750B59E50BB44F03750B495B
:10046300E50BB43F03750B39E50BB42F03750B296B
:10047300E50BB41F03750B19E50BB40F03750B09DB
:100483001210F0AF271210A07FC402063C150CE532
:100493000CB4FF03750C23E50CB41F03750C19E5AD
:1004A3000CB40F03750C09E50CC4540F2430F52369
:1004B300E50C540F2430F5247FC012110DAF231225
:1004C30010A07FC112110DAF241210A07FC102062C
:1004D3003CD50F03750F07E50F75F00A84ADF0EDFA
:1004E30075F003A4641545F0700B85361F8537201E
:1004F3008538218029E50F75F00A84AFF0EF75F098
:1005030003A42436F8E6F51FEF75F003A42437F8A7
:10051300E6F520ED75F003A42438F8E6F5217F8C89
:1005230012110DAF1F1210A07F8D12110DAF2012EB
:1005330010A07F8E12110DAF211210A07F8E020624
:100543003CD50D03750D31E50DB42F03750D29E56C
:100553000DB41F03750D19E50DB40F03750D09E5F2
:100563000DC4540F2430F51AE50D540F2430F51B38
:100573007F8912110DAF1A1210A07F8A12110DAFCD
:100583001B1210A07F8A02063CD50E03750E12E5DE
:100593000EB40F03750E09E50EC4540F2430F5177E
:1005A300E50E540F2430F5187F8612110DAF171284
:1005B30010A07F8712110DAF181210A07F878079CA
:1005C3001510E510B4FF03751099E510B48F03758A
:1005D3001089E510B47F03751079E510B46F0375C6
:1005E3001069E510B45F03751059E510B44F037536
:1005F3001049E510B43F03751039E510B42F0375A6
:100603001029E510B41F03751019E510B40F037515
:100613001009E510C4540F2430F514E510540F24C9
:1006230030F5157F8312110DAF141210A07F8412C1
:10063300110DAF151210A07F8412110DE5094508A5
:1006430070030206DCE50860030206DCE50924FE0C
:100653006048146064240260030206DCE54F454EE3
:100663007018F54E754F017FCD12110D7F201210BA
:10067300A07F4F1210A07F4E8016E4F54EF54F7FFA
:10068300CD12110D7F4F1210A07F461210A07F468E
:100693001210A07FCF12110D803FE531153170028A
:1006A3001530C3E530648094805006753000753191
:1006B3003BAD31AC307FC8801DE533153370021577
:1006C30032C3E53264809480500675320075331767
:1006D300AD33AC327FC512103530B7030207B31206
:1006E300119F30B7030207B330B7FD12119F30B724
:1006F300FDE51E451D60030207B3120EBD0509E5A6
:100703000970020508640445086003020790F508B0
:10071300F5097F0112110D7F0C12110DE54F454EA6
:1007230060317F8212110DE4F550F55174CE2551DD
:10073300F58274113550F583E493FF1210A005512F
:10074300E55170020550C3940BE5506480948040DA
:10075300DB802F7F8112110DE4F550F55174DA25FA
:1007630051F58274113550F583E493FF1210A005FF
:1007730051E55170020550C3940EE5506480948096
:1007830040DB7FD07E071211A37F018020E5087034
:100793001AE50924FE600B14600C2402700D7FCF50
:1007A30080067FC980027FC612110D7F0F12110DC3
:0107B3002223
:100F8700AE32AF337C007D0A120AAC120F2EEF652A
:100F9700237041AE32AF33120F24EF65247035AEA4
:100FA70030AF31FC7D0A120AAC120F2EEF652670A6
:100FB70023AE30AF31120F24EFB52718754C0075EB
:100FC7004D01C2967FFA7E001211A3D2967FFA7E58
:0C0FD700000211A3E4F54CF54DD2962267
:0B12A100EF1FAC0670011E4C70F6221F
:10117700E4FDD2977F08FE1212A1C2977F507E002E
:101187001212A1D2977F0E7E001212A1A297E4330A
:08119700FD7F147E000212A18D
:10122A00E4FB7D08C297EBC313FBD29730970343C5
:0D123A0003807F047E001212A1DDE9AF03E6
:011247002284
:02124800AD07F0
:10124A007B08C297ED1392977F057E001212A1D2F6
:08125A0097EDA2E713FDDBEAAA
:011262002269
:100D42001211777FCC1212487F4412124812117787
:100D52007FCC1212487FBE12124812122A8F5312EF
:100D6200122A8F54E48F58F557F556F555AF58AE01
:100D720057AD56AC557808120B018F588E578D56C9
:100D82008C55E5534558F558E557F557E556F55650
:100D9200E555F555E4FF7EF8FDFCAB58AA57A95678
:100DA200A855C3120AF04035E4F52CF52DE553F4AD
:100DB200FFBFFF0BE554F404F554E4F553800763D9
:100DC20054FFEF04F553E554FE7C00E42553FFEC99
:100DD2003EFEE48F588E57F556F5558006752C0069
:100DE200752D01AF58AE57AD56AC55E41209B2E4B9
:100DF200FBFA7980783D1208AC8F5C8E5B8D5A8C41
:100E020059E4FFFE7D207C41AB5CAA5BA95AA8593C
:100E12001208ACE52D6401452C7007FBFAF9783F06
:0E0E22008006E4FBFAF978BF1207BB1209F054
:010E3000229F
:1011E90012127C120FE3E54F454E6003120F87126E
:1011F9000003E51E451D70EEE509450870E8120B70
:031209006980E316
:1007B400020A5CE86480F8E933E83360110460F00D
:1007C400ED33EC337009E8FCE9FDEAFEEBFF2204AB
:1007D40060DED3EB9FEA9EE99DE8C2E78CF0C2F7A6
:1007E40095F0400CE8CCF8E9CDF9EACEFAEBCFFB72
:1007F400120A2785D0F05804700320D5B3E804709A
:10080400075002B2D5020A6692D5EC0460F7E4CC34
:10081400C0E0C398F8603B94186008400DD0E0FB3A
:10082400020A3EE4FBFAC9FC8028E830E406E4C985
:10083400FBE4CAFCE830E305E4C9CACBFCE854078E
:100844006010F8C3E913F9EA13FAEB13FBEC13FC99
:10085400D8F130F52FC3E49CFCEF9BFFEE9AFEED3C
:1008640099FDD0E0FBEF4E4D4C701222DB03020ADF
:1008740063EC2CFCEF33FFEE33FEED33FDED30E79C
:10088400EB020A3EEF2BFFEE3AFEED39FDD0E0FB22
:1008940050130BBB0003020A66ED13FDEE13FEEFCB
:0808A40013FFEC13FC020A3EF5
:1008AC00EC4D6011E8497017ED33EC3304600DE446
:1008BC00FCFFFEFD22E933E8330470F8020A5C12F7
:1008CC000A2758046009E4CC2481500628500902F8
:1008DC000A66284003020A63C0E0EB4A7044B98000
:1008EC0006D0E0FB020A52EF4E701CBD8008EBFFF5
:1008FC00EAFEE9FD80EBE98DF0A4FEE5F002099536
:10090C00E9CDF9EAFEEBFFEF89F0A4FCE5F0CE8926
:10091C00F0A42EFFE435F0CD89F0A42DFEE435F0E3
:10092C008067EF4E7005BD80D780C3EF8BF0A4AC11
:10093C00F0EE8BF0A42CFCE435F0F8EF8AF0A42C4C
:10094C00E5F038FCE433CB8DF0A42CFCE5F03BF85F
:10095C00EE8AF0A42CFCE5F038F8E433CF89F0A44F
:10096C002CFCE5F038CF3400CE89F0A42FFFE5F055
:10097C003EFEE433C98DF0A42EFEE5F039CD8AF0AD
:10098C00A42FFFE5F03EFEE43DFD33D0E0FB500725
:10099C000BBB000F020A66EC2CFCEF33FFEE33FEB0
:0609AC00ED33FD020A3EDE
:1009B20075F020800E75F010800575F0087D007EC0
:1009C200007F003392D530D503120AE2EC33401097
:1009D200EF33FFEE33FEED33FDEC33FCD5F0ED22C9
:0E09E200E5F0247EA2D513CC92E7CDCEFF2205
:1009F000EDD2E7CD33EC3392D524814006E4FFFEFF
:100A0000FDFC22FCE4CFCECDCC24E0501174FF805D
:100A1000EDC3CC13CCCD13CDCE13CECF13CF0470FA
:070A2000F030D5DE020AE20E
:100A2700E9D2E7C933E833F892D5EDD2E7CD33EC15
:070A370033FC5002B2D5228E
:100A3E00EC30E7100FBF000C0EBE00080DBD000419
:100A4E000BEB6014A2D5EB13FCED92E7FD2274FFC5
:100A5E00FCFDFEFF22E480F8A2D574FF13FC7D801E
:030A6E00E480EF32
:100E3D000211E9E493A3F8E493A34003F68001F2D1
:100E4D0008DFF48029E493A3F85407240CC8C333B6
:100E5D00C4540F4420C8834004F456800146F6DF85
:100E6D00E4800B01020408102040809010B9E47E4C
:100E7D00019360BCA3FF543F30E509541FFEE4937A
:100E8D00A360010ECF54C025E060A840B8E493A341
:100E9D00FAE493A3F8E493A3C8C582C8CAC583CA6C
:100EAD00F0A3C8C582C8CAC583CADFE9DEE780BE24
:0110EF000000
:100A7100BB010689828A83E0225002E722BBFE0283
:090A8100E32289828A83E49322B6
:100A8A00F8BB010DE58229F582E5833AF583E8F0A2
:100A9A00225006E92582C8F622BBFE05E92582C84E
:020AAA00F22236
:100AAC00C2D5EC30E709B2D5E4C39DFDE49CFCEE65
:100ABC0030E715B2D5E4C39FFFE49EFE120B14C3BE
:100ACC00E49DFDE49CFC8003120B1430D507C3E4B9
:060ADC009FFFE49EFE22D4
:0E0AE200C3E49FFFE49EFEE49DFDE49CFC2225
:100AF000EB9FF5F0EA9E42F0E99D42F0E89C45F05C
:010B000022D2
:100B0100E8600FEFC333FFEE33FEED33FDEC33FC52
:030B1100D8F122F6
:100B1400BC000BBE0029EF8DF084FFADF022E4CCC5
:100B2400F875F008EF2FFFEE33FEEC33FCEE9DEC8E
:100B3400984005FCEE9DFE0FD5F0E9E4CEFD22EDD4
:100B4400F8F5F0EE8420D21CFEADF075F008EF2F1E
:100B5400FFED33FD4007985006D5F0F222C398FD0F
:050B64000FD5F0EA22AC
:00000001FF
