:0C03E2003F065B4F666D7D077F6F00716A
:10038400C100C1010212000002090000020B0000BA
:1003940001153F01143C011A3F01083C01102101E1
:0203A400111E28
:07035D0093F5A07F017E0073
:10036400E4FDFCC3ED9FEC9E5015E4FBFA0BBB00CF
:0F037400010AEB646E4A70F50DBD00010C80E4C8
:010383002257
:1003D200758901758C3C758AB0D2AFD2A9D28C22B4
:1003C00020B205E4F50DF50E30B206750D00750E80
:0203D000012208
:10021B00E50B60030202D0E50C14606D0460030271
:10022B0002D0E51475F00A84F516E51475F00A840E
:10023B0085F017E51575F00A84F518E51575F00AC4
:10024B008485F019C2B1D297D2B6D2B7E516900316
:10025B00E212035DD2B1C297D2B6D2B7E51793F5CE
:10026B00A07F01120364D2B1D297C2B6D2B7E51800
:10027B0093F5A07F01120364D2B1D297D2B6C2B765
:10028B00E51993F5A07F018039C2B1D297D2B6D2CE
:10029B00B79003EDE412035DD2B1C297D2B6D2B7D9
:1002AB00E493F5A0120364D2B1D297C2B6D2B7E4ED
:1002BB0093F5A0120364D2B1D297D2B6C2B7E4932E
:0602CB00F5A012036422FD
:1003A7001203D2D2B2C291D294C296D293C292C24F
:0903B700951203C012021B80F82C
:03000B0002000EE2
:10000E00C0E0C0D075D000C004C005C006C00775E2
:10001E008C3C758AB0D28C050FE50D600302020E82
:10002E00E50E14603004600302020E750B00750CB1
:10003E0001751200751300C291C294D296D293C26A
:10004E0092C295851A15850814750F0075090075ED
:10005E000A0102020E750B00750C00E50A640145DB
:10006E00097017C291D294C296D293C292C295E5EC
:10007E000A150A70021509750F00E5134512600383
:10008E0002014AAF0FFEEF6405702AD3E514940304
:10009E0074809480500A200007300104C291C292ED
:1000AE00D3E515940374809480500A300007300114
:1000BE0004C294C295EF64144E600302014AF50F18
:1000CE0015151514AF14FED3EF940374809480505D
:1000DE000A200007300104C294D295AD157C00D3DE
:1000EE00ED940374809480500A300007300104C2EE
:1000FE0091D292ED4C700BEF64034E7005751503A3
:10010E00D201AF157E00EF64037009E5147005751A
:10011E001403D201E5147024EF4E7020F5A0D29690
:10012E00D291C294C293C292C295B200C2018510FE
:10013E00158511140513E51370020512E5136401FC
:10014E004512600302020EAF0FFEEF640A702AD34F
:10015E00E514940374809480500A20000730010443
:10016E00C294C295D3E515940374809480500A30DE
:10017E000007300104C291C292EF64144E60030274
:10018E00020EF50F15151514AF14FED3EF9403746C
:10019E00809480500A200007300104C294D295AD9D
:1001AE00157C00D3ED940374809480500A300007C0
:1001BE00300104C291D292ED4C700BEF64034E707D
:1001CE0005751503D201AF157E00EF64037009E5C6
:1001DE00147005751403D201E5147024EF4E7020CF
:1001EE00F5A0D294D293C296C291C292C295B20099
:1001FE00C201851A15850814E51315137002151220
:0D020E00D007D006D005D004D0D0D0E0320B
:030000000202D128
:0C02D100787FE4F6D8FD75812002031848
:1002DD000203A7E493A3F8E493A34003F68001F28D
:1002ED0008DFF48029E493A3F85407240CC8C33322
:1002FD00C4540F4420C8834004F456800146F6DFF1
:10030D00E4800B0102040810204080900384E47EF9
:10031D00019360BCA3FF543F30E509541FFEE493E5
:10032D00A360010ECF54C025E060A840B8E493A3AC
:10033D00FAE493A3F8E493A3C8C582C8CAC583CAD7
:10034D00F0A3C8C582C8CAC583CADFE9DEE780BE8F
:0103A6000056
:00000001FF
