:100D940057656C636F6D6520746F207573652000F3
:100DA400506C6561736520576174696E672E2E2ED1
:100DB40000463D2030303030303030303030204844
:100DC4007A00463D202020202020202020202020A2
:100DD400487A00256C6400503D20202020202020EB
:100DE40020202020206D730025302E3666002562D9
:0D0DF40064005570703D25302E33665600AA
:100ED2000256000002580000045A00000000015EA1
:100EE20001015F01044E00000000045200000000F6
:0D000E00C2A5D2A600D2A700C2A7AF8022D3
:050F1000C20175320171
:100F1500C2A7A20192A5C2A60085328000D2A70071
:060F2500C2A70002000E4D
:0A0F7E00C201EF4408F532020F151E
:0A0F8800C201EF4404F532020F1518
:100E6C00C201753238120F15C201753238120F15C6
:100E7C00C20175320C120F15120F10C20175320C13
:030E8C00020F153D
:030E8F00E4FDFF80
:100E9200AE07ED700AC201EE4480F532120F15BDA5
:0F0EA200010CC201EE24C04480F532120F15225C
:060EF3007B007A00792665
:100EF9001204E6FF6010D201F532120F15740129B0
:070F0900F9E43AFA80EA2244
:090F5900D2A1D2A0120F62C2A0C5
:0A0F6200E4FEEEC39F50030E80F87A
:010F6C002262
:100E0100E4FDC2A2C2A17F0A120F62C2A07F021238
:100E11000F62120F59120F59A20292A1D2A0120F02
:100E210062C2A1D2A1120F5BE4FCD2A07F02120F19
:100E31005DED25E0FFA2A1E4334FFD0CBC08EBD230
:030E4100A2AF0558
:010E4400228B
:100F4300A2019202120E017E007C007D6412053E16
:050F53007D3312055082
:010F58002276
:100F2B00E4FDFCC3ED9FEC9E500DE4FB0BBB6EFC94
:070F3B000DBD00010C80EC6C
:010F4200228C
:100F6D007F057E047D747CD6DCFEDDFADEF6DFF2D5
:010F7D002251
:100EB100758925E4F58CF58A758D06758B06D2B09A
:100EC100C2B0C2B1D2B1D2A9D2ABD2AFD28CD28E82
:010ED10022FE
:100AB800E4F525F524F523F522C200F530F53112C9
:100AC8000E6C120EB1120E8F7BFF7A0D7994120EF6
:100AD800F90DE4FF120E927A0D79A4120EF9120F95
:100AE8006D120F1020B7127F0A7E00120F2B20B74D
:100AF8000830B7FDB200120F10C201120F438E303A
:100B08008F31D3E5319559E53095584006853058F1
:100B1800853159E559AE587803CEC313CE13D8F9A9
:100B2800FFD3E5319FE5309E4014E55813FEE559A3
:100B380013FFC3E5319FE5309E5003E4F55F3000B5
:100B480003020C2BE4FF7E01FDFCAB51AA50A94F18
:100B5800A84E1205A5EF2555F525EE3554F524EDDB
:100B68003553F523EC3552F522E4FFFEFDFCAB25A9
:100B7800AA24A923A822C3120602701BFDFF120E85
:100B8800927BFF7A0D79B5120EF90DE4FF120E92E1
:100B98007A0D79B5020C25120E8F7BFF7A0D79C676
:100BA800120EF98B3575360D7537D785253B85249B
:100BB8003A8523398522387B007A0079261206A5E2
:100BC800E4FD7F02120E92120EF30DE4FF120E9254
:100BD8007BFF7A0D79DB120EF98B3575360D75377B
:100BE800ECAF25AE24AD23AC22E41200BEA804A9C4
:100BF80005AA06AB07E4FFFE7D7A7C441200218F2C
:100C08003B8E3A8D398C387B007A0079261206A5FE
:100C18007D017F02120E927B007A007926120EF96E
:100C2800020AEC7535FF75360D7537F2855E387B2F
:100C3800007A0079261206A5E4FDFF120E92120E24
:100C4800F37535FF75360D7537F6855D3B855C3A6E
:100C5800855B39855A387A0079261206A57D01E424
:0A0C6800FF120E92120EF3020AECC6
:03000B00020003ED
:0100030032CA
:03001B00020C7262
:100C7200C0E0C0F0C083C082C0D075D018E5576410
:100C82009F7004E556640F706AC2B1C28CC28EAF07
:100C92008CEFFEAD8A7C00E42DFFEC3EFEE48F512A
:100CA2008E50F54FF54EAF908F55F554F553F552E2
:100CB200AC58AD591200C3E4FBFA79C8784212006D
:100CC200218F5D8E5C8D5B8C5A755800755900853D
:100CD2005F5E755F01D2B0C2B0758C00758A007517
:100CE2008D06758B06755600755700D2B1D28CD21F
:100CF2008E80080557E55770020556D0D0D082D0B5
:060D020083D0F0D0E032C6
:10001E0002013BEC5D046005E859047003020131F6
:10002E001200FC580460F6EC4860F2EC7004FDFE21
:10003E00FF22C860DB2481C85009C39860025006B5
:10004E000201389850CAF582E9294B4A7005AB82F5
:10005E0002012775F0007C1A7880C3EF9BEE9AEDB3
:10006E0099400DC3EF9BFFEE9AFEED99FDE842F02D
:10007E00DC23ACF0D0E0FFD0E0FED0E0FDAB822080
:10008E00E7101BEB60BAEC2CFCEF33FFEE33FEED0A
:10009E0033FD020113E803F830E705C0F075F000F8
:1000AE00EF2FFFEE33FEED33FD40B830E7C280AAEE
:1000BE0075F020800E75F010800575F0087D007EBD
:1000CE00007F003392D530D5031205F4EC33401087
:1000DE00EF33FFEE33FEED33FDEC33FCD5F0ED22C6
:0E00EE00E5F0247EA2D513CC92E7CDCEFF2202
:10064900E5492435F8E6054922783230080278353B
:10065900E475F0011206130204E62001EB7F2ED2A5
:10066900018018EF540F2490D43440D4FF30050B87
:10067900EF24BFB41A0050032461FFE54A60021554
:100689004A054DE54D7002054C30080D7832E47588
:10069900F001120613EF02052C020E457403D2086D
:1006A9008003E4C208F5498B328A338934E4F54A78
:1006B900F54CF54DE54A60077F2012068480F575F3
:1006C9004BFFC202C201C203C204C206C207C20969
:1006D900120652FF700D3008057F00120695AF4DC6
:1006E900AE4C22B4255FC2D5C205120652FF24D0F2
:1006F900B40A00501A75F00A784A30D50508B6FFD1
:100709000106C6A426F620D5047002D20480D92495
:10071900CFB41A00EF5004C2E5D205020982D20211
:1007290080C6D20180C0D20380BCD2D580BAD2069D
:1007390080B47F201206842003077401B54A004063
:10074900F1120649FF1206840206BDD209D20780BA
:1007590095120649FB120649FA120649F94A4B70E5
:100769000679797A0A7BFF20032EE54A602A7E0002
:100779008E827583001204FF60060EEE654B70F0E1
:10078900C2D5EBC0E0EAC0E0E9C0E0EE1209E2D070
:10079900E0F9D0E0FAD0E0FB1204E6FF60AAEBC072
:1007A900E0EAC0E0E9C0E0120684D0E02401F9D013
:1007B900E03400FAD0E0FBE54B0460DCD54BD9808E
:1007C90087D20380A21209C560F7E54B70010412B4
:1007D9000146A94B600DE54B600914F54B120A6CF3
:1007E900EF60F3EA30E702F404C3995077EAF4259D
:1007F9004B0430E701E404F54B800D1209C560C1D3
:10080900EA054B254B120146EA7848F630E701E440
:10081900254B04D54B04200601141209E2E4C0E07B
:10082900120A6C7848E6601320E70714F612066C82
:10083900802204F6D0E014C0E07F0012066CE54B7C
:100849006007120663154B800B300603120663D04E
:10085900E00206BDD0E00480C51209C560A0E54BE1
:10086900041201467848EAF6E54B200602600104C5
:0508790024041209E255
:10087E0074FF04C0E0120A6C12066CE54B200602EF
:10088E006003120663D0E0B54BE87F45120676781A
:10089E0048E67F2B30E7047F2DF404C0E012068477
:1008AE00D0E075F00A84C0F012066DD0E012066D2D
:1008BE000206BD791080027908C207C2098008D2EB
:1008CE00D5790A8004790AC2D5E54B047002F54B3E
:1008DE00E4FAFDFEFF120649FC7B08200213120605
:1008EE0049FD7B1030010A120649FE120649FF7BB4
:1008FE0020EC3382D592D55013C3E43001069FFF0E
:10090E00E49EFEE42002039DFDE49CFCE4CBF8C2D1
:10091E0002EC700CCFCECDCCE824F8F870F3801733
:10092E00C3EF33FFEE33FEED33FDEC33FCEB33FB65
:10093E00994002FB0FD8E9EB300205F8D0E0C4482D
:10094E00B202C0E00AEC4D4E4F78207B0070C2EA36
:10095E00B54B0040BCC0E01209E4D0F0D0E020025C
:10096E0004C4C0E0C4B202C0F012066DD0F0D5F0DF
:10097E00EB0206BD120623075A5308C158072B4C2B
:10098E0007274208C54F08CD4408CD490740430804
:10099E00D35508044608624507CE470A9950072FDB
:1009AE002D07332E07562B0737230754200A822A8A
:1009BE0006EF480000074EE54BB4FF03754B0612D9
:1009CE000649FC120649FD120649FE120649FF7839
:1009DE0041020175790AA2D5200414300609B91016
:1009EE00020404B9080104A2D52007025001042014
:1009FE0003689203B54A005034C0E07F20300419DA
:100A0E007F30A20372077206500F120A3BC203C256
:100A1E0007C206C2097F30800F300603E9C0E0121C
:100A2E000684300603D0E0F9D0E0B54ACC30061784
:100A3E007F30B9100C1206847F583005077F7880FE
:100A4E0003B908031206843003057F2D0206847F46
:100A5E00202009F87F2B2007F322920380CF7F00FE
:100A6E00B4070050052441F8E6FF22286E756C6C21
:100A7E002900D2021206493002F8C202784A30D555
:100A8E000108F60206EF2D50434958120649240379
:100A9E00B405004001E4900A9493120675743A125C
:0A0AAE000675D204754A040208C15F
:1000FC00E9D2E7C933E833F892D5EDD2E7CD33EC4A
:07010C0033FC5002B2D522C2
:10011300EC30E7100FBF000C0EBE00080DBD00044D
:100123000BEB6014A2D5EB13FCED92E7FD2274FFF9
:10013300FCFDFEFF22E480F8A2D574FF13FC7D8052
:03014300E480EF66
:10014600F920E72824F950037907E4F42402FB1880
:10015600DBFDE624FB5014E9600DE4F618E604F630
:0F016600B40A08E4F6D9F57401F60A22C2D522CC
:10017500ED33EC3392D5FA602AB4FF33EDC2E77B59
:10018500FF60067A01799AE4227A0179A320D504E1
:100195007A01799E224E614E002B494E46002D492B
:1001A5004E4600E47A08F608DAFC7B00740722E87C
:1001B500C0E0ECC0E0EDC0E0EEC0E0EFC0E0EA7505
:1001C500F010A4CAABF075F04DA42BFBE435F0FCA0
:1001D500EA2410FAEB34C5FBEC34D9FCEDC2E7FF99
:1001E50075F056A4F42411C5F0F434C58FF0A42A93
:1001F500E5F03BE43CF620E7141204A6D0E0FFD07E
:10020500E0FED0E0FDD0E0FC1200218014F40412E1
:1002150004A6D0E0FFD0E0FED0E0FDD0E0FC120364
:1002250070D0E0F8E6FAEDD2E7CD33EC332482FB6B
:10023500E4C3CF33CFCE33CECD33CD33DBF37B0722
:1002450075F00A846004F6081B0AE5F0F6088FF0DD
:10025500740AA4FFACF08EF0740AA42CFEACF05026
:10026500010C8DF0740AA42CFDE435F0F608DBDEF4
:03027500740722E9
:10027800020131E86480F8E933E83360110460F082
:10028800ED33EC337009E8FCE9FDEAFEEBFF2204EC
:1002980060DED3EB9FEA9EE99DE8C2E78CF0C2F7E7
:1002A80095F0400CE8CCF8E9CDF9EACEFAEBCFFBB3
:1002B8001200FC85D0F05804700320D5B3E8047010
:1002C800075002B2D502013B92D5EC0460F7E4CCAA
:1002D800C0E0C398F8603B94186008400DD0E0FB7C
:1002E800020113E4FBFAC9FC8028E830E406E4C9FB
:1002F800FBE4CAFCE830E305E4C9CACBFCE85407D0
:100308006010F8C3E913F9EA13FAEB13FBEC13FCDA
:10031800D8F130F52FC3E49CFCEF9BFFEE9AFEED7D
:1003280099FDD0E0FBEF4E4D4C701222DB03020129
:1003380038EC2CFCEF33FFEE33FEED33FDED30E708
:10034800EB020113EF2BFFEE3AFEED39FDD0E0FB97
:1003580050130BBB000302013BED13FDEE13FEEF40
:0803680013FFEC13FC0201136A
:10037000EC4D6011E8497017ED33EC3304600DE487
:10038000FCFFFEFD22E933E8330470F8020131126C
:1003900000FC58046009E4CC24815006285009026E
:1003A000013B284003020138C0E0EB4A7044B980A9
:1003B00006D0E0FB020127EF4E701CBD8008EBFF6A
:1003C000EAFEE9FD80EBE98DF0A4FEE5F0020459B8
:1003D000E9CDF9EAFEEBFFEF89F0A4FCE5F0CE8968
:1003E000F0A42EFFE435F0CD89F0A42DFEE435F025
:1003F0008067EF4E7005BD80D780C3EF8BF0A4AC53
:10040000F0EE8BF0A42CFCE435F0F8EF8AF0A42C8D
:10041000E5F038FCE433CB8DF0A42CFCE5F03BF8A0
:10042000EE8AF0A42CFCE5F038F8E433CF89F0A490
:100430002CFCE5F038CF3400CE89F0A42FFFE5F096
:100440003EFEE433C98DF0A42EFEE5F039CD8AF0EE
:10045000A42FFFE5F03EFEE43DFD33D0E0FB500766
:100460000BBB000F02013BEC2CFCEF33FFEE33FE25
:06047000ED33FD02011353
:100476003F8000004120000042C80000447A00008E
:10048600461C400047C35000497424004B18968010
:100496004CBEBC205A0E1BCA6753C21C749DC5AE07
:1004A600FB60065407601C23231204D4EB54386007
:1004B600091204C01204CF120370ECF8EDF9EEFA3B
:1004C600EFCB22EB1204CF80F1543803241C9004A6
:1004D60076FE93FC0EEE93FD0EEE930ECE93FF2268
:03000000020D08E6
:0C0D0800787FE4F6D8FD75815F020D4F86
:1004E600BB010689828A83E0225002E722BBFE0214
:0904F600E32289828A83E4932247
:1004FF00BB010CE58229F582E5833AF583E02250B2
:10050F0006E92582F8E622BBFE06E92582F8E222FB
:0D051F00E58229F582E5833AF583E4932215
:10052C00BB010689828A83F0225002F722BBFE01AE
:02053C00F322A8
:10053E00EF8DF0A4A8F0CF8CF0A428CE8DF0A42ED1
:02054E00FE228B
:10055000BC000BBE0029EF8DF084FFADF022E4CC8F
:10056000F875F008EF2FFFEE33FEEC33FCEE9DEC58
:10057000984005FCEE9DFE0FD5F0E9E4CEFD22ED9E
:10058000F8F5F0EE8420D21CFEADF075F008EF2FE8
:10059000FFED33FD4007985006D5F0F222C398FDD9
:0505A0000FD5F0EA2276
:1005A500E88FF0A4CC8BF0A42CFCE98EF0A42CFCF5
:1005B5008AF0EDA42CFCEA8EF0A4CDA8F08BF0A473
:1005C5002DCC3825F0FDE98FF0A42CCD35F0FCEBD2
:1005D5008EF0A4FEA9F0EB8FF0A4CFC5F02ECD3997
:0F05E500FEE43CFCEAA42DCE35F0FDE43CFC2204
:0E05F400C3E49FFFE49EFEE49DFDE49CFC2218
:10060200EB9FF5F0EA9E42F0E99D42F0E89C45F04E
:0106120022C5
:10061300FAE6FB0808E6F925F0F618E6CA3AF622E8
:10062300D083D082F8E4937012740193700DA3A366
:1006330093F8740193F5828883E47374029368607A
:06064300EFA3A3A380DF7A
:100E4500EFB40A07740D120E50740A309811A89960
:100E5500B8130CC2983098FDA899C298B811F6300D
:070E650099FDC299F59922E5
:100D1400020AB8E493A3F8E493A34003F68001F233
:100D240008DFF48029E493A3F85407240CC8C333E0
:100D3400C4540F4420C8834004F456800146F6DFAF
:100D4400E4800B0102040810204080900ED2E47E5F
:100D5400019360BCA3FF543F30E509541FFEE493A4
:100D6400A360010ECF54C025E060A840B8E493A36B
:100D7400FAE493A3F8E493A3C8C582C8CAC583CA96
:100D8400F0A3C8C582C8CAC583CADFE9DEE780BE4E
:010EF20000FF
:00000001FF
