:0B0219003F065B4F666D7D077F6F00A6
:10020800011014010F41010914010841C101C10085
:1001E800E4FDFCC3ED9FEC9E5015E4FBFA0BBB004D
:0F01F800010AEB646E4A70F50DBD00010C80E446
:0102070022D4
:1001C200758901758C3C758AB0D2AFD2A9D28CD216
:1001D200A1C2A4D2A6C2A3C2A2C2A5E5102405F55B
:0601E2000F12015380FB27
:10015300E50F75F00A84F50AE50F75F00A8485F05A
:100163000BE51075F00A84F50CE51075F00A84852B
:10017300F00DC2B1D2A7D2B6D2B7E50A9002199355
:10018300F5807F017E001201E8D2B1C2A7D2B6D2B8
:10019300B7E50B93F5807F011201E8D2B1D2A7C274
:1001A300B6D2B7E50C93F5807F011201E8D2B1D244
:0F01B300A7D2B6C2B7E50D93F5807F010201E830
:03000B0002000EE2
:10000E00C0E0C0D0758C3C758AB0D28C050EE50E62
:10001E00640A7022E50FD39405500A2001073000C0
:10002E0004C2A1C2A2E510D39405500A30010730D4
:10003E000004C2A4C2A5E50E64147078F50E151066
:10004E00150FE50FD39405500A200107300004C2A6
:10005E00A1D2A2E510D39405500A30010730000456
:10006E00C2A4D2A5E510700AE50FB40505751005FA
:10007E00D200E50F700AE510B40505750F05D20024
:10008E00200117E50F7013F5A0D2A4D2A3B201C2BE
:10009E000085080FE5082405F510300117E51070EE
:1000AE0013F5A0D2A1D2A6B201C200850910E509AE
:0900BE002405F50FD0D0D0E0328A
:030000000200C734
:0C00C700787FE4F6D8FD75812002010E60
:1000D3000201C2E493A3F8E493A34003F68001F280
:1000E30008DFF48029E493A3F85407240CC8C3332E
:1000F300C4540F4420C8834004F456800146F6DFFD
:10010300E4800B0102040810204080900208E47E82
:10011300019360BCA3FF543F30E509541FFEE493F1
:10012300A360010ECF54C025E060A840B8E493A3B8
:10013300FAE493A3F8E493A3C8C582C8CAC583CAE3
:10014300F0A3C8C582C8CAC583CADFE9DEE780BE9B
:0102180000E5
:00000001FF
