:100401002020203A20203A2020202030302E300099
:10041100323020202D20202D2020202020202000BF
:10042100202020203A20203A20202020573A202046
:100431000020323020202D20202D2020202020209F
:10044100200020202073657420636C6F636B202073
:100451002020002020202059202030303A30302028
:1004610020202020200059004E0032303133004E30
:10047100200004AE530A57485526BD0D26500D9550
:100481004446AAB9056A4D09AD4224AEB604AE4A46
:100491006A4DBE0A4D520D25465D52BA0B544E0DA2
:1004A1006A43296D37095B4B749BC10497540A4B0E
:1004B100485B25BC06A55006D4454ADAB802B64DBC
:1004C1000957422497B704974A664B3E0D4A510E8D
:1004D100A54656D4BA05AD4E02B644393738092E71
:1004E1004B7C96BF0C95530D4A486DA53B0B554F60
:1004F100056A454AADB9025D4D092D422C95B60AF2
:10050100954A7B4ABD06CA510B5546555ABB04DA7A
:100511004E0A5B43352BB8052B4C8A953F0E9552FD
:1005210006AA487AD53C0AB54F04B6454A57390A56
:10053100574D0526423E93350D954975AABE056A6C
:1005410051096D4654AEBB04AD4F0A4D434D26B71C
:100551000D254B8D52BF0B54520B6A47696D3C09F7
:100561005B50049B454A4BB90A4B4DAB25C206A5CE
:100571005406D4496ADA3D0AB6510937465497BB45
:1005810004974F064B4436A5370EA54A86B2BF05E0
:10059100AC530AB6475936BC092E500C96454D4A04
:1005A100B80D4A4C0DA54125AAB6056A497AADBDDB
:1005B100025D52092D475C95BA0A954E0B4A434B91
:1005C10055370AD54A955ABF04BA530A5B48652B79
:1005D100BC052B500A9345474AB906AA4C0AD54196
:1005E10024DAB604B64A69573D0A4E510D26465ED5
:1005F100933A0D534D05AA4336B537096D4BB4AE49
:10060100BF04AD530A4D486D25BC0D254F0D524415
:100611005DAA380B5A4C056D4124ADB6049B4A7A4C
:100621004BBE0A4B510AA5465B52BA06D24E0ADAB4
:100631004200000000000000000000000000000077
:1006410000000000000000000000000000000000A9
:100651000000000000000000000000000000000099
:100661000000000000000000000000000000000089
:100671000000000000000000000000000000000079
:100681000000000000000000000000000000000069
:100691000000000000000000000000000000000059
:1006A1000000000000000000000000000000000049
:1006B1000000000000000000000000000000000039
:1006C10000000000000000001F3B5A7897B5D4F3EA
:1006D10001110130014E80828486888C8A81838554
:1006E10087898D8B58000001011301303132333479
:0D06F100353637383961626364656667002D
:06000300013E11013F0067
:0C13C400C2AF53E71843E70143E7802263
:0913EF0053E77FE4F5E6D2AF22DA
:0B13D0001213C475E64675E6B9002252
:1012C300AD07AC06C2AF8CE3EDF5E453E5F843E5B7
:0C12D300011213D01213EFD2AFAFE222D1
:10137F00EE54FEFEF5E3E4F5E453E5F843E503121E
:05138F0013D00213EF72
:1012DF00AB07AA06C2AF8AE3EBF5E453E5F843E5A3
:0C12EF00028DE21213D01213EFD2AF22D6
:060B8700AD10AC0FAF0C35
:100B8D00EF14B40D004003020CD0900BA575F003CB
:100B9D00A4C58325F0C58373020BCC020BE0020BB9
:100BAD00F4020C08020C1C020C30020C44020C580E
:100BBD00020C6C020C80020C94020CA8020CBC748A
:100BCD00732DF58274043CF583E49354087002C3CD
:100BDD0022D32274732DF58274043CF583E493546F
:100BED00047002C322D32274732DF58274043CF574
:100BFD0083E49354027002C322D32274732DF582C1
:100C0D0074043CF583E49354017002C322D322741F
:100C1D00742DF58274043CF583E49354807002C303
:100C2D0022D32274742DF58274043CF583E493541D
:100C3D00407002C322D32274742DF58274043CF5E6
:100C4D0083E49354207002C322D32274742DF58251
:100C5D0074043CF583E49354107002C322D32274C0
:100C6D00742DF58274043CF583E49354087002C32B
:100C7D0022D32274742DF58274043CF583E49354CD
:100C8D00047002C322D32274742DF58274043CF5D2
:100C9D0083E49354027002C322D32274742DF5821F
:100CAD0074043CF583E49354017002C322D322747F
:100CBD00752DF58274043CF583E49354807002C362
:040CCD0022D322C349
:010CD1002200
:10095100E508C4540FFBE508540FFAEB75F00AA43F
:100961002AF508E509C4540FFBE509540FFAEB75A4
:10097100F00AA42AF509E50AC4540FFBE50A540F4D
:10098100FAEB75F00AA42AF50AE5082006072463A4
:10099100FFE433800624FFFFE434FFFE7C007D0387
:1009A1001208DC8E0F8F1074752510F582740435D2
:1009B1000FF583E493FE5460FB7805FF0880010383
:1009C100D8FDFBEE541FFABB010514F50B8005EAB7
:1009D100241EF50BE509C3940AE509500B9006C7DF
:1009E10093250AFFE433801525E024BDF582E43424
:1009F10006F583740193250AFFE4933400CF24FFA5
:100A0100F50EEF34FFF50DE509D39402400EE5082C
:100A110054037008050EE50E7002050DAF0B7E0044
:100A2100C3E50E9FE50D9E4079E50E9FF50EE50DA0
:100A31009EF50D750901750C01120B879207C2080D
:100A41002007047B1D80027B1E74732510F58274C0
:100A510004350FF583E49354F0FA7804FF0880011C
:100A610003D8FDFAEBFF7E00C3E50E9FE50D9E4026
:100A71002CE50E9FF50EE50D9EF50D050CE509B56E
:100A81000209B208200806050980020509120B8730
:100A910092072007047B1D80CB7B1E80C7E50E02D9
:100AA1000B28C3E50B950EF50BE508700775086378
:100AB100D2068002150874FD2510F51074FF350F5C
:100AC100F50F75090CFE74732510F58274043EF55B
:100AD10083E49354F0FA7804FF08800103D8FDFA07
:100AE1007005750C0C8003750C0DC208120B8792F2
:100AF100072007047B1D80027B1EE50BD39B40234F
:100B0100E50B9BF50B150C2008021509E509B5024B
:100B110002B208120B8792072007047B1D80DB7B42
:100B21001E80D7C3EB950B04F50AA2069200E508D7
:100B310075F00A84FB7804FF08800123D8FDFBE5EA
:100B41000875F00A84AAF0EB4AF536E50975F00A52
:100B510084FB7804FF08800123D8FDFBE50975F0CB
:100B61000A84AAF0EB4AF533E50A75F00A84FB78AA
:100B710004FF08800123D8FDFBE50A75F00A84AA69
:050B8100F0EB4AF53A1B
:010B8600224C
:0410AA00A3E493FF29
:1010AE00D295E4F53DC293EF139294EFC313FFD2A2
:1010BE0093053DE53DB408EDE4F53DC293ED139285
:1010CE0094EDC313FDD293053DE53DB408EDC295F5
:0510DE00C293C2942240
:0410E300A3E493FFF0
:1010E700D295E4FDC293EF139294EFC313FFD2930B
:1010F7000DBD08F0E4FDC293EEC313FE3094034325
:101107000680D2930DBD08EEC295C293C294AF0676
:0111170022B5
:10102A009006DEE493FF1210E78F2C1210E38F3143
:10103A001210E38F321210E38F391210E38F371236
:10104A0010E38F2B1210E38F2EC206852B088537EB
:10105A000985390A12095185364085332A853A2D80
:01106A002263
:100F9C00E4FD7F8E1210AE9006D7E493FFAD2C12B9
:100FAC0010AEAD311210AAAD321210AAA3E493FF09
:100FBC00AD391210AEA3E493FFAD371210AEA3E41B
:100FCC0093FFAD2B1210AEA3E493FFAD2E1210AE17
:070FDC007D807F8E0210AE44
:10120500AE07AC05EE25E0FE5306FE4306C0E4FD41
:101215007F8E1210AEAF06AD041210AE7D807F8EAC
:031225000210AE06
:0E13B600EF25E0FF4307014307C01210E722B6
:10106B00C295C293C2947F1E1213B6AE07EE6403F1
:10107B00602C7E037D037F1E121205E4FD7F8E1212
:10108B0010AEE4FEEE9006D793FFEE9006E593FDCF
:0E109B001210AE0EBE07ED7D807F8E1210AEDD
:0110A9002224
:1012FB00C2918F807F037E0012130CD2927F197ED6
:01130B0000E1
:0B130C00EF1FAC0670011E4C70F622B3
:0A13DB00C292C2901212FBC29222CD
:10126A007C00AF03AE021208EE7C007D0A1208EE83
:04127A00ED2430FF30
:0A127E00C292D2901212FBC292221B
:0F13A7007F381213DB7F0C1213DB7F060213DB80
:1012A600EDBF01042480800224C0FF1213DBEB751E
:0D12B600F00A84E5F09006EC93FF02127E32
:10111800EDBF01042480800224C0FF1213DB7D642C
:1011280012126A7D0A12126A7F2E12127EAE02AF66
:0F113800037C007D0A1208EEED2430FF02127EC8
:041197007D027F0254
:10119B00EDBF01042480800224C0FF1213DBEBC4DB
:1011AB00540F9006EC93FF12127EEB540F93FF0239
:0211BB00127EA2
:061170007BFFE4FD7F019E
:10117600EDBF01042480800224C0FF1213DB120895
:10118600C3FF600C12127E740129F9E43AFA80EE6C
:011196002236
:10133300EDBF01042480800224C0FF1213DBBB0134
:0B134300047F0F80027F0C1213DB22DE
:10139400EDBF01042480800224C0FF1213DBAF03DD
:0313A40002127EB4
:10134E007A0479011211707A0479117F02121176E2
:09135E007BDF7D0F7F0102139477
:1011BD007F007E2012137FAD3E7E201212DFAD3FE9
:1011CD000F1212DFA203E433FD0F1212DFAD297FE0
:0411DD00580212DFC3
:101228007F007E201212C38F3E7F011212C38F3FB0
:101238007F021212C3EF24FF92037F581212C38F4A
:02124800292259
:10136700121228E5296401600E753E03753F08D205
:08137700037529011211BD22CA
:10114700D2B17F017E0012130CC2B17F507E001214
:10115700130CD2B17F0A7E0012130CA2B192067F44
:08116700147E0012130CD2B13A
:01116F00225D
:02131700AD0720
:10131900E4FBC2B1ED1392B17F057E0012130CD22A
:09132900B1EDC313FD0BBB08E993
:011332002298
:10128800E4FBC2B1EDC313FDD2B130B10343058015
:0D1298007F057E0012130C0BBB08E7AF05AD
:0112A5002226
:100FE3001211477FCC1213177F441213177F327EDF
:100FF3000012130C1211477FCC1213177FBE12136A
:1010030017C2AF121288AA07121288D2AFEFFEAD31
:1010130002EDFFE4AC06120809E4FBFA7920783FFD
:061023001206FE12084255
:0110290022A4
:10124A00E4FDFCC3ED9FEC9E5015E4FBFA0BBB00DA
:0F125A00010AEB64784A70F50DBD00010C80E4C9
:011269002262
:100D6F00EDBF01042480800224C0FF1213DBEBB41B
:100D7F000700507A900D8AF8282873020DEE020DA5
:100D8F009F020DA8020DB6020DC4020DD2020DE096
:100D9F007F4D12127E7F4F804D7F5412127E7F55F2
:100DAF0012127E7F4580447F5712127E7F451212AA
:100DBF007E7F4480367F5412127E7F4812127E7FD0
:100DCF005580287F4612127E7F5212127E7F4980F5
:100DDF001A7F5312127E7F5412127E7F41800C7F36
:0F0DEF005312127E7F5512127E7F4E12127E22F9
:100EF300AB327D017F0112119BAB317D047F011267
:100F0300119BAB2C7D077F0112119BAB2E7D0C7FB8
:100F130002120D6FAB30AA2F1D7F01121118E53895
:100F23007012AB2B121197AB377D057F0212119B09
:100F3300AB398010AB40121197AB2A7D057F0212AB
:0C0F4300119BAB2D7D087F0212119B2238
:0A13E500D2AF758901D2A9D28C2283
:100E8A00300465C204300360E52C700CE531B53ED0
:100E9A0007E532B53F02D20230024D0527E5277039
:100EAA00020526D3941EE52694005004B2B7801D8D
:100EBA00D3E527941EE52694004012D2B7D3E5273E
:100ECA009428E52694004005E4F526F5270523E550
:100EDA0023C3940A4012E4F5230522E522943C40F8
:080EEA0007E4F522C202D2B7B1
:010EF20022DD
:100F4F00753C1443B078E5B054786478603B7F010A
:100F5F007E0012124AE5B054786478602FE524B40D
:100F6F00012AE4F524E5B0547824C8601824E06021
:100F7F001024F0600824F87013753C0422753C03AC
:0C0F8F0022753C0222753C0122752401F1
:010F9B002233
:10000E00E53C640170490534E534B40113753501DE
:10001E007A0479211211707A0479327F02121176E4
:10002E00E534B402157535017BFF7A04794312115C
:10003E00727A0479547F02121176E534D394024019
:10004E000EE4F534FB7D027F0112133312134EE5DD
:10005E003CB40224D205E534B4010C0535E535D3A4
:10006E0094074003753501E534B4020C0535E535CA
:10007E00D394034003753501E53464016003020334
:10008E000FE5356401703EE53CB4031D0532E532E3
:10009E00540FC3940A4008E53254F02410F532E5AB
:1000AE0032C394244003E4F532E53CB40417E53240
:1000BE007003753224E532540F7008E532440A2479
:1000CE00F0F5321532E5356402703EE53CB4031DA1
:1000DE000531E531540FC3940A4008E53154F0243C
:1000EE0010F531E531C394604003E4F531E53CB4DD
:1000FE000417E531700375315AE531540F7008E578
:10010E0031440A24F0F5311531E5356403703EE5CE
:10011E003CB4031D052CE52C540FC3940A4008E58E
:10012E002C54F02410F52CE52CC394604003E4F518
:10013E002CE53CB40417E52C7003752C5AE52C54B1
:10014E000F7008E52C440A24F0F52C152CE53564C7
:10015E0004703FE53CB4031D052EE52E540FC394E9
:10016E000A4008E52E54F02410F52EE52EC394080F
:10017E004003752E01E53CB40418E52EB401037559
:10018E002E08E52E540F7008E52E440A24F0F52EA5
:10019E00152EE5356405703FE53CB4031D052BE5D2
:1001AE002B540FC3940A4008E52B54F02410F52B62
:1001BE00E52BC3949A4003752B01E53CB40418E576
:1001CE002BB40103752B9AE52B540F7008E52B44C5
:1001DE000A24F0F52B152BE5356406703FE53CB48B
:1001EE00031D0537E537540FC3940A4008E537540D
:1001FE00F02410F537E537C394134003753701E546
:10020E003CB40418E537B40103753713E537540FC2
:10021E007008E537440A24F0F5371537E5356407DD
:10022E00703FE53CB4031D0539E539540FC3940AFC
:10023E004008E53954F02410F539E539C3943240BD
:10024E0003E4F539E53CB40418E539B40103753916
:10025E0032E539540F7008E539440A24F0F53915A2
:10026E0039AB327D027F0112119BAB317D057F01CF
:10027E0012119BAB2C7D087F0112119BAB2E7D0EB4
:10028E007F011212A6AB2B7D037F0212119BAB379F
:10029E007D067F0212119BAB397D097F0212119BE5
:1002AE00E53514B4070050569002C475F003A4C58A
:1002BE008325F0C583730202D90202DF0202E50232
:1002CE0002EB0202F30202FB0203037B017D0280BA
:1002DE00107B017D05800A7B017D0880047B017DFA
:1002EE000E7F0180167B017D037F02800E7B017DD8
:1002FE00067F0280067B017D097F02121333120FE7
:10030E009CE53464026003020400E535B4010EE599
:10031E003CB40302D203E53CB40402C203E53564E7
:10032E0002703EE53CB4031D053FE53F540FC394F8
:10033E000A4008E53F54F02410F53FE53FC39424EE
:10034E004003E4F53FE53CB40417E53F7003753F09
:10035E005AE53F540F7008E53F440A24F0F53F1567
:10036E003FE5356403703EE53CB4031D053EE53EB6
:10037E00540FC3940A4008E53E54F02410F53EE5B0
:10038E003EC394604003E4F53EE53CB40417E53EFD
:10039E007003753E5AE53E540F7008E53E440A243C
:1003AE00F0F53E153E7BFF3003067A047967800434
:1003BE007A0479697D047F02121176AB3F7D077F47
:1003CE000212119BAB3E7D0A7F0212119BE5352472
:1003DE00FE600D146010240270157B017D04800AEE
:1003EE007B017D0780047B017D0A7F02121333128D
:0303FE0011BD220C
:100CD200C2B77F967E0012124A75B0FF75A0FF75EB
:100CE20090FF7580FF1213E512106B1213A71213F7
:100CF2004E121367120FE38E2F8F307F8A7E0212FD
:100D0200124A120FE38E2F8F30120F4FE53CC3941D
:100D12000A503820020512000E800CC202D2B7E43B
:100D2200F526F52712102AE5347020E53C6404709C
:100D32001A6338FFE5387BFF70067A04796B800509
:100D42007A047970E4FD7F02121176300513C20530
:100D5200E534700D12102A120FE38E2F8F30120E0F
:0D0D6200F3120E8A7F017E0012124A809C5F
:03000B000211E1FE
:0411E100C0E0C0D0DA
:1011E500758C3C758AB00525E52520E002D204E51D
:0B11F50025C394064005752500D205B7
:05120000D0D0D0E03267
:1006FE00EC4D6011E8497017ED33EC3304600DE4F6
:10070E00FCFFFEFD22E933E8330470F80208AE1256
:10071E00087958046009E4CC248150062850090257
:10072E0008B82840030208B5C0E0EB4A7044B9800F
:10073E0006D0E0FB0208A4EF4E701CBD8008EBFF54
:10074E00EAFEE9FD80EBE98DF0A4FEE5F00207E795
:10075E00E9CDF9EAFEEBFFEF89F0A4FCE5F0CE89D6
:10076E00F0A42EFFE435F0CD89F0A42DFEE435F093
:10077E008067EF4E7005BD80D780C3EF8BF0A4ACC1
:10078E00F0EE8BF0A42CFCE435F0F8EF8AF0A42CFC
:10079E00E5F038FCE433CB8DF0A42CFCE5F03BF80F
:1007AE00EE8AF0A42CFCE5F038F8E433CF89F0A4FF
:1007BE002CFCE5F038CF3400CE89F0A42FFFE5F005
:1007CE003EFEE433C98DF0A42EFEE5F039CD8AF05D
:1007DE00A42FFFE5F03EFEE43DFD33D0E0FB5007D5
:1007EE000BBB000F0208B8EC2CFCEF33FFEE33FE10
:0607FE00ED33FD0208903E
:1008040075F020800E75F010800575F0087D007E6F
:10081400007F003392D530D503120943EC334010E6
:10082400EF33FFEE33FEED33FDEC33FCD5F0ED2278
:0E083400E5F0247EA2D513CC92E7CDCEFF22B4
:10084200EDD2E7CD33EC3392D524814006E4FFFEAE
:10085200FDFC22FCE4CFCECDCC24E0501174FF800D
:10086200EDC3CC13CCCD13CDCE13CECF13CF0470AA
:07087200F030D5DE0209435E
:10087900E9D2E7C933E833F892D5EDD2E7CD33ECC5
:0708890033FC5002B2D5223E
:10089000EC30E7100FBF000C0EBE00080DBD0004C9
:1008A0000BEB6014A2D5EB13FCED92E7FD2274FF75
:1008B000FCFDFEFF22E480F8A2D574FF13FC7D80CE
:0308C000E480EFE2
:03000000020DFEF0
:0C0DFE00787FE4F6D8FD758140020E45B8
:1008C300BB010689828A83E0225002E722BBFE0233
:0908D300E32289828A83E4932266
:1008DC00EF8DF0A4A8F0CF8CF0A428CE8DF0A42E30
:0208EC00FE22EA
:1008EE00BC000BBE0029EF8DF084FFADF022E4CCEE
:1008FE00F875F008EF2FFFEE33FEEC33FCEE9DECB7
:10090E00984005FCEE9DFE0FD5F0E9E4CEFD22EDFC
:10091E00F8F5F0EE8420D21CFEADF075F008EF2F46
:10092E00FFED33FD4007985006D5F0F222C398FD37
:05093E000FD5F0EA22D4
:0E094300C3E49FFFE49EFEE49DFDE49CFC22C5
:100E0A00020CD2E493A3F8E493A34003F68001F220
:100E1A0008DFF48029E493A3F85407240CC8C333E9
:100E2A00C4540F4420C8834004F456800146F6DFB8
:100E3A00E4800B0102040810204080900003E47E45
:100E4A00019360BCA3FF543F30E509541FFEE493AD
:100E5A00A360010ECF54C025E060A840B8E493A374
:100E6A00FAE493A3F8E493A3C8C582C8CAC583CA9F
:100E7A00F0A3C8C582C8CAC583CADFE9DEE780BE57
:0100090000F6
:00000001FF
