:0C03AB003F065B4F666D7D077F6F0071A1
:100362000213000002080000020A00000116140134
:100372001717011514011817010C0D010E0AC100FF
:02038200C101B7
:07033B0093F5B07F017E0085
:10034200E4FDFCC3ED9FEC9E5015E4FBFA0BBB00F1
:0F035200010AEB646E4A70F50DBD00010C80E4EA
:010361002279
:10039B00758901758C3C758AB0D2AFD2A9D28C22EB
:1001F900E50A60030202AEE50B14606D04600302B8
:1002090002AEE51775F00A84F50FE51775F00A8453
:1002190085F010E51675F00A84F511E51675F00AF2
:100229008485F012C281D282D283D284E50F9003F1
:10023900AB12033BD281C282D283D284E51093F5FB
:10024900B07F01120342D281D282C283D284E511E6
:1002590093F5B07F01120342D281D282D283C28444
:10026900E51293F5B07F018039C281D282D283D25F
:10027900849003B6E412033BD281C282D283D28432
:10028900E493F5B0120342D281D282C283D284E4CC
:1002990093F5B0120342D281D282D283C284E4930D
:0602A900F5B01203422231
:1003850012039BD287D2A1C2A4D2A6C2A3C2A2C283
:06039500A51201F980FB36
:03000B0002000EE2
:10000E00C0E0C0D075D000C004C005C006C00775E2
:10001E008C3C758AB0D28C050D208727750A007529
:10002E000B01751300751400C2A1C2A4D2A6D2A3EF
:10003E00C2A2C2A5851516851817750D0075080084
:10004E007509012087030201EC750A00750B00E5A6
:10005E0009640145087017D2A1C2A4D2A6C2A3C2D8
:10006E00A2C2A5E509150970021508750D00E51463
:10007E0045136003020133AF0DFEEF640A702AD3FD
:10008E00E517940374809480500A20000730010411
:10009E00C2A1C2A2D3E516940374809480500A3094
:1000AE000007300104C2A4C2A5EF64144E7076F5A9
:1000BE000D15161517AF17FED3EF940374809480A9
:1000CE00500A200007300104C2A1D2A2AD167C0056
:1000DE00D3ED940374809480500A300007300104ED
:1000EE00C2A4D2A5ED4C700BEF64034E70057516CD
:1000FE0003D201AF167E00EF64037009E517700599
:10010E00751703D201E517701CEF4E7018F5A0D2CB
:10011E00A4D2A3B200C201850C16850E170514E5F4
:10012E001470020513E5146401451360030201EC1B
:10013E00AF0DFEEF640A702AD3E517940374809412
:10014E0080500A200007300104C2A1C2A2D3E516D6
:10015E00940374809480500A300007300104C2A4C6
:10016E00C2A5EF64144E7076F50D15161517AF1760
:10017E00FED3EF940374809480500A200007300160
:10018E0004C2A1D2A2AD167C00D3ED940374809468
:10019E0080500A300007300104C2A4D2A5ED4C7085
:1001AE000BEF64034E7005751603D201AF167E0079
:1001BE00EF64037009E5177005751703D201E51793
:1001CE00701CEF4E7018F5A0D2A4D2A3B200C201DB
:1001DE00851516851817E514151470021513D0071A
:0B01EE00D006D005D004D0D0D0E03205
:030000000202AF4A
:0C02AF00787FE4F6D8FD7581200202F68D
:1002BB00020385E493A3F8E493A34003F68001F2D1
:1002CB0008DFF48029E493A3F85407240CC8C33344
:1002DB00C4540F4420C8834004F456800146F6DF13
:1002EB00E4800B0102040810204080900362E47E3E
:1002FB00019360BCA3FF543F30E509541FFEE49308
:10030B00A360010ECF54C025E060A840B8E493A3CE
:10031B00FAE493A3F8E493A3C8C582C8CAC583CAF9
:10032B00F0A3C8C582C8CAC583CADFE9DEE780BEB1
:010384000078
:00000001FF
