:103800007777772E6372797374616C726164696F14
:103810002E636E004175746F00000010D0B08808F0
:1038200000F010121408080000040201070423101D
:103830000C03000000000000000000000808886879
:1038400018048484840400000008080402011F1185
:103850001109080C0B0000000000E00000FE004011
:10386000A03826E01010000000000702013F1010F1
:10387000080502050818101000808080808898696B
:103880004B645C44404040400000000000007E2A41
:103890002A29613F0000000000002020FF90100056
:1038A00000F008E818000000000402013F001108C1
:1038B000060100070808080E00808040C4884020E8
:1038C000900E081020604040000000003F080400F7
:1038D0001F2222212118000000004040FE20A0806D
:1038E0008888484444404000000808040702021841
:1038F000140B080A0C18000000007880F88078008B
:103900000003000300007880F880780000030003C3
:1039100000007880F88078000003000300000000B9
:1039200000000000000003000000F008080810007C
:1039300001020202010000F8100808000003000064
:10394000000038C000C03800040403000000304804
:103950004848900001020202010008FE0808000029
:10396000000102020000D02828F00000010202013C
:1039700002000000FE00000000000300000000F84C
:1039800010080800000300000000D02828F0000004
:10399000010202010200F0080808FF000102020211
:1039A00003000000FB000000000003000000F0081E
:1039B0000808F000010202020100000000000000FF
:1039C000000003000000F0080808100001020202D5
:1039D0000100F8080808F0000300000003002020A0
:1039E00020FF9010101000000004040201000001EC
:1039F00002060404001054B40009EA5C56F5040001
:103A000000010101010203050505020200E000605A
:103A10008244300E004090200000020100010101AC
:103A200001010000000000F048C80F748544200028
:103A3000000201000203000101020407000000006F
:103A40000000000000000000000000000000000076
:103A50000000000000808054B65D942B4A8880806E
:103A60000000000406050201000000000000A66A34
:103A7000BE6B5ED531538080000100040503020552
:103A800004000000002010FC23100CFBA8A4A404D8
:103A9000000000030000000700000000000080405C
:103AA0004ED212C94F20E0000000030201010001C4
:053AB00001010100000E
:10128400E4F508F53FF53EF53DF53CF53B754308BF
:10129400754401F540F541F54FF550F547F548F52E
:1012A4004BF54C7551C3755250F549F54AF545F562
:1012B40042750901750A01755AFE755BE385095586
:1012C400854356854457850A58853B59753A55F5E3
:1012D40093F5947591EE759211F595F596F5B1F532
:1012E400B21243027520077521FF75223875231940
:1012F4007B107D087F011240747BFF7A3879007D72
:10130400107F0312439D7520097521FF75223975DD
:1013140023DD7B0C7D0A7F0512407412454E124476
:10132400911244B67B007A0079557D05E4FFFE12E4
:101334004414E555C394004035E555D39402502E2A
:10134400E556C394034027E556D394105020E5573F
:10135400C394014019E557D394045012E558C3943B
:1013640001400BE558D394025004E5596005E55952
:10137400B4010F85550985564385574485580A8518
:10138400593BAF0912423D123AB5E54560030215D7
:10139400D2E54324FD24F95011605D147003021456
:1013A400311470030214B10215D2D28CD2A9C3E550
:1013B4004194FFE540940150030215D2E4F50BF586
:1013C4000C7400250CF5827402350BF583E0FF7470
:1013D40000250CF5827400350BF583EFF0050CE560
:1013E4000C7002050BB400D9E50BB402D4E4F5404B
:1013F400F5417508010215D2C28CC2A9E4F50BF5BA
:101404000C7F011245137400250CF5827400350B12
:10141400F583EFF000000000050CE50C7002050BED
:10142400C3E50B940240DA7508010215D2C28CC2DE
:10143400A91221ABE4F50BF50CE50C20E023E50B38
:10144400C313FEE50C132400F58274023EF583E019
:10145400FF7400250CF5827400350BF583EFF080E2
:1014640036E50BC313FEE50C13FF2401F582740269
:101474003EF583E0FD74002FF58274023EF583E0AF
:101484002DFFE433C313EF13FF7400250CF58274AE
:1014940000350BF583EFF0050CE50C7002050BB479
:1014A4000097E50BB402927508010215D2C28CC2F2
:1014B400A91221ABE4F50BF50CE50C20E023E50BB8
:1014C400C313FEE50C132400F58274023EF583E099
:1014D400FF7400250CF5827400350BF583EFF08062
:1014E40036E50BC313FEE50C13FF2401F5827402E9
:1014F4003EF583E0FD74002FF58274023EF583E02F
:101504002DFFE433C313EF13FF7400250CF582742D
:1015140000350BF583EFF0050CE50C7002050BB4F8
:101524000097E50BB40292E4F50BF50C7400250C5E
:10153400F5827400350BF583E0FF7400250CF58209
:101544007402350BF583EFF0050CE50C7002050B06
:10155400B400D9E50BB402D4E4F50BF50CE50C208A
:10156400E023E50BC313FEE50C132400F58274029B
:101574003EF583E0FF7400250CF5827400350BF50D
:1015840083EFF08036E50BC313FEE50C13FF240153
:10159400F58274023EF583E0FD74002FF582740237
:1015A4003EF583E02DFFE433C313EF13FF740025EE
:1015B4000CF5827400350BF583EFF0050CE50C7027
:1015C40002050BB40097E50BB40292750801E50817
:1015D4006401600302168FE545600302168FF50B64
:1015E400750C0274FE250CF58274FF350BF583E04F
:1015F4002481FFE434FFFED3EF9400EE64809480F2
:10160400507874FF250CF58274FF350BF583E024C4
:1016140081FFE434FFFED3EF9400EE6480948050A5
:10162400597401250CF5827400350BF583E024818F
:10163400E434FFC36480948040407402250CF58236
:101644007400350BF583E02481E434FFC364809493
:101654008040277403250CF5827400350BF583E074
:101664002481FFE434FFFED3EF9400EE6480948081
:101674004008850B4F850C508011050CE50C700259
:10168400050B647F450B60030215E7E545B4014F84
:10169400E542B4022374092550F550E4354FF54F63
:1016A400E550247EE4354FC39402400C74F7255072
:1016B400F55074FF354FF54FE542B4012274F72518
:1016C40050F55074FF354FF54FD3E5509400E54F76
:1016D4009402400B74092550F550E4354FF54FE55D
:1016E4004424FE70030217D41470030218DF14702C
:1016F400030219FA24036003021B12E4F50BF50C30
:10170400E50C2550FFE50B354FFE74002FF5827470
:10171400003EF583E0F9C3947F748094804049E9E6
:10172400248175F023A4E5F0C39480E49400501C54
:10173400E92481FFE434FFFE7C007D23123D36EE74
:10174400241CFF745C250CF8A6078070E92481FF33
:10175400E434FFFE7C007D23123D36EE241DFF742D
:101764005C250CF8A6078054C3747F9975F023A4F4
:10177400E5F0C39480E494005022E9FFC3747F9F92
:10178400FFE49400FE7C007D23123D36EEFFC3741B
:101794001B9FFF745C250CF8A6078020E9FFC37427
:1017A4007F9FFFE49400FE7C007D23123D36EEFF14
:1017B400C3741A9FFF745C250CF8A607050CE50C8E
:1017C4007002050B647F450B6003021704021B12B1
:1017D400E4F50BF50CE50C2550FFE50B354FFE74D5
:1017E400002FF58274003EF583E0F9C3947F748082
:1017F4009480405EE9248175F023A4FFC41313137D
:101804005401C394405026E92481FFE434FFFE7C54
:10181400007D23123D36EF7807CEC313CE13D8F9DB
:10182400241CFF745C250CF8A6070218CBE924815C
:10183400FFE434FFFE7C007D23123D36EF7807CEB3
:10184400C313CE13D8F9241DFF745C250CF8A60726
:101854008075C3747F9975F023A4FFC413131354C4
:1018640001C39440502BE9FFC3747F9FFFE49400AD
:10187400FE7C007D23123D36EF7807CEC313CE13D2
:10188400D8F9FFC3741B9FFF745C250CF8A607806E
:1018940029E9FFC3747F9FFFE49400FE7C007D234D
:1018A400123D36EF7807CEC313CE13D8F9FFC374B5
:1018B4001A9FFF745C250CF8A607745C250CF8E6E7
:1018C400D3941B4002E4F6050CE50C7002050B648E
:1018D4007F450B60030217D9021B12E4F50BF50CCC
:1018E400E50C2550FFE50B354FFE74002FF582748F
:1018F400003EF583E0FFC3947F748094804067EFDB
:10190400248175F023A475F03384C3941A5022EF14
:101914002481FFE434FFFE7C007D23123D367D33B9
:10192400123D48EF241CFF745C250CF8A60702192D
:10193400E6E50C2550FFE50B354FFE74002FF582CC
:1019440074003EF583E02481FFE434FFFE7C007DD7
:1019540023123D367D33123D48EF241DFF745C2570
:101964000CF8A607807CE50C2550FFE50B354FFEEF
:1019740074002FF58274003EF583E0FBC3747F9BF3
:1019840075F023A475F03384C3941A5025EBFFC378
:10199400747F9FFFE49400FE7C007D23123D367D1E
:1019A40033123D48C3741B9FFF745C250CF8A607D3
:1019B4008023EBFFC3747F9FFFE49400FE7C007DD3
:1019C40023123D367D33123D48C3741A9FFF745C65
:1019D400250CF8A607745C250CF8E6D3941B40028A
:1019E400E4F6050CE50C7002050B647F450B6003FF
:1019F4000218E4021B12E4F50BF50CE50C2550FF6C
:101A0400E50B354FFE74002FF58274003EF583E03C
:101A1400FFC3947F748094804067EF248175F046FF
:101A2400A475F03384C3941A5022EF2481FFE43464
:101A3400FFFE7C007D46123D367D33123D48EF2487
:101A44001CFF745C250CF8A607021B01E50C25504D
:101A5400FFE50B354FFE74002FF58274003EF583CD
:101A6400E02481FFE434FFFE7C007D46123D367D98
:101A740033123D48EF241DFF745C250CF8A6078043
:101A84007CE50C2550FFE50B354FFE74002FF582E5
:101A940074003EF583E0FBC3747F9B75F046A47528
:101AA400F03384C3941A5025EBFFC3747F9FFFE483
:101AB4009400FE7C007D46123D367D33123D48C3C2
:101AC400741B9FFF745C250CF8A6078023EBFFC3EF
:101AD400747F9FFFE49400FE7C007D46123D367DBA
:101AE40033123D48C3741A9FFF745C250CF8A60793
:101AF400745C250CF8E6D3941B4002E4F6050CE56F
:101B04000C7002050B647F450B60030219FFE508A6
:101B14006401705EE545705AC28CC2A9E53AB455B9
:101B240020850955854356854457850A58853B5970
:101B34007B007A0079557D05E4FFFE1243DDE4F570
:101B44003AE50AB40105AF09122BC2E50AB402054D
:101B5400AF09123309E53BB4010D7BFF7A387914E0
:101B64007D6A7F0312439DE4F508F540F541D28C6C
:101B7400D2A9E5456401704EE50AB40105AF091226
:101B84002BC2E50AB40205AF09123309E53BB401DF
:101B94000D7BFF7A3879147D6A7F0312439D750BA0
:101BA40000750C28750D04750EB0E50E150E700247
:101BB400150DE50E450D70F2E50C150C7002150BB4
:101BC400E50C450B70DEE4F542E50AB40120E5437B
:101BD400B40308750B00750C018013E543B40408C5
:101BE400750B00750C028006750B00750C1EE50A5A
:101BF400B40220E543B40308750B00750C0180138F
:101C0400E543B40408750B00750C028006750B00DF
:021C1400750C4D
:101C160078D3E50C9400E50B94005003021FF5E51C
:101C26004324FDB40A004003021D5A901C38F828CC
:101C36002873021C56021C71021C8C021CA7021C73
:101C4600C2021CDC021CF5021D0E021D28021D42EA
:101C5600750D00750E017518207517BF751602757E
:101C66001500750FEA751060021D5A750D00750E88
:101C7600017518E0751722751602751500750FEABD
:101C8600751060021D5A750D00750E647518C075C5
:101C960017D4751601751500750F9C751040021D39
:101CA6005A750D00750EC87518C07517D4751601CE
:101CB600751500750F9C751040021D5A750D01753E
:101CC6000E9075189075175F751601751500750FCE
:101CD60075751030807E750D00750EC8E475186038
:101CE6007517EAF516F515750F4E75102080657592
:101CF6000D00750E78E4751830751775F516F5151F
:101D0600750F27751010804C750D03750EE8751844
:101D1600907517D0751603751500750F38751080F8
:101D26008032750D03750EE87518907517D0751607
:101D360003751500750F387510808018750D0375BD
:101D46000EE87518907517D0751603751500750F82
:101D560038751080D3E50E9400E50D9400400AE531
:101D66000E150E70EF150D80EBE5B030E203021E86
:101D760017D3E5109400E50F9400400AE5101510FE
:101D860070EF150F80EBE5B030E203021E17E4F5A5
:101D960014F513F512F511E545B40119AF18AE1790
:101DA600AD16AC15E47B03FAF9F8123D9D8F188E3B
:101DB600178D168C15E5B020E217E5142401F514ED
:101DC600E43513F513E43512F512E43511F51180F7
:101DD600E4AF18AE17AD16AC15AB14AA13A912A82A
:101DE60011C3123EBA5016E5457009754501C28CFD
:101DF600C2A9801DE4F545D28CD2A98014E54570B0
:101E060010E53BB40105E4F53B8003753B01753AEB
:101E160055E5B020E35BE5457033D3E5109400E566
:101E26000F9400400AE510151070EF150F80EBE5D2
:101E3600B020E319E5B030E3FBE4F540F541154386
:101E4600753A55E543C39403500375430CE545B411
:101E5600011F750DC3750E50E50E150E7002150D9A
:101E6600E50E450D70F2E5B020E306754201021F4E
:101E7600F5E5B020E75BE5457033D3E5109400E562
:101E86000F9400400AE510151070EF150F80EBE572
:101E9600B020E719E5B030E7FBE4F540F54105432E
:101EA600753A55E543D3940C4003754303E545B4B1
:101EB600011F750DC3750E50E50E150E7002150D3A
:101EC600E50E450D70F2E5B020E706754202021FE9
:101ED600F5E5B020E632D3E5109400E50F94004016
:101EE6000AE510151070EF150F80EBE5B020E61827
:101EF600E5B030E6FB0544E544D39404400375445D
:101F060001E5457003753A55E5B020E432D3E51096
:101F16009400E50F9400400AE510151070EF150FB8
:101F260080EBE5B020E418E5B030E4FB1544E54469
:101F3600C394015003754404E5457003753A55E5AD
:101F46009030E703021FEAD3E5109400E50F9400F2
:101F5600400AE510151070EF150F80EBE59030E79D
:101F660003021FEAE4F514F513F512F511E545B47D
:101F76000119AF18AE17AD16AC15E47B03FAF9F8E4
:101F8600123D9D8F188E178D168C15E59020E7173C
:101F9600E5142401F514E43513F513E43512F512AE
:101FA600E43511F51180E4AF18AE17AD16AC15ABDC
:101FB60014AA13A912A811C3123EBA50140509E5B2
:101FC6000994034003E4F509E5457018753A558010
:101FD60013050AE50AD394024003750A01E5457024
:101FE60003753A55E50C150C7002150B021C17E526
:101FF6003B6401600302138EAF3FAE3EAD3DAC3C89
:10200600AB1CAA1BA91AA819C3123EBA6003022167
:102016009C7F05FEFDFCAB3FAA3EA93DA83CD31222
:102026003EBA4013E47F14FEFDFCA83C123EBA50B3
:102036000675430302138EE47F14FEFDFCAB3FAA34
:102046003EA93DA83CC3123EBA4013E47F2DFEFDD7
:10205600FCA83C123EBA500675430402138EE47F78
:102066002DFEFDFCAB3FAA3EA93DA83CC3123EBADD
:102076004013E47F78FEFDFCA83C123EBA5006757C
:10208600430502138EE47F78FEFDFCAB3FAA3EA912
:102096003DA83CC3123EBA4013E47FDCFEFDFCA81B
:1020A6003C123EBA500675430602138EE47FDCFEF0
:1020B600FDFCAB3FAA3EA93DA83CC3123EBA401464
:1020C600E47FF47E01FDFCA83C123EBA500675433F
:1020D6000702138EE47FF47E01FDFCAB3FAA3EA906
:1020E6003DA83CC3123EBA4014E47FB07E04FDFC1A
:1020F600A83C123EBA500675430802138EE47FB020
:102106007E04FDFCAB3FAA3EA93DA83CC3123EBAE5
:102116004014E47F987E08FDFCA83C123EBA5006A7
:1021260075430902138EE47F987E08FDFCAB3FAA37
:102136003EA93DA83CC3123EBA4014E47F887E13F4
:10214600FDFCA83C123EBA500675430A02138EE403
:102156007F887E13FDFCAB3FAA3EA93DA83CC31277
:102166003EBA4014E47FE07E2EFDFCA83C123EBA47
:10217600500675430B02138EE47FE07E2EFDFCAB0A
:102186003FAA3EA93DA83CC3123EBA500302138E95
:1021960075430C02138E853F1C853E1B853D1A85B3
:0521A6003C1902138E3C
:10003E002020202020202020202000486F6C6420CB
:10004E004D6F646520002031306D732F64002020C9
:10005E00356D732F64002020326D732F64002020C5
:10006E00316D732F640035303075732F640032306C
:10007E003075732F640031303075732F6400203566
:10008E003075732F640020323075732F6400203169
:10009E003075732F640020203575732F6400202077
:1000AE003275732F640020203175732F6400353044
:1000BE00306E732F6400202031562F6400302E35A1
:1000CE00562F6400302E32562F6400302E31562FAC
:1000DE006400000000000000005F00000007000741
:1000EE0000147F147F14242E7B2A122313086462BB
:1000FE0036495620500004030100001C2241000026
:10010E0041221C0022147F142208087F0808403068
:10011E0010000008080808080060600000201008A1
:10012E0004023E5149453E00427F4000625149491A
:10013E00462141494D331814127F10274545453944
:10014E003C4A494931017109050336494949364648
:10015E004949291E00363600004036360000081484
:10016E0022410014141414140041221408020159DF
:10017E0005023E415D555E7C1211127C7F49494954
:10018E00363E414141227F4141413E7F49494941ED
:10019E007F090909013E415151727F0808087F000D
:1001AE00417F41002040413F017F081422417F40A2
:1001BE004040407F020C027F7F0408107F3E414189
:1001CE00413E7F090909063E4151215E7F091929E9
:1001DE0046264949493201017F01013F4040403FD7
:1001EE001F2040201F7F2018207F631408146303F4
:1001FE000478040361514945437F7F414100020465
:10020E000810200041417F7F04027F0204081C2A4F
:10021E000808000001020424545438407F28444446
:10022E00383844444408384444287F3854545408D9
:10023E00087E09090298A4A4A4787F080404780013
:10024E000079000000808879007F1028444000412A
:10025E007F400078047804780478040478384444A5
:10026E004438FC2424241818242424FC0478040480
:10027E00084854545424043F4444243C40403C40D9
:10028E001C2040201C3C403C403C44281028449CF0
:10029E00A0A0907C4464544C4408364100000000F9
:1002AE0077000000004136080804081008552A554A
:1002BE002A55000000000000005F00000007000744
:1002CE0000147F147F14242A072A12231308646251
:1002DE0037495522500005030000001C2241000042
:1002EE0041221C00082A1C2A0808083E0808005053
:1002FE0030000008080808080060600000201008A0
:10030E0004023E5149453E00427F40004261514940
:10031E00462141454B311814127F1027454545396A
:10032E003C4A4949300171090503364949493606A7
:10033E004949291E003636000000563600000008D6
:10034E0014224114141414144122140800020151F1
:10035E000906324979413E7E1111117E7F49494984
:10036E00363E414141227F4141221C7F494949414C
:10037E007F090901013E414151327F0808087F0083
:10038E00417F41002040413F017F081422417F40C0
:10039E004040407F0204027F7F0408107F3E4141AF
:1003AE00413E7F090909063E4151215E7F09192907
:1003BE0046464949493101017F01013F4040403FD6
:1003CE001F2040201F7F2018207F63140814630312
:1003DE0004780403615149454300007F4141020402
:1003EE0008102041417F00000402010204404040F9
:1003FE004040000102040020545454787F48444485
:10040E00383844444420384444487F3854545418AF
:10041E00087E090102081454543C7F080404780035
:10042E00447D40002040443D00007F1028440041A0
:10043E007F40007C041804787C0804047838444417
:10044E0044387C14141408081414187C7C08040412
:10045E00084854545420043F4440203C4040207CE3
:10046E001C2040201C3C4030403C44281028440CAA
:10047E005050503C4464544C440008364100000037
:10048E007F000000413608000201020402FFFFFF58
:10049E00FFFFFF01010101010101018101010101C4
:1004AE00010101018101010101010101018101012E
:1004BE00010101010101810101010101010101811E
:1004CE00010101010101010181010101010101018E
:1004DE0081FF810101010101010181010101010180
:1004EE0001010181010101010101010181010101EE
:1004FE0001010101018101010101010101018101DE
:10050E00010101010101018101010101010101014D
:10051E00FFFF00000000000000004000000000008F
:10052E00000000400000000000000000400000003D
:10053E00000000000040000000000000000040002D
:10054E00000000000000004000000000000000401D
:10055E00FF4000000000000000400000000000000E
:10056E0000004000000000000000004000000000FD
:10057E0000000000400000000000000000400000ED
:10058E00000000000000400000000000000000FF1E
:10059E00FF0000000000000000200000000000002E
:1005AE0000002000000000000000002000000000FD
:1005BE0000000000200000000000000000200000ED
:1005CE00000000000000200000000000000020FFDE
:1005DE0020000000000000002000000000000000CD
:1005EE0000200000000000000000200000000000BD
:1005FE0000000020000000000000000020000000AD
:10060E000000000000200000000000000000FFFFBE
:10061E0010101010101010103810101010101010A4
:10062E00103810101010101010103810101010106C
:10063E00101010381010101010101010381010105C
:10064E001010101010381010101010101010FF1085
:10065E001010101010101038101010101010101064
:10066E00381010101010101010381010101010102C
:10067E00101038101010101010101038101010101C
:10068E0010101010381010101010101010FFFF0066
:10069E000000000000000008000000000000000044
:1006AE00080000000000000000080000000000002C
:1006BE00000008000000000000000008000000001C
:1006CE0000000000080000000000000008FF080005
:1006DE0000000000000008000000000000000008FC
:1006EE0000000000000000000800000000000000F4
:1006FE0000080000000000000000080000000000DC
:10070E00000000080000000000000000FFFF0000D5
:10071E0000000000000004000000000000000004C3
:10072E0000000000000000000400000000000000B7
:10073E0000040000000000000000040000000000A3
:10074E00000000040000000000000004FF04000090
:10075E000000000000040000000000000000040083
:10076E000000000000000004000000000000000077
:10077E000400000000000000000400000000000063
:10078E000000040000000000000000FFFF808080D9
:10079E008080808080828080808080808080828047
:1007AE008080808080808082808080808080808039
:1007BE008280808080808080808280808080808027
:1007CE008080828080808080808082FF8280808096
:1007DE008080808082808080808080808082808007
:1007EE0080808080808082808080808080808082F7
:1007FE0080808080808080808280808080808080E9
:10080E0080828080808080808080FFFF01010101D6
:10081E0001010101010101010101010101010101BA
:10082E0001010101010101010101010101010101AA
:10083E00010101010101010101010101010101019A
:10084E0001010101010101010181FF81010101018C
:10085E00010101010101010101010101010101017A
:10086E00010101010101010101010101010101016A
:10087E00010101010101010101010101010101015A
:10088E00010101010101010101FFFF000000000053
:10089E00000000000000000000000000000000004A
:1008AE00000000000000000000000000000000003A
:1008BE00000000000000000000000000000000002A
:1008CE00000000000000000040FF4000000000009B
:1008DE00000000000000000000000000000000000A
:1008EE0000000000000000000000000000000000FA
:1008FE0000000000000000000000000000000000EA
:10090E000000000000000000FFFF000000000000DB
:10091E0000000000000000000000000000000000C9
:10092E0000000000000000000000000000000000B9
:10093E0000000000000000000000000000000000A9
:10094E000000000000000020FF200000000000005A
:10095E000000000000000000000000000000000089
:10096E000000000000000000000000000000000079
:10097E000000000000000000000000000000000069
:10098E0000000000000000FFFF10101010101010EB
:10099E0010381010101010101010381010101010F9
:1009AE0010101038101010101010101038101010E9
:1009BE0010101010103810101010101010103810D9
:1009CE0010101010101010FF10101010101010102A
:1009DE0038101010101010101038101010101010B9
:1009EE0010103810101010101010103810101010A9
:1009FE001010101038101010101010101038101099
:100A0E00101010101010FFFF00000000000000007A
:100A1E0000000000000000000000000000000000C8
:100A2E0000000000000000000000000000000000B8
:100A3E0000000000000000000000000000000000A8
:100A4E00000000000008FF08000000000000000089
:100A5E000000000000000000000000000000000088
:100A6E000000000000000000000000000000000078
:100A7E000000000000000000000000000000000068
:100A8E000000000000FFFF0000000000000000005A
:100A9E000000000000000000000000000000000048
:100AAE000000000000000000000000000000000038
:100ABE000000000000000000000000000000000028
:100ACE000000000004FF0400000000000000000011
:100ADE000000000000000000000000000000000008
:100AEE0000000000000000000000000000000000F8
:100AFE0000000000000000000000000000000000E8
:100B0E0000000000FFFF80808080808080808080D9
:100B1E0080808080808080808080808080808080C7
:100B2E0080808080808080808080808080808080B7
:100B3E0080808080808080808080808080808080A7
:100B4E0080808082FF828080808080808080808014
:100B5E008080808080808080808080808080808087
:100B6E008080808080808080808080808080808077
:100B7E008080808080808080808080808080808067
:100B8E00808080FFFF0101010101010101010101CE
:100B9E000101010101010101010101010101010137
:100BAE000101010101010101010101010101010127
:100BBE000101010101010101010101010101010117
:100BCE000101010101010101010101010101010107
:100BDE0001010101010101010101010101010101F7
:100BEE0001010101010101010101010101010101E7
:100BFE0001010101010101010101010101010101D7
:100C0E000101FFFF000000000000000000000000D6
:100C1E0000000000000000000000000000000000C6
:100C2E0000000000000000000000000000000000B6
:100C3E0000000000000000000000000000000000A6
:100C4E000000000000000000000000000000000096
:100C5E000000000000000000000000000000000086
:100C6E000000000000000000000000000000000076
:100C7E000000000000000000000000000000000066
:100C8E0000FFFF0000000000000000000000000058
:100C9E000000000000000000000000000000000046
:100CAE000000000000000000000000000000000036
:100CBE000000000000000000000000000000000026
:100CCE000000000000000000000000000000000016
:100CDE000000000000000000000000000000000006
:100CEE0000000000000000000000000000000000F6
:100CFE0000000000000000000000000000000000E6
:100D0E00FFFF0000000000000000000000000000D7
:100D1E0000000000000000000000000000000000C5
:100D2E0000000000000000000000000000000000B5
:100D3E0000000000000000000000000000000000A5
:100D4E000000000000000000000000000000000095
:100D5E000000000000000000000000000000000085
:100D6E000000000000000000000000000000000075
:100D7E00000000000000000000000000000000FF66
:100D8E00FF00000000000000000000000000000056
:100D9E000000000000000000000000000000000045
:100DAE000000000000000000000000000000000035
:100DBE000000000000000000000000000000000025
:100DCE000000000000000000000000000000000015
:100DDE000000000000000000000000000000000005
:100DEE0000000000000000000000000000000000F5
:100DFE000000000000000000000000000000FFFFE7
:100E0E0000000000000000000000000000000000D4
:100E1E0000000000000000000000000000000000C4
:100E2E0000000000000000000000000000000000B4
:100E3E0000000000000000000000000000000000A4
:100E4E000000000000000000000000000000000094
:100E5E000000000000000000000000000000000084
:100E6E000000000000000000000000000000000074
:100E7E0000000000000000000000000000FFFF80E6
:100E8E008080808080808080808080808080808054
:100E9E008080808080808080808080808080808044
:100EAE008080808080808080808080808080808034
:100EBE008080808080808080808080808080808024
:100ECE008080808080808080808080808080808014
:100EDE008080808080808080808080808080808004
:100EEE0080808080808080808080808080808080F4
:100EFE00808080808080808080808080FFFF0101E4
:100F0E0001010101010181010101010101010181C3
:100F1E000101010101010101810101010101010133
:100F2E0001810101010101010101810101010101A3
:100F3E000101018101010101010101018101010193
:100F4E000101010101810101010101010101810183
:100F5E0001010101010101810101010101010101F3
:100F6E008101010101010101018101010101010163
:100F7E000101810101010101010101FFFF000000DA
:100F8E0000000000004000000000000000004000D3
:100F9E000000000000000040000000000000000003
:100FAE0040000000000000000040000000000000B3
:100FBE0000004000000000000000004000000000A3
:0D0FCE0000000000400000000000000000D6
:100FDB004000000000000000004000000000000086
:100FEB000000400000000000000000400000000076
:100FFB0000000000400000000000000000FFFF00A8
:10100B0000000000000000200000000000000000B5
:10101B002000000000000000002000000000000085
:10102B000000200000000000000000200000000075
:10103B000000000020000000000000000020000065
:10104B000000000000002000000000000000002055
:10105B000000000000000000200000000000000065
:10106B000020000000000000000020000000000035
:10107B00000000200000000000000000FFFF000047
:10108B000000000000001000000000000000001035
:10109B000000000000000000100000000000000035
:1010AB000010000000000000000010000000000015
:1010BB000000001000000000000000001000000005
:1010CB0000000000001000000000000000001000F5
:1010DB0000000000000000100000000000000000F5
:1010EB0010000000000000000010000000000000D5
:1010FB000000100000000000000000FFFF000000D7
:10110B0000000000000800000000000000000800C4
:10111B0000000000000000080000000000000000BC
:10112B0008000000000000000008000000000000A4
:10113B000000080000000000000000080000000094
:10114B000000000008000000000000000008000084
:10115B000000000000000800000000000000000874
:10116B00000000000000000008000000000000006C
:10117B0000080000000000000000FFFF000000005E
:10118B00000000000400000000000000000400004C
:10119B00000000000000040000000000000000043C
:1011AB000000000000000000040000000000000030
:1011BB00000400000000000000000400000000001C
:1011CB00000000040000000000000000040000000C
:1011DB0000000000000400000000000000000400FC
:1011EB0000000000000000040000000000000000F0
:1011FB00040000000000000000FFFF808080808062
:10120B0080808082808080808080808082808080CF
:10121B0080808080808280808080808080808280BF
:10122B0080808080808080828080808080808080B1
:10123B00828080808080808080828080808080809F
:10124B00808082808080808080808082808080808F
:10125B00808080808280808080808080808280807F
:10126B00808080808080828080808080808080826F
:09127B008080808080808080FF6B
:0842B200C37406952CFD7F0A80
:0442BA008F338D347D
:1042BE00E4753901F538F537F536E53470067F01CA
:1042CE00FEFDFC22E4F535E535C39534501DAF33C4
:1042DE00E4FCFDFEAB39AA38A937A836123D9D8FF6
:1042EE00398E388D378C36053580DCAF39AE38AD2A
:0342FE0037AC36A4
:014301002299
:0C4445002410FF124451ED2404540FFF1A
:10445100C283C280C281E4FEC280EF339282EF2523
:0A446100E0FFD2800EBE08F0D28109
:01446B00222E
:0844DA00FFED9004A0934FFFD9
:1044E200D283C280C281E4FEC280EF339282EF2582
:0A44F200E0FFD2800EBE08F0D28178
:0144FC00229D
:104302007FAF1244517F2F1244517F241244517FB8
:10431200811244517F291244517FA21244517FC815
:104322001244517FA11244517FA41244517FA6121C
:1043320044517FAC1244517F401244517FB0124429
:0E434200517F10124451E4FF12445102446CAA
:10446C00E4FDED24B0FF1244517C017F0112445154
:10447C007F10124451E41CE4FF1244E20CBC86F79A
:04448C000DBD08DE7C
:014490002209
:04435000AD2D7F0709
:10435400EF24B0FF124451ED2404FFE433FEEF7860
:1043640004CEA2E713CE13D8F8124445E4FD75F049
:1043740005EBA42DF582E435F0F583E5822420F5E0
:1043840082E5833402F583E493FF25E0FF1244E2DF
:044394000DBD05DA7C
:014398002202
:044399007D387F07E5
:0A439D008F338D348B358A36893753
:1043A700853438E4FCC3747F953875F00584FFECD9
:1043B700C39F5021AB35AA36A9378C82758300126B
:1043C7003CE7FB6010AD34AF33124354740525341A
:0543D700F5340C80D05C
:0143DC0022BE
:02423D00A907CF
:10423F00E4FDFCFBEB24B0FF1244517F10124451FC
:10424F007F04124451E4FA0DBD00010CE9701074A3
:10425F009F2DF58274043CF583E493FF1244E2B979
:10426F00011074182DF58274083CF583E493FF1246
:10427F0044E2B9021074912DF582740B3CF583E47E
:10428F0093FF1244E2B90310740A2DF582740F3CA8
:10429F00F583E493FF1244E20ABA7FAB0BEB64079A
:0242AF0070920B
:0142B10022EA
:103AB500E4F52DF52E853F32853E31853D30853C3B
:103AC5002FE5456003023B9D7BFF7A00793EFD7F34
:103AD5000712439DE4F52CE52C64016005E52CB443
:103AE5000404052D052DE52E70341242B2A804A953
:103AF50005AA06AB07AF32AE31AD30AC2F123E286A
:103B0500E4FBFAF9F8C3123EBA7013E52CB40607C4
:103B15007B3012435080277B201243508020124275
:103B2500B2A804A905AA06AB07AF32AE31AD30ACD9
:103B35002F123E28EF2430FB124350752E01AF3271
:103B4500AE31AD30AC2FC004C005C006C00712426F
:103B5500B2A804A905AA06AB07D007D006D005D0A0
:103B650004123E28AC00AD01AE02AF038F328E3198
:103B75008D308C2F7405252DF52D052CE52CC39442
:103B8500075003023ADC7B487D287F071243547BAC
:103B95007A7D2D7F07124354E545B4010D7BFF7AED
:103BA5000079497D027F0712439DE54324FDB40E4C
:103BB500004003023C89903BC2F8282873023BEC85
:103BC500023BF8023C04023C10023C1C023C280269
:103BD5003C33023C3E023C49023C54023C5F023C01
:103BE5006A023C75023C807BFF7A00795412439946
:103BF500023C897BFF7A00795C124399023C897B00
:103C0500FF7A007964124399023C897BFF7A007937
:103C15006C124399023C897BFF7A007974124399AF
:103C2500023C897BFF7A00797C12439980567BFFA1
:103C35007A007984124399804B7BFF7A00798C1244
:103C4500439980407BFF7A00799412439980357BB4
:103C5500FF7A00799C124399802A7BFF7A0079A428
:103C6500124399801F7BFF7A0079AC124399801427
:103C75007BFF7A0079B412439980097BFF7A00793A
:103C8500BC124399E54424FE601714602114602B8F
:103C9500240370347BFF7A0079C47D617F0702437A
:103CA5009D7BFF7A0079CB7D617F0702439D7BFF7A
:103CB5007A0079D27D617F0702439D7BFF7A007987
:083CC500D97D617F0712439DC8
:013CCD0022D4
:023309008F1D16
:10330B00123AB5AF1D12423DE4FD745C2DF8E6F99F
:10331B00D3942F50030233C77FB0124451ED2404D2
:10332B00FFE433FEEF7804CEA2E713CE13D8F812E6
:10333B004445E51D7016745C2DF8E624D0FF7480AF
:10334B00A807088002C313D8FC1244DAE51DB401A8
:10335B001E745C2DF8E624D0FF7480A80708800249
:10336B00C313D8FCFFED900819934FFF1244E2E50D
:10337B001DB4021E745C2DF8E624D0FF7480A807E0
:10338B00088002C313D8FCFFED900B92934FFF12F2
:10339B0044E2E51D640360030237F6745C2DF8E626
:1033AB0024D0FF7480A807088002C313D8FCFFED5C
:1033BB00900F0B934FFF1244E20237F6E9D3942799
:1033CB00500302347C7FB1124451ED2404FFE433EB
:1033DB00FEEF7804CEA2E713CE13D8F8124445E5DE
:1033EB001D701E745C2DF8E624D8FF7480A80708A6
:1033FB008002C313D8FCFFED90051F934FFF1244BF
:10340B00E2E51DB4011E745C2DF8E624D8FF748030
:10341B00A807088002C313D8FCFFED900898934FC0
:10342B00FF1244E2E51DB4021E745C2DF8E624D8AD
:10343B00FF7480A807088002C313D8FCFFED900C23
:10344B0011934FFF1244E2E51D640360030237F64C
:10345B00745C2DF8E624D8FF7480A807088002C39B
:10346B0013D8FCFFED900F8A934FFF1244E2023703
:10347B00F6E9D3941F50030235317FB2124451ED5C
:10348B002404FFE433FEEF7804CEA2E713CE13D867
:10349B00F8124445E51D701E745C2DF8E624E0FF20
:1034AB007480A807088002C313D8FCFFED90059E1B
:1034BB00934FFF1244E2E51DB4011E745C2DF8E638
:1034CB0024E0FF7480A807088002C313D8FCFFED2B
:1034DB00900917934FFF1244E2E51DB4021E745C72
:1034EB002DF8E624E0FF7480A807088002C313D8E8
:1034FB00FCFFED900C90934FFF1244E2E51D64032B
:10350B0060030237F6745C2DF8E624E0FF7480A8A4
:10351B0007088002C313D8FCFFED901009934FFFEF
:10352B001244E20237F6E9D3941750030235E67FD3
:10353B00B3124451ED2404FFE433FEEF7804CEA222
:10354B00E713CE13D8F8124445E51D701E745C2D9D
:10355B00F8E624E8FF7480A807088002C313D8FCA0
:10356B00FFED90061D934FFF1244E2E51DB4011EC3
:10357B00745C2DF8E624E8FF7480A807088002C36A
:10358B0013D8FCFFED900996934FFF1244E2E51D13
:10359B00B4021E745C2DF8E624E8FF7480A80708BB
:1035AB008002C313D8FCFFED900D0F934FFF124415
:1035BB00E2E51D640360030237F6745C2DF8E62424
:1035CB00E8FF7480A807088002C313D8FCFFED90B6
:1035DB001088934FFF1244E20237F6E9D3940F5051
:1035EB000302369B7FB4124451ED2404FFE433FEF7
:1035FB00EF7804CEA2E713CE13D8F8124445E51D9D
:10360B00701E745C2DF8E624F0FF7480A807088008
:10361B0002C313D8FCFFED90069C934FFF1244E2BC
:10362B00E51DB4011E745C2DF8E624F0FF7480A830
:10363B0007088002C313D8FCFFED900A15934FFFC8
:10364B001244E2E51DB4021E745C2DF8E624F0FF73
:10365B007480A807088002C313D8FCFFED900D8E71
:10366B00934FFF1244E2E51D640360030237F674C7
:10367B005C2DF8E624F0FF7480A807088002C313C2
:10368B00D8FCFFED901107934FFF1244E20237F67F
:10369B00E9D3940750030237507FB5124451ED2400
:1036AB0004FFE433FEEF7804CEA2E713CE13D8F871
:1036BB00124445E51D701E745C2DF8E624F8FF746A
:1036CB0080A807088002C313D8FCFFED90071B935B
:1036DB004FFF1244E2E51DB4011E745C2DF8E62485
:1036EB00F8FF7480A807088002C313D8FCFFED9085
:1036FB000A94934FFF1244E2E51DB4021E745C2D35
:10370B00F8E624F8FF7480A807088002C313D8FCDE
:10371B00FFED900E0D934FFF1244E2E51D64036025
:10372B00030237F6745C2DF8E624F8FF7480A807C3
:10373B00088002C313D8FCFFED901186934FFF1244
:10374B0044E20237F6E9C3940050030237F67FB622
:10375B00124451ED2404FFE433FEEF7804CEA2E7CC
:10376B0013CE13D8F8124445E51D701CED90079A43
:10377B0093FF745C2DF8E6FE7480A806088002C3E4
:10378B0013D8FC4FFF1244E2E51DB4011CED900B66
:10379B001393FF745C2DF8E6FE7480A80608800274
:1037AB00C313D8FC4FFF1244E2E51DB4021CED908D
:1037BB000E8C93FF745C2DF8E6FE7480A8060880CF
:1037CB0002C313D8FC4FFF1244E2E51DB4031CEDFA
:1037DB0090120593FF745C2DF8E6FE7480A8060822
:1037EB008002C313D8FC4FFF1244E20DED647F60DF
:0437FB00030233157D
:0137FF0022A7
:022BC2008F1D65
:102BC400123AB5E4FDED6007647E60030230BB7425
:102BD4005C2DF8E6F9D3942F5003022C857FB012B4
:102BE4004451ED2404FFE433FEEF7804CEA2E7134E
:102BF400CE13D8F8124445E51D7016745C2DF8E622
:102C040024D0FF7480A807088002C313D8FC1244A0
:102C1400DAE51DB4011E745C2DF8E624D0FF74803F
:102C2400A807088002C313D8FCFFED900819934F3E
:102C3400FF1244E2E51DB4021E745C2DF8E624D0B4
:102C4400FF7480A807088002C313D8FCFFED900B23
:102C540092934FFF1244E2E51D640360030232FFC6
:102C6400745C2DF8E624D0FF7480A807088002C3A2
:102C740013D8FCFFED900F0B934FFF1244E2023286
:102C8400FFE9D394275003022D3A7FB1124451ED4A
:102C94002404FFE433FEEF7804CEA2E713CE13D866
:102CA400F8124445E51D701E745C2DF8E624D8FF27
:102CB4007480A807088002C313D8FCFFED90051F99
:102CC400934FFF1244E2E51DB4011E745C2DF8E637
:102CD40024D8FF7480A807088002C313D8FCFFED32
:102CE400900898934FFF1244E2E51DB4021E745CF1
:102CF4002DF8E624D8FF7480A807088002C313D8EF
:102D0400FCFFED900C11934FFF1244E2E51D6403A8
:102D140060030232FF745C2DF8E624D8FF7480A8A7
:102D240007088002C313D8FCFFED900F8A934FFF6E
:102D34001244E20232FFE9D3941F5003022DEF7FC5
:102D4400B2124451ED2404FFE433FEEF7804CEA222
:102D5400E713CE13D8F8124445E51D701E745C2D9C
:102D6400F8E624E0FF7480A807088002C313D8FCA7
:102D7400FFED90059E934FFF1244E2E51DB4011E42
:102D8400745C2DF8E624E0FF7480A807088002C371
:102D940013D8FCFFED900917934FFF1244E2E51D91
:102DA400B4021E745C2DF8E624E0FF7480A80708C2
:102DB4008002C313D8FCFFED900C90934FFF124494
:102DC400E2E51D640360030232FF745C2DF8E6241F
:102DD400E0FF7480A807088002C313D8FCFFED90BD
:102DE4001009934FFF1244E20232FFE9D3941750C3
:102DF40003022EA47FB3124451ED2404FFE433FEF6
:102E0400EF7804CEA2E713CE13D8F8124445E51D9B
:102E1400701E745C2DF8E624E8FF7480A80708800F
:102E240002C313D8FCFFED90061D934FFF1244E23A
:102E3400E51DB4011E745C2DF8E624E8FF7480A837
:102E440007088002C313D8FCFFED900996934FFF47
:102E54001244E2E51DB4021E745C2DF8E624E8FF7A
:102E64007480A807088002C313D8FCFFED900D0FEF
:102E7400934FFF1244E2E51D640360030232FF74C2
:102E84005C2DF8E624E8FF7480A807088002C313C9
:102E9400D8FCFFED901088934FFF1244E20232FFFA
:102EA400E9D3940F5003022F597FB4124451ED24F7
:102EB40004FFE433FEEF7804CEA2E713CE13D8F870
:102EC400124445E51D701E745C2DF8E624F0FF7471
:102ED40080A807088002C313D8FCFFED90069C93DA
:102EE4004FFF1244E2E51DB4011E745C2DF8E62484
:102EF400F0FF7480A807088002C313D8FCFFED908C
:102F04000A15934FFF1244E2E51DB4021E745C2DB2
:102F1400F8E624F0FF7480A807088002C313D8FCE5
:102F2400FFED900D8E934FFF1244E2E51D640360A4
:102F3400030232FF745C2DF8E624F0FF7480A807C6
:102F4400088002C313D8FCFFED901107934FFF12C2
:102F540044E20232FFE9D39407500302300E7FB5F6
:102F6400124451ED2404FFE433FEEF7804CEA2E7CB
:102F740013CE13D8F8124445E51D701E745C2DF869
:102F8400E624F8FF7480A807088002C313D8FCFF66
:102F9400ED90071B934FFF1244E2E51DB4011E742C
:102FA4005C2DF8E624F8FF7480A807088002C31398
:102FB400D8FCFFED900A94934FFF1244E2E51DB450
:102FC400021E745C2DF8E624F8FF7480A8070880BC
:102FD40002C313D8FCFFED900E0D934FFF1244E291
:102FE400E51D640360030232FF745C2DF8E624F8E7
:102FF400FF7480A807088002C313D8FCFFED90116A
:1030040086934FFF1244E20232FFE9C39400500357
:103014000232FF7FB6124451ED2404FFE433FEEF85
:103024007804CEA2E713CE13D8F8124445E51D70F8
:103034001CED90079A93FF745C2DF8E6FE7480A84B
:1030440006088002C313D8FC4FFF1244E2E51DB406
:10305400011CED900B1393FF745C2DF8E6FE748055
:10306400A806088002C313D8FC4FFF1244E2E51DF2
:10307400B4021CED900E8C93FF745C2DF8E6FE7484
:1030840080A806088002C313D8FC4FFF1244E2E56F
:103094001D640360030232FFED90120593FF745C1C
:1030A4002DF8E6FE7480A806088002C313D8FC4FEE
:1030B400FF1244E20232FF745B2DF8E6F9745C2DD2
:1030C400F8E6FFC3994006891F8F2180048F1F896A
:1030D40021745D2DF8E6FEE51FC39E4007851F2081
:1030E4008E1F800FE521C39E40048E20800585211C
:1030F400208E21EEC39F5026E9C39F5021E51F2552
:1031040021FF30E007C31304F5228005EFC313F554
:1031140022852124C3E524952204F523804E745C82
:103124002DF8E6FFEED39F4019E9D39F4014851F85
:1031340022E51F2521FFC313F524C3952204F5239B
:10314400802AE51F2520FFC313FFC394014006EF27
:1031540014F52280028F22E5202521FFC313FFD31B
:1031640094365006EF04F52480028F24E4F51E748F
:1031740025251EF8E4F6051EE51EB407F2E524D362
:1031840094375046E524B40110745B2DF8E67009B9
:10319400745D2DF8E67002F52485221EE51ED39594
:1031A400245065E51E131313541F2425F8C000E6AC
:1031B400FFE51E5407FE7480A806088002C313D8D6
:1031C400FC4F4FD000F6051E80D2E522C394375041
:1031D40037E522941C403185221EE51ED3943750D6
:1031E40027E51E131313541F2425F8C000E6FFE53A
:1031F4001E5407FE7480A806088002C313D8FC4F2F
:103204004FD000F6051E80D2E4F51EE51E24B0FF63
:10321400124451ED2404FFE433FEEF7804CEA2E718
:1032240013CE13D8F8124445E51D702D75F07FE5D3
:103234001EA42DF582E435F0F583E58224A0F58201
:10324400E5833404F583E493FFC37406951E2425B3
:10325400F8E6FEEF4EFF1244E2E51DB4012D75F0D1
:103264007FE51EA42DF582E435F0F583E58224196B
:10327400F582E5833408F583E493FFC37406951E51
:103284002425F8E6FEEF4EFF1244E2E51DB4022DBC
:1032940075F07FE51EA42DF582E435F0F583E58213
:1032A4002492F582E583340BF583E493FFC374061B
:1032B400951E2425F8E6FEEF4EFF1244E2E51DB408
:1032C400032D75F07FE51EA42DF582E435F0F5831A
:1032D400E582240BF582E583340FF583E493FFC381
:1032E4007406951E2425F8E6FEEF4EFF1244E2050F
:1032F4001EE51EC39407500302320F0DED647F6078
:0433040003022BC9CC
:0133080022A2
:064074008F1D8D1E8B1F45
:10407A00E4F525E525C395204003024179E51D2491
:10408A00B0FF124451E51F8525F0A4FFAD1EE51EC1
:10409A002404FDE433CD2FFFED35F0FEEF7804CE96
:1040AA00A2E713CE13D8F82410FF124451E51F8556
:1040BA0025F0A4FFE51E24042F540FFF124451E4F7
:1040CA00F524E524C3951F5026AB217E00E5232560
:1040DA0024F9EE3522FAE51F25E08525F0A429F911
:1040EA00EA35F0FA123CCEFF1244E2052480D3E509
:1040FA001D24B1FF124451E51F8525F0A4FFAD1E12
:10410A00E51E2404FDE433CD2FFFED35F0FEEF78F4
:10411A0004CEA2E713CE13D8F82410FF124451E5B7
:10412A001F8525F0A4FFE51E24042F540FFF124417
:10413A0051E4F524E524C3951F502FAB217E00E5F9
:10414A00232524F9EE3522FAE51F25E08525F0A47A
:10415A0029F9EA35F0FA7E00E9251FF9EE3AFA1252
:0F416A003CCEFF1244E2052480CA052502407DA9
:014179002223
:0C454E00E4F5A2759D02F5BD75BC80224D
:10451300EF44E8F5BC00000000E5BC30E4FB53BC0D
:04452300EFAFBD2217
:10449100758ED0759C06758F04758951E55AF58C1A
:1044A100E55BF58A758D3C758BB0C28CC2A9D28E45
:0544B100D2ABD2AF22E6
:03000B00023ECBE7
:103ECB00C0E0C083C082C0D075D000C000C007E581
:103EDB005AF58CE55BF58A0548E54870020547E520
:103EEB004324FDB407004003024056903EFDF828E2
:103EFB002873023F12023F44023F76023FA8023F63
:103F0B00D9024007024035C3E5489464E547940065
:103F1B0050030240567F0112451374002541F58270
:103F2B0074023540F583EFF00541E5417002054021
:103F3B00754700754800024056C3E5489432E54783
:103F4B00940050030240567F011245137400254123
:103F5B00F58274023540F583EFF00541E5417002BF
:103F6B000540754700754800024056C3E548941458
:103F7B00E547940050030240567F0112451374002D
:103F8B002541F58274023540F583EFF00541E5419B
:103F9B0070020540754700754800024056C3E5485E
:103FAB00940AE547940050030240567F01124513D3
:103FBB0074002541F58274023540F583EFF005411D
:103FCB00E54170020540754700754800807DC3E5EB
:103FDB00489405E547940040727F01124513740025
:103FEB002541F58274023540F583EFF00541E5413B
:103FFB0070020540754700754800804FC3E5489433
:10400B0002E547940040447F01124513740025419B
:10401B00F58274023540F583EFF00541E5417002FE
:10402B00054075470075480080217F0112451374C8
:10403B00002541F58274023540F583EFF00541E52B
:10404B004170020540754700754800C3E54194FF78
:10405B00E540940140067540017541FFD007D00043
:09406B00D0D0D082D083D0E03225
:1021AB007F01124513900200EFF000007F011245F2
:1021BB0013A3EFF000007F01124513A3EFF0000013
:1021CB007F01124513A3EFF000007F01124513A30B
:1021DB00EFF000007F01124513A3EFF000007F0129
:1021EB00124513A3EFF000007F01124513A3EFF08C
:1021FB0000007F01124513A3EFF000007F01124591
:10220B0013A3EFF000007F01124513A3EFF00000C2
:10221B007F01124513A3EFF000007F01124513A3BA
:10222B00EFF000007F01124513A3EFF000007F01D8
:10223B00124513A3EFF000007F01124513A3EFF03B
:10224B0000007F01124513A3EFF000007F01124540
:10225B0013A3EFF000007F01124513A3EFF0000072
:10226B007F01124513A3EFF000007F01124513A36A
:10227B00EFF000007F01124513A3EFF000007F0188
:10228B00124513A3EFF000007F01124513A3EFF0EB
:10229B0000007F01124513A3EFF000007F011245F0
:1022AB0013A3EFF000007F01124513A3EFF0000022
:1022BB007F01124513A3EFF000007F01124513A31A
:1022CB00EFF000007F01124513A3EFF000007F0138
:1022DB00124513A3EFF000007F01124513A3EFF09B
:1022EB0000007F01124513A3EFF000007F011245A0
:1022FB0013A3EFF000007F01124513A3EFF00000D2
:10230B007F01124513A3EFF000007F01124513A3C9
:10231B00EFF000007F01124513A3EFF000007F01E7
:10232B00124513A3EFF000007F01124513A3EFF04A
:10233B0000007F01124513A3EFF000007F0112454F
:10234B0013A3EFF000007F01124513A3EFF0000081
:10235B007F01124513A3EFF000007F01124513A379
:10236B00EFF000007F01124513A3EFF000007F0197
:10237B00124513A3EFF000007F01124513A3EFF0FA
:10238B0000007F01124513A3EFF000007F011245FF
:10239B0013A3EFF000007F01124513A3EFF0000031
:1023AB007F01124513A3EFF000007F01124513A329
:1023BB00EFF000007F01124513A3EFF000007F0147
:1023CB00124513A3EFF000007F01124513A3EFF0AA
:1023DB0000007F01124513A3EFF000007F011245AF
:1023EB0013A3EFF000007F01124513A3EFF00000E1
:1023FB007F01124513A3EFF000007F01124513A3D9
:10240B00EFF000007F01124513A3EFF000007F01F6
:10241B00124513A3EFF000007F01124513A3EFF059
:10242B0000007F01124513A3EFF000007F0112455E
:10243B0013A3EFF000007F01124513A3EFF0000090
:10244B007F01124513A3EFF000007F01124513A388
:10245B00EFF000007F01124513A3EFF000007F01A6
:10246B00124513A3EFF000007F01124513A3EFF009
:10247B0000007F01124513A3EFF000007F0112450E
:10248B0013A3EFF000007F01124513A3EFF0000040
:10249B007F01124513A3EFF000007F01124513A338
:1024AB00EFF000007F01124513A3EFF000007F0156
:1024BB00124513A3EFF000007F01124513A3EFF0B9
:1024CB0000007F01124513A3EFF000007F011245BE
:1024DB0013A3EFF000007F01124513A3EFF00000F0
:1024EB007F01124513A3EFF000007F01124513A3E8
:1024FB00EFF000007F01124513A3EFF000007F0106
:10250B00124513A3EFF000007F01124513A3EFF068
:10251B0000007F01124513A3EFF000007F0112456D
:10252B0013A3EFF000007F01124513A3EFF000009F
:10253B007F01124513A3EFF000007F01124513A397
:10254B00EFF000007F01124513A3EFF000007F01B5
:10255B00124513A3EFF000007F01124513A3EFF018
:10256B0000007F01124513A3EFF000007F0112451D
:10257B0013A3EFF000007F01124513A3EFF000004F
:10258B007F01124513A3EFF000007F01124513A347
:10259B00EFF000007F01124513A3EFF000007F0165
:1025AB00124513A3EFF000007F01124513A3EFF0C8
:1025BB0000007F01124513A3EFF000007F011245CD
:1025CB0013A3EFF000007F01124513A3EFF00000FF
:1025DB007F01124513A3EFF000007F01124513A3F7
:1025EB00EFF000007F01124513A3EFF000007F0115
:1025FB00124513A3EFF000007F01124513A3EFF078
:10260B0000007F01124513A3EFF000007F0112457C
:10261B0013A3EFF000007F01124513A3EFF00000AE
:10262B007F01124513A3EFF000007F01124513A3A6
:10263B00EFF000007F01124513A3EFF000007F01C4
:10264B00124513A3EFF000007F01124513A3EFF027
:10265B0000007F01124513A3EFF000007F0112452C
:10266B0013A3EFF000007F01124513A3EFF000005E
:10267B007F01124513A3EFF000007F01124513A356
:10268B00EFF000007F01124513A3EFF000007F0174
:10269B00124513A3EFF000007F01124513A3EFF0D7
:1026AB0000007F01124513A3EFF000007F011245DC
:1026BB0013A3EFF000007F01124513A3EFF000000E
:1026CB007F01124513A3EFF000007F01124513A306
:1026DB00EFF000007F01124513A3EFF000007F0124
:1026EB00124513A3EFF000007F01124513A3EFF087
:1026FB0000007F01124513A3EFF000007F0112458C
:10270B0013A3EFF000007F01124513A3EFF00000BD
:10271B007F01124513A3EFF000007F01124513A3B5
:10272B00EFF000007F01124513A3EFF000007F01D3
:10273B00124513A3EFF000007F01124513A3EFF036
:10274B0000007F01124513A3EFF000007F0112453B
:10275B0013A3EFF000007F01124513A3EFF000006D
:10276B007F01124513A3EFF000007F01124513A365
:10277B00EFF000007F01124513A3EFF000007F0183
:10278B00124513A3EFF000007F01124513A3EFF0E6
:10279B0000007F01124513A3EFF000007F011245EB
:1027AB0013A3EFF000007F01124513A3EFF000001D
:1027BB007F01124513A3EFF000007F01124513A315
:1027CB00EFF000007F01124513A3EFF000007F0133
:1027DB00124513A3EFF000007F01124513A3EFF096
:1027EB0000007F01124513A3EFF000007F0112459B
:1027FB0013A3EFF000007F01124513A3EFF00000CD
:10280B007F01124513A3EFF000007F01124513A3C4
:10281B00EFF000007F01124513A3EFF000007F01E2
:10282B00124513A3EFF000007F01124513A3EFF045
:10283B0000007F01124513A3EFF000007F0112454A
:10284B0013A3EFF000007F01124513A3EFF000007C
:10285B007F01124513A3EFF000007F01124513A374
:10286B00EFF000007F01124513A3EFF000007F0192
:10287B00124513A3EFF000007F01124513A3EFF0F5
:10288B0000007F01124513A3EFF000007F011245FA
:10289B0013A3EFF000007F01124513A3EFF000002C
:1028AB007F01124513A3EFF000007F01124513A324
:1028BB00EFF000007F01124513A3EFF000007F0142
:1028CB00124513A3EFF000007F01124513A3EFF0A5
:1028DB0000007F01124513A3EFF000007F011245AA
:1028EB0013A3EFF000007F01124513A3EFF00000DC
:1028FB007F01124513A3EFF000007F01124513A3D4
:10290B00EFF000007F01124513A3EFF000007F01F1
:10291B00124513A3EFF000007F01124513A3EFF054
:10292B0000007F01124513A3EFF000007F01124559
:10293B0013A3EFF000007F01124513A3EFF000008B
:10294B007F01124513A3EFF000007F01124513A383
:10295B00EFF000007F01124513A3EFF000007F01A1
:10296B00124513A3EFF000007F01124513A3EFF004
:10297B0000007F01124513A3EFF000007F01124509
:10298B0013A3EFF000007F01124513A3EFF000003B
:10299B007F01124513A3EFF000007F01124513A333
:1029AB00EFF000007F01124513A3EFF000007F0151
:1029BB00124513A3EFF000007F01124513A3EFF0B4
:1029CB0000007F01124513A3EFF000007F011245B9
:1029DB0013A3EFF000007F01124513A3EFF00000EB
:1029EB007F01124513A3EFF000007F01124513A3E3
:1029FB00EFF000007F01124513A3EFF000007F0101
:102A0B00124513A3EFF000007F01124513A3EFF063
:102A1B0000007F01124513A3EFF000007F01124568
:102A2B0013A3EFF000007F01124513A3EFF000009A
:102A3B007F01124513A3EFF000007F01124513A392
:102A4B00EFF000007F01124513A3EFF000007F01B0
:102A5B00124513A3EFF000007F01124513A3EFF013
:102A6B0000007F01124513A3EFF000007F01124518
:102A7B0013A3EFF000007F01124513A3EFF000004A
:102A8B007F01124513A3EFF000007F01124513A342
:102A9B00EFF000007F01124513A3EFF000007F0160
:102AAB00124513A3EFF000007F01124513A3EFF0C3
:102ABB0000007F01124513A3EFF000007F011245C8
:102ACB0013A3EFF000007F01124513A3EFF00000FA
:102ADB007F01124513A3EFF000007F01124513A3F2
:102AEB00EFF000007F01124513A3EFF000007F0110
:102AFB00124513A3EFF000007F01124513A3EFF073
:102B0B0000007F01124513A3EFF000007F01124577
:102B1B0013A3EFF000007F01124513A3EFF00000A9
:102B2B007F01124513A3EFF000007F01124513A3A1
:102B3B00EFF000007F01124513A3EFF000007F01BF
:102B4B00124513A3EFF000007F01124513A3EFF022
:102B5B0000007F01124513A3EFF000007F01124527
:102B6B0013A3EFF000007F01124513A3EFF0000059
:102B7B007F01124513A3EFF000007F01124513A351
:102B8B00EFF000007F01124513A3EFF000007F016F
:102B9B00124513A3EFF000007F01124513A3EFF0D2
:102BAB0000007F01124513A3EFF000007F011245D7
:072BBB0013A3EFF00000225C
:1044B60053A2BFE4F5D975DA49F5F9F5E98552EA6B
:1044C600E551F5FA8554EBE553F5FBC2DFC2D8C2D8
:0444D600D9D2DE2237
:03001B0002453B60
:10453B00C0E0758D3C758BB0054CE54C7002054B9E
:03454B00D0E0328B
:03003B0002417A05
:10417A00C0E0C0F0C083C082C0D075D000C000C00B
:10418A0001C002C003C004C005C006C00720D8038E
:10419A00024222C2D874502552F55274C33551F5E1
:1041AA00518552EAE551F5FA054AE54A7002054990
:1041BA00C39432E5499400405FC2ABC28EAF8DEF23
:1041CA007F00FEAD8B7C00E42DFFEC3ECF2450CF68
:1041DA0034C3FEE4FDC004C005C006C007AE4BAF41
:1041EA004C7B507AC3F9F8123D9DD003D002D0011E
:1041FA00D000EF2BF53FEE3AF53EED39F53DEC38C0
:10420A00F53C758D3C758BB0754B00754C00754946
:10421A0000754A00D2ABD28ED007D006D005D004A2
:10422A00D003D002D001D000D0D0D082D083D0F039
:03423A00D0E0329F
:0D000E00E4F5C7F5C5F5C675C380F5C4223D
:10001E0075C78075C5018FC48EC375C65A75C6A5C2
:06002E0000AFC212000E3B
:0100340022A9
:1044FD0075C78075C5028FC48EC38DC275C65A75BA
:06450D00C6A50002000E2D
:1045270075C78075C5038FC48EC375C65A75C6A572
:044537000002000E70
:0C43DD008E1D8F1E8D1F8B208A218922CF
:1043E900124527E4FCECC3951F501FEC7E00251EE7
:1043F900FFEE351DFEAB20AA21A9228C8275830010
:0A440900123CE7FD1244FD0C80DBBD
:014413002286
:0A4414008E1D8F1E8B1F8A20892148
:10441E00E4FCECC39D501FEC7E00251EFFEE351D07
:10442E00FE12001EAB1FAA20A9218C82758300EFFD
:06443E00123D140C80DCAD
:014444002255
:0300000002455A5C
:0C455A00787FE4F6D8FD7581DA02128447
:103CCE00BB010689828A83E0225002E722BBFE02F4
:093CDE00E32289828A83E4932227
:103CE700BB010CE58229F582E5833AF583E0225092
:103CF70006E92582F8E622BBFE06E92582F8E222DC
:0D3D0700E58229F582E5833AF583E49322F5
:103D1400F8BB010DE58229F582E5833AF583E8F0E5
:103D2400225006E92582C8F622BBFE05E92582C891
:023D3400F22279
:103D3600EF8DF0A4A8F0CF8CF0A428CE8DF0A42EA1
:023D4600FE225B
:103D4800BC000BBE0029EF8DF084FFADF022E4CC5F
:103D5800F875F008EF2FFFEE33FEEC33FCEE9DEC28
:103D6800984005FCEE9DFE0FD5F0E9E4CEFD22ED6E
:103D7800F8F5F0EE8420D21CFEADF075F008EF2FB8
:103D8800FFED33FD4007985006D5F0F222C398FDA9
:053D98000FD5F0EA2246
:103D9D00E88FF0A4CC8BF0A42CFCE98EF0A42CFCC5
:103DAD008AF0EDA42CFCEA8EF0A4CDA8F08BF0A443
:103DBD002DCC3825F0FDE98FF0A42CCD35F0FCEBA2
:103DCD008EF0A4FEA9F0EB8FF0A4CFC5F02ECD3967
:0F3DDD00FEE43CFCEAA42DCE35F0FDE43CFC22D4
:103DEC0075F008758200EF2FFFEE33FECD33CDCC8E
:103DFC0033CCC58233C5829BED9AEC99E582984011
:103E0C000CF582EE9BFEED9AFDEC99FC0FD5F0D6ED
:103E1C00E4CEFBE4CDFAE4CCF9A88222B800C1B917
:103E2C000059BA002DEC8BF084CFCECDFCE5F0CB55
:103E3C00F97818EF2FFFEE33FEED33FDEC33FCEB8E
:103E4C0033FB10D703994004EB99FB0FD8E5E4F949
:103E5C00FA227818EF2FFFEE33FEED33FDEC33FC36
:103E6C00C933C910D7059BE99A4007EC9BFCE99A2A
:103E7C00F90FD8E0E4C9FAE4CCFB2275F010EF2F6F
:103E8C00FFEE33FEED33FDCC33CCC833C810D7076F
:103E9C009BEC9AE899400AED9BFDEC9AFCE899F8AA
:0E3EAC000FD5F0DAE4CDFBE4CCFAE4C8F9223D
:103EBA00EB9FF5F0EA9E42F0E99D42F0E89C45F05E
:013ECA0022D5
:00000001FF
