:030000000201807A
:0C018000787FE4F6D8FD7581190201C7F4
:100375000412000000000A083132333435363738AC
:0203850039003D
:0F02FA008F807F057E00120309D2B47F057E003E
:10030900D3EF9400EE940040147D6E7C00ED1D70D7
:0D031900011CED4C70F7EF1F70E61E80E335
:0103260022B4
:08000300C2B51202FAC2B422D8
:03038800F8E6FF95
:08038B00D2B51202FAC2B4223D
:10034800C2A6C2A7C2B47F381200037F0C120003F2
:0A0358007F061200037F010200037C
:10036200D3EF9400EE9400400800EF1F70F21E805D
:03037200EF002277
:03000B00020327C6
:10032700C0E0C0D075D000C007C2B2C2B7AF90E47A
:100337008F15F514F513F512D2B2D007D0D0D0E04F
:010347003283
:10020C00758901758C4C758A4CD2AFD2A9D28CD21F
:10021C00B2C2B2C2B67FFF7E00120362D2B2D2B6B5
:10022C007FC87E00120362E47FC4FEFDFCAB15AAFE
:10023C0014A913A812120063E47B64FAF9F81202F1
:0A024C00568F158E148D138C1222AC
:1002CB00AB07AA067C007D6412000E8F167C007DA6
:1002DB000AAF03AE0212000E7C007D0A12000E8DD7
:0F02EB0017AE02AF037C007D0A12000E8D1822A1
:10029A00C2B212034812020C1202CB7F851200036B
:1002AA00740825161203887408251712038874081F
:1002BA002518F8E6FF12038B7FF47E0112030980EA
:0102CA00D45F
:10018C0002029AE493A3F8E493A34003F68001F2ED
:10019C0008DFF48029E493A3F85407240CC8C33374
:1001AC00C4540F4420C8834004F456800146F6DF43
:1001BC00E4800B0102040810204080900375E47E5B
:1001CC00019360BCA3FF543F30E509541FFEE49338
:1001DC00A360010ECF54C025E060A840B8E493A3FF
:1001EC00FAE493A3F8E493A3C8C582C8CAC583CA2A
:1001FC00F0A3C8C582C8CAC583CADFE9DEE780BEE2
:010387000075
:10000E00BC000BBE0029EF8DF084FFADF022E4CCD6
:10001E00F875F008EF2FFFEE33FEEC33FCEE9DEC9F
:10002E00984005FCEE9DFE0FD5F0E9E4CEFD22EDE5
:10003E00F8F5F0EE8420D21CFEADF075F008EF2F2F
:10004E00FFED33FD4007985006D5F0F222C398FD20
:05005E000FD5F0EA22BD
:10006300E88FF0A4CC8BF0A42CFCE98EF0A42CFC3C
:100073008AF0EDA42CFCEA8EF0A4CDA8F08BF0A4BA
:100083002DCC3825F0FDE98FF0A42CCD35F0FCEB19
:100093008EF0A4FEA9F0EB8FF0A4CFC5F02ECD39DE
:0F00A300FEE43CFCEAA42DCE35F0FDE43CFC224B
:10025600C2D5E830E70FB2D5E4C39BFBE49AFAE4D3
:1002660099F9E498F8EC30E717B2D512028C12002F
:10027600EEE4C39BFBE49AFAE499F9E498F8800368
:100286001200EE30D50DE4C39FFFE49EFEE49DFD13
:04029600E49CFC22C6
:1000B20075F008758200EF2FFFEE33FECD33CDCC05
:1000C20033CCC58233C5829BED9AEC99E582984088
:1000D2000CF582EE9BFEED9AFDEC99FC0FD5F0D665
:1000E200E4CEFBE4CDFAE4CCF9A88222B800C1B98F
:1000F2000059BA002DEC8BF084CFCECDFCE5F0CBCD
:10010200F97818EF2FFFEE33FEED33FDEC33FCEB05
:1001120033FB10D703994004EB99FB0FD8E5E4F9C0
:10012200FA227818EF2FFFEE33FEED33FDEC33FCAD
:10013200C933C910D7059BE99A4007EC9BFCE99AA1
:10014200F90FD8E0E4C9FAE4CCFB2275F010EF2FE6
:10015200FFEE33FEED33FDCC33CCC833C810D707E6
:100162009BEC9AE899400AED9BFDEC9AFCE899F821
:0E0172000FD5F0DAE4CDFBE4CCFAE4C8F922B4
:00000001FF
