:030000000206876E
:0C068700787FE4F6D8FD7581210206CED4
:100980003F065B4F666D7D077F6FBF86DBCFE6ED71
:09099000FD87FFEF00804076387E
:1008A000010A00010900C107C103010800010E008F
:1008B000C106C101C100C109010D00010C00C10246
:0908C000C108C104C105010B00CF
:0B099900EF1FAC0670011E4C70F62230
:10090E00D3EF9400EE940040147D787C00ED1D70C2
:0D091E00011CED4C70F7EF1F70E61E80E32A
:01092B0022A9
:10094A00E4F513D2A3C2A37F50FE120999D2A320C1
:0B095A00A3FD7F967E00120999D2A336
:01096500226F
:1008CA00E4FDD2A37B08EDC313FDC2A30000D2A3AB
:1008DA0030A3034305807F0A7E00120999DBE7AF44
:0108EA000508
:0108EB0022EA
:02096600AD07DB
:100968007B08C2A3ED1392A37F057E00120999D2DA
:07097800A3EDC313FDDBEB4F
:01097F002255
:10055E00E4F50FF510F511F51212094A7FCC1209C8
:10056E00667F441209667F017E00300A0512076914
:10057E00800312090E12094A7FCC1209667FBE1241
:10058E0009661208CA8F0F1208CA8F10300A0A1293
:10059E0008CA8F0A1208CA8F09E50A30E706D20187
:1005AE002480F50AE50930E706D2002480F509AF6C
:1005BE00107E00EEC4F854F0C868FEEFC4540F4825
:1005CE004E7004C206800BD206E50FF404F50F63DD
:1005DE0010FFE510C454F0FFE50FC4540F4FF5089B
:0605EE00530F0F850F0EF4
:0105F40022E4
:1007BF003001067480250AF50A3000067480250979
:1007CF00F50912094A7FCC1209667F4E120966AFEE
:1007DF000A120966AF091209667FFF12096612092C
:0B07EF004A7FCC1209667F48020966B1
:1005F50020015E20002A200620E508D39509400643
:10060500E508950A4004D209D28EE508C3950A503B
:1006150008E50895094002C209300604D209D28EC0
:1006250030002E200614E508C3950A4004D209D2ED
:100635008EE508C3950A5002C209300614E508C3C1
:1006450095094004D209D28EE508C395095002C226
:100655000930012D30002A300620E508D3950A40DF
:1006650006E50895094004D209D28EE508C3950927
:100675005008E508950A4002C209200604D209D2AD
:020685008E22C3
:0408EC007F0A7E0001
:1008F000D3EF9400EE940040147D787C00ED1D70E1
:0D090000011CED4C70F7EF1F70E61E80E348
:01090D0022C7
:1004A400AB07AA0620A173200502C2901208EC2013
:1004B400A162D290200A2D0BBB00010AE50CB40105
:1004C4000FD3EB947DEA6480948040047A007B7DB2
:1004D400E50CB4020FD3EB947DEA6480948040046D
:1004E4007A007B7D300A2D0BBB00010AE50CB401B8
:1004F4000FD3EB9437EA6480948040047A007B370E
:10050400E50CB4020FD3EB9437EA64809480400482
:100514007A007B3730A1FD1208EC20A038200502B8
:10052400C2901208EC20A027D290EB1B70011AE5B0
:100534000CB4010BC3EA648094805003E4FAFBE535
:100544000CB4020BC3EA648094805003E4FAFB30D9
:0A055400A0FD1208ECAE02AF032276
:1003860020A247200502C2901208EC20A236D29085
:10039600D28ED202D208050DE50DD39402400CE4AC
:1003A600F50DC28EC202C2081207BFE50D14600C1D
:1003B60014600E2402700DE4F50C8008750C0180A3
:1003C60003750C0230A2FD1208ECE50CB4011430E2
:1003D6000811C291AF0A7E00A201920A1204A48FEC
:1003E6000A8017E50CB4021230080FD291AF097ECD
:1003F60000A200920A1204A48F0930023E20B33BE9
:10040600200502C2907F057E001208F020B326D296
:1004160090E50CB4010DE50AD394374004C201807F
:1004260002B201E50CB4020DE509D394374004C2CB
:10043600018002B20030B3FD1208EC20085F20A153
:100446001A200502C2901208EC20A109D290750C60
:1004560001D28ED20330A1FD1208EC20A01A20058D
:1004660002C2901208EC20A009D290750C02D28E1E
:10047600D20330A0FD1208EC300407E4F50CC204E8
:10048600C28E20021820B315200502C2901208EC75
:0E04960020B304D290B20530B3FD1208EC2260
:10092C00D3EF9400EE940040147D787C00ED1D70A4
:0D093C00011CED4C70F7EF1F70E61E80E30C
:01094900228B
:10000300758910758C3C758AB0D2AFD2ABA20A92B7
:020013008E223B
:03001B000207FADF
:1007FA00C0E0C0D0758C3C758AB0050BE50BC3947C
:10080A00055004D207800BC207300906C290C29174
:10081A008004D290D291E50BD394144007750B0053
:09082A00C203D204D0D0D0E032A8
:0408330033FFAD0AD8
:10083700EF7014ED75F06484FE70059009948004E0
:10084700EE90098093F580BF0119ED75F06484E59A
:10085700F075F00A8470059009948004900996E475
:0408670093F5802263
:07071300A201920A850A0F02
:10071A00200A2DE50F75F064847013E50F75F064F7
:10072A0084E5F075F00A847005900994800FE50F4E
:10073A0075F06484E5F075F00A8490098093F58079
:10074A00300A1BE50F75F06484E5F075F00A84FF42
:0F075A0070059009968004EF90098093F5802236
:0401F100AB07A905AA
:1001F500E4FAEA1460431470030202A414700302C3
:10020500030624036003020375D2A5D2A6D2A7C2B2
:10021500A4E50C7009A20633FFAD03120837E50CFF
:10022500B40107900997E493F580E50C6402600337
:10023500020375900998020372D2A4D2A6D2A7C26E
:10024500A5E50C7009A206920A8B0F12071AE50C98
:100255006401701A200707A201120833800790096C
:1002650094E493F580300306A201E4120833E50C0B
:100275006402600302037520070BA20033FFAD097A
:100285001208378007900994E493F5802003030250
:100295000375A200E433FFAD09120837020375D2D6
:1002A500A4D2A5D2A7C2A6E50C700DEB75F00A8401
:1002B500E5F090098A93F580E50C64017015200737
:1002C500051207138007900994E493F58030030322
:1002D500120713E50C6402600302037520070CA2E4
:1002E50000920A85090F12071A8007900994E49372
:1002F500F58030037BA200920A85090F12071A8048
:100305006FD2A4D2A5D2A6C2A7E50C7007E99009C1
:100315008093F580E50C6401702820070DE50A75CA
:10032500F00A84E5F09009808004900994E493F53F
:100335008030030EE50A75F00A84E5F09009809394
:10034500F580E50C6402702820070DE50975F00AB3
:1003550084E5F09009808004900994E493F5803059
:10036500030EE50975F00A84E5F090098093F580A0
:100375007F0A7E0012092C0AEA640460030201F771
:010385002255
:040769008F828E836A
:10076D00C20BE4FBEBC39582E495835044E4FAEAB3
:10077D0014601414601B14602224037026D2A5D2B9
:10078D00A6D2A7C2A4801CD2A4D2A6D2A7C2A580ED
:10079D0012D2A4D2A5D2A7C2A68008D2A4D2A5D225
:1007AD00A6C2A77F907E0112092C0ABA04C10B8044
:0107BD00B388
:0107BE002218
:10086B00D290D291C20A120003D20A12055E120371
:10087B0086C20A12055EAC0EE412012EE4FBFA7975
:10088B0020783F12001E120162AD07AF081201F172
:05089B001205F580D9F3
:10001E00EC4D6011E8497017ED33EC3304600DE4DC
:10002E00FCFFFEFD22E933E8330470F80201CE1224
:10003E00019958046009E4CC248150062850090225
:10004E0001D82840030201D5C0E0EB4A7044B980C4
:10005E0006D0E0FB0201C4EF4E701CBD8008EBFF22
:10006E00EAFEE9FD80EBE98DF0A4FEE5F002010762
:10007E00E9CDF9EAFEEBFFEF89F0A4FCE5F0CE89BD
:10008E00F0A42EFFE435F0CD89F0A42DFEE435F07A
:10009E008067EF4E7005BD80D780C3EF8BF0A4ACA8
:1000AE00F0EE8BF0A42CFCE435F0F8EF8AF0A42CE3
:1000BE00E5F038FCE433CB8DF0A42CFCE5F03BF8F6
:1000CE00EE8AF0A42CFCE5F038F8E433CF89F0A4E6
:1000DE002CFCE5F038CF3400CE89F0A42FFFE5F0EC
:1000EE003EFEE433C98DF0A42EFEE5F039CD8AF044
:1000FE00A42FFFE5F03EFEE43DFD33D0E0FB5007BC
:10010E000BBB000F0201D8EC2CFCEF33FFEE33FEDD
:06011E00ED33FD0201B00B
:1001240075F020800E75F010800575F0087D007E56
:10013400007F003392D530D5031201E3EC33401035
:10014400EF33FFEE33FEED33FDEC33FCD5F0ED225F
:0E015400E5F0247EA2D513CC92E7CDCEFF229B
:10016200EDD2E7CD33EC3392D524814006E4FFFE95
:10017200FDFC22FCE4CFCECDCC24E0501174FF80F4
:10018200EDC3CC13CCCD13CDCE13CECF13CF047091
:07019200F030D5DE0201E3AD
:10019900E9D2E7C933E833F892D5EDD2E7CD33ECAC
:0701A90033FC5002B2D52225
:1001B000EC30E7100FBF000C0EBE00080DBD0004B0
:1001C0000BEB6014A2D5EB13FCED92E7FD2274FF5C
:1001D000FCFDFEFF22E480F8A2D574FF13FC7D80B5
:0301E000E480EFC9
:1006930002086BE493A3F8E493A34003F68001F20A
:1006A30008DFF48029E493A3F85407240CC8C33368
:1006B300C4540F4420C8834004F456800146F6DF37
:1006C300E4800B01020408102040809008A0E47E1F
:1006D300019360BCA3FF543F30E509541FFEE4932C
:1006E300A360010ECF54C025E060A840B8E493A3F3
:1006F300FAE493A3F8E493A3C8C582C8CAC583CA1E
:10070300F0A3C8C582C8CAC583CADFE9DEE780BED5
:0108C900002E
:0E01E300C3E49FFFE49EFEE49DFDE49CFC222D
:00000001FF
