:030000000211C02A
:0C11C000787FE4F6D8FD75814402120728
:10154800303132333435363738390007080900046A
:101558000506000102030000000000070809FF0457
:0B1568000506FA010203FDD1000DFB97
:1016C7000B093031323334353637383900011400DD
:051667001216977F013F
:0F166C00EFD394004009E4FE0EBE6EFC1F80F128
:01167B00224C
:101635007580FFC2A6C2A57F0112166CD2A57F01D7
:0916450012166CC2872087E8220E
:071690007FCF1216977F04C3
:0C1697008F80C2A6C2A5121635D2A52273
:0D164E00E47B0AFAF9F812142DEB2430FFAA
:0C165B008F80D2A6C2A5121635D2A5229F
:1013DC007528FFD2A57F381216977F0512166C7FE1
:1013EC00381216977F0512166C7F0C1216677F0643
:1013FC001216677F801216677F01121697E4F53775
:10140C00F539F53AF52EF52DF52CF52BF532F531A0
:10141C00F530F52FF536F535F534F533F517F515BB
:01142C00229D
:1000030075B0FEE5B064FE70030200E47F141216BF
:100013006CE5B064FE6028E5B054F0F524249060EC
:100023001B24C0601224E0600924F07012E4F52858
:10003300800D75280180087528028003752803E563
:10004300B0B4FEFBE528600A64016006E52864029B
:10005300707BE53A60087F01121697E4F53AE517DD
:1000630070357F0AFEFDFCAB2EAA2DA92CA82B12FE
:100073000F8AA804A905AA06AB07E5289015539390
:10008300FFE4FCFDFEEB2FF52EEE3AF52DED39F5F1
:100093002CEC38F52B803CE47F0AFEFDFCAB32AA46
:1000A30031A930A82F120F8AA804A905AA06AB0705
:1000B300E52890155393FFE4FCFDFEEB2FF532EE9C
:1000C3003AF531ED39F530EC38F52F800675170127
:1000D300751504E52890156393F5392430FF12163E
:1000E3005B75B0FDE5B064FD70030201D27F1412AD
:1000F300166CE5B064FD6028E5B054F0F524249057
:10010300601B24C0601224E0600924F0701275287B
:1001130004800D7528058008752806800375280757
:10012300E5B0B4FDFBE52864046015E528640560CB
:100133000FE528640660030201BEE5286407607BBF
:10014300E53A60087F01121697E4F53AE517703532
:100153007F0AFEFDFCAB2EAA2DA92CA82B120F8A19
:10016300A804A905AA06AB07E52890155393FFE455
:10017300FCFDFEEB2FF52EEE3AF52DED39F52CECCB
:1001830038F52B803CE47F0AFEFDFCAB32AA31A993
:1001930030A82F120F8AA804A905AA06AB07E528E1
:1001A30090155393FFE4FCFDFEEB2FF532EE3AF589
:1001B30031ED39F530EC38F52F80067517017515DB
:1001C30003E52890156393F5392430FF12165B7508
:1001D300B0FBE5B064FB70030202BC7F1412166C23
:1001E300E5B064FB6028E5B054F0F5242490601B6F
:1001F30024C0601224E0600924F07012752808807E
:100203000D752809800875280A800375280BE5B049
:10021300B4FBFBE5286408600CE52864096006E587
:1002230028640A707BE53A60087F01121697E4F5AB
:100233003AE51770357F0AFEFDFCAB2EAA2DA92CDB
:10024300A82B120F8AA804A905AA06AB07E52890D4
:10025300155393FFE4FCFDFEEB2FF52EEE3AF52D3F
:10026300ED39F52CEC38F52B8041E47F0AFEFDFCDB
:10027300AB32AA31A930A82F120F8AA804A905AA64
:1002830006AB07E52890155393FFE4FCFDFEEB2F27
:10029300F532EE3AF531ED39F530EC38F52F800BC8
:1002A300E528B40B06751701751502E5289015634B
:1002B30093F5392430FF12165B75B0F7E5B064F798
:1002C30070030205F07F1412166CE5B064F7602822
:1002D300E5B054F0F5242490601B24C0601224E0A0
:1002E300600924F0701275280C800D75280D8008A4
:1002F30075280E800375280FE5B0B4F7FBE52824B5
:10030300F360181460621470030205DE24036003B3
:100313000205F07F011216970205AAE5177021AFB7
:100323002EAE2DAD2CAC2B7B0AFAF9F8120F8A8F67
:100333002E8E2D8D2C8C2B7F3012165BE4F5A02294
:10034300E517C3940150030205F0AF32AE31AD306F
:10035300AC2FE47B0AFAF9F8120F8A8F328E318DB3
:10036300308C2F7F300205DB753A01E5156401708F
:100373004F121690E52E2532F536E52D3531F5353C
:10038300E52C3530F534E52B352FF533AF36AE3567
:10039300AD34AC33EC4D4E4F601E12164EAF36AE3D
:1003A30035AD34AC33E47B0AFAF9F812142D8F36E9
:1003B3008E358D348C3380D47F3D12165B0205AAB3
:1003C300E51564026003020473121690C3E52E95CB
:1003D30032FFE52D9531FEE52C9530FDE52B952F6C
:1003E300FCE4FBFAF9F8C3120FE7501BC3E52E95A3
:1003F30032F536E52D9531F535E52C9530F534E5B7
:100403002B952FF5338019C3E532952EF536E5315B
:10041300952DF535E530952CF534E52F952BF533F2
:10042300AF36AE35AD34AC33EC4D4E4F601E1216C5
:100433004EAF36AE35AD34AC33E47B0AFAF9F8127D
:10044300142D8F368E358D348C3380D4C3E52E95A1
:1004530032E52D9531FEE52C9530FDE52B952FFCEE
:100463003350057F2D12165B7F3D12165B0205AAE2
:10047300E5156403704C121690AF32AE31AD30AC5B
:100483002FAB2EAA2DA92CA82B120F8A8022AF36B0
:10049300AE35AD34AC33EC4D4E4F601E12164EAF3D
:1004A30036AE35AD34AC33E47B0AFAF9F812142DC9
:1004B3008F368E358D348C3380D47F3D12165B029C
:1004C30005AAE515640460030205F0121690E4F52D
:1004D30039AF32AE31AD30AC2FEC4D4E4F7003021D
:1004E30005C0AF2EAE2DAD2CAC2BEC120E54C004B8
:1004F300C005C006C007AF32AE31AD30AC2FEC1231
:100503000E54A804A905AA06AB07D007D006D00548
:10051300D004120DB7E4FBFA797A7844120CAE12C8
:100523000E928F368E358D348C33AF36AE35AD3477
:10053300AC33EC4D4E4F602A12164EAF36AE35AD8E
:1005430034AC33E47B0AFAF9F812142D8F368E3566
:100553008D348C330539E539B403CF7F2E12165B06
:1005630080C8AB32AA31A930A82FAF2EAE2DAD2C47
:10057300AC2B12142DE4FBFAF9F8C3120FE7402257
:10058300D3E539648094825014E539B401057F3092
:1005930012165B7F2E12165B7F3012165B7F3012B2
:1005A300165B7F3D12165BE4F52EF52DF52CF52B2E
:1005B300F532F531F530F52FF517F515227F2112B8
:1005C300165B7F5212165B7F4F12165B7F52121619
:1005D3005B7F5212165B7F4502165BE5289015631D
:0E05E300932430FF12165B7517017515012267
:1014E40020932E7F1412166C2093261213DC753D64
:1014F400013093FDE53D60191200032093F67F143B
:1015040012166C209306E4F53D1213892093E580AE
:01151400FBDB
:0115150022B3
:10167C001213891215161210CB1205F112124C12FC
:04168C0014E480EFF3
:0515E3001215FF7FC896
:1015E800E4FEEEC39F500FE4FDE4FC0CBC21FC0DAF
:0615F800BD0AF60E80ECB6
:0115FE0022CA
:10133100E52275F00A120F13C454F0FFE52275F08F
:0D1341000A120F13AEF0EF2E4480FD7F80E6
:10134E00C2A1C2A3D2A1E4FEEF30E004D2A2800279
:10135E00C2A2EFC313FFD2A300C2A30EBE08E9E4DC
:10136E00FEED30E004D2A28002C2A2EDC313FDD284
:0A137E00A300C2A30EBE08E9C2A13D
:011388002242
:1014AB00C2A1C2A3D2A1E4FDEF30E004D2A280021C
:1014BB00C2A2EFC313FFC2A300D2A30DBD08E9E480
:1014CB00FD30A203430680EEC313FED2A300C2A3DA
:0814DB000DBD08EDC2A1AF0632
:0114E30022E6
:10147100C2A1C2A3D2A1E4FDEF30E004D2A2800256
:10148100C2A2EFC313FFC2A300D2A30DBD08E9E4BA
:10149100FDEEC313FEC2A330A203430680D2A30D07
:0914A100BD08EEC2A1C2A3AF0612
:0114AA00221F
:101516007F8D1214718F237F891214AB8F207F87E2
:101526001214AB8F257F851214AB8F267F8312147E
:10153600AB8F167F811214AB8F087F8B1214AB8F83
:02154600212260
:1015FF00AB077F0A1215E8C2A6C2A500008B8000B8
:0C160F00000000D2A500000000C2A522CF
:0F1573007F861215FFE520C4540F2409F8E6FF08
:10158200AB077F0A1215E8D2A6C2A5008B80000025
:0B1592000000D2A500000000C2A5224E
:10138900C2A6C2A71216A31216A31216A37F0C1285
:1013990015FF7F061215FF7F011215FF7F851215B4
:1013A900FF7F2F1215827F881215FF7F2F1215825A
:1013B9007FC21215FF7F3A1215827FC51215FF7F72
:1013C9003A1215827FCD1215FF7FDF1215827F43F6
:0313D90002158278
:1010CB007F811215FFAF0B121582AF09121582E546
:1010DB002312157AE52312157B121573E5201215D1
:1010EB007B7F891215FFE52512157AE52512157BF5
:1010FB007F8C1215FFE52114B40700400302118CFD
:10110B0090111975F003A4C58325F0C583730211E3
:10111B002E02113702114502115302116102116F98
:10112B0002117D7F4D1215827F4F804D7F5412151A
:10113B00827F551215827F4580447F571215827F1F
:10114B00451215827F4480367F541215827F4812D8
:10115B0015827F5580287F461215827F5212158289
:10116B007F54801A7F531215827F411215827F5450
:10117B00800C7F531215827F551215827F4E1215EC
:10118B00827FC01215FFE52612157AE52612157B14
:10119B007FC31215FFE51612157AE51612157B7F24
:1011AB00C61215FFE50812157AE508540F2409F845
:0511BB00E6FF021582B1
:0516A3007F381215FF65
:0C16A800E4FFE4FE0EBE3CFC0FBF64F645
:0116B4002213
:1016B5007EE8AD07EDD3940140031D80F71EBE0102
:0116C500F133
:0116C6002201
:1005F10020900D1216A8209002053DA290B340FB59
:10060100E53D7003020BB5E4FD7F8E12134E7F8131
:100611001214AB8F08E508121349E53D7003020B74
:100621009814B407004003020B7A90063975F00361
:10063100A4C58325F0C5837302064E0206E70207AF
:10064100700208C80209DF020A7A020B157F8412C0
:1006510015FF7F0F1215E3E523C4540F75F00AA4AB
:10066100FFE523540F2FF53820912E1216A8209163
:10067100280538E538B46403E4F538E53875F00A3F
:10068100120F13C454F0FFE53875F00A120F13AEC0
:10069100F0EF2EFD7F8C12134E3091FD20922E1221
:1006A10016A82092281538E538B4FF03753863E59C
:1006B1003875F00A120F13C454F0FFE53875F00ACB
:1006C100120F13AEF0EF2EFD7F8C12134E3092FD00
:1006D1007F8D1214718F237F831215FFE52312156D
:1006E1007AE523020A707F871215E3E520C4540FCF
:1006F10075F00AA4FFE520540F2FF52920912E1241
:1007010016A82091280529E529B40D03752901E5CD
:100711002975F00A120F13C454F0FFE52975F00A88
:10072100120F13AEF0EF2EFD7F8812134E3091FDA4
:1007310020922A1216A8209224D5290375290CE5A6
:100741002975F00A120F13C454F0FFE52975F00A58
:10075100120F13AEF0EF2EFD7F8812134E3092FD73
:100761007F891214AB8F20121573E520020A707F66
:100771008A1215E3E525C4540F75F00AA4FFE52597
:10078100540F2FF53B3091030208181216A830912F
:1007910003020818053BE52914B40C00505B9007CF
:1007A100AD75F003A4C58325F0C583730207D1029B
:1007B10007E00207D10207D90207D10207D90207D0
:1007C100D10207D10207D90207D10207D90207D105
:1007D100E53B64207023801EE53BB41F1C8017E5B8
:1007E1003875F004120F13AFF0EF7007E53BB41E3C
:1007F100088003753B1D753B01E53B75F00A120F3F
:1008010013C454F0FFE53B75F00A120F13AEF0EF7D
:100811002EFD7F8612134E3091FD3092030208AFF8
:100821001216A83092030208AF153BE52914B40C47
:1008310000505D90084275F003A4C58325F0C5837F
:100841007302086602087802086602086F020866E9
:1008510002086F02086602086602086F0208660253
:10086100086F020866E53B7027753B1F8022E53B58
:10087100701E753B1E8019E53875F004120F13AF19
:10088100F0EF7009E53B7008753B1D8003753B0077
:10089100E53B75F00A120F13C454F0FFE53B75F008
:1008A1000A120F13AEF0EF2EFD7F8612134E309217
:1008B100FD7F871214AB8F257F891215FFE5251265
:1008C100157AE525020A707F8E1215E3E521C454DD
:1008D1000F75F00AA4FFE521540F2FF52A20912E60
:1008E1001216A8209128052AE52AB40803752A01C1
:1008F100E52A75F00A120F13C454F0FFE52A75F0CA
:100901000A120F13AEF0EF2EFD7F8A12134E3091B3
:10091100FD20922A1216A8209224D52A03752A07AF
:10092100E52A75F00A120F13C454F0FFE52A75F099
:100931000A120F13AEF0EF2EFD7F8A12134E309282
:10094100FD7F8B1214AB8F217F8C1215FFE52114D3
:10095100B407004003020B7A90096775F003A4C540
:100961008325F0C5837302097C020985020994027B
:1009710009A30209B20209C10209D07F4D121582F1
:100981007F4F80527F541215827F551215827F4509
:10099100020B777F571215827F451215827F440221
:1009A1000B777F541215827F481215827F55020BF7
:1009B100777F461215827F521215827F54020B7780
:1009C1007F531215827F411215827F54020B777F6C
:1009D100531215827F551215827F4E020B777FC10C
:1009E1001215E3E526C4540F75F00AA4FFE5265459
:1009F1000F2FF53C20912E1216A8209128053CE5D9
:100A01003CB41803E4F53CE53C75F00A120F13C43D
:100A110054F0FFE53C75F00A120F13AEF0EF2EFD16
:100A21007F8412134E3091FD20922E1216A820922F
:100A310028153CE53CB4FF03753C17E53C75F00A0D
:100A4100120F13C454F0FFE53C75F00A120F13AEF8
:100A5100F0EF2EFD7F8412134E3092FD7F8512142C
:100A6100AB8F267FC01215FFE52612157AE52654B5
:100A71000F2409F8E6FF020B777FC41215E3E51690
:100A8100C4540F75F00AA4FFE516540F2FF5272063
:100A9100912E1216A82091280527E527B43C03E4DE
:100AA100F527E52775F00A120F13C454F0FFE52767
:100AB10075F00A120F13AEF0EF2EFD7F8212134E66
:100AC1003091FD20922E1216A820920A1527E527B3
:100AD100B4FF0375273BE52775F00A120F13C454C1
:100AE100F0FFE52775F00A120F13AEF0EF2EFD7F30
:100AF1008212134E3092FD7F831214AB8F167FC387
:100B01001215FFE51612157AE516540F2409F8E6B9
:100B1100FF020B777FC71215E3E508C4540F75F088
:100B21000AA4FFE508540F2FF5222091131216A8ED
:100B310020910D0522E522B43C03E4F52212133184
:100B41003091FD2092131216A820920D1522E52254
:100B5100B4FF0375223B1213313092FD7F811214D1
:100B6100AB8F087FC61215FFE50812157AE5085408
:100B71000F2409F8E6FF12158220900D1216A82005
:100B81009002053DA290B340FBE53D64086003027D
:100B9100061BF53D02061B7F811214AB8F08E50889
:100BA100547FFD7F8012134E7D807F8E12134E7F06
:040BB1000C1215FF0E
:010BB500221D
:0B16D800EF1FAC0670011E4C70F622E4
:10159D00E4FDD2A07F08FE1216D8C2A07F507E00B7
:1015AD001216D8D2A07F0E7E001216D8A2A0E43358
:0815BD00FD7F147E000216D828
:1015C500E4FB7D08C2A0EBC313FBD2A030A003430C
:0D15D50003807F047E001216D8DDE9AF030D
:0115E20022E6
:02161B00AD0719
:10161D007B08C2A0ED1392A07F057E001216D8D2D2
:07162D00A0EDC313FDDBEB90
:011634002293
:1012C700E4FAFFFDFCF544F543F542F54112159D9F
:1012D7007FCC12161B7F4412161B12159D7FCC1252
:1012E700161B7FBE12161B1215C5AA071215C5AD10
:1012F70007EDFCEAFDE4120E59E4FBFA7980783D2C
:10130700120CAE8F448E438D428C41E4FFFE7D204C
:101317007C41AB44AA43A942A841120CAEE4FBFAB4
:09132700F9783F120BBD120E9281
:01133000229A
:10124C001212C7AB07AA067C007D64120F358F8281
:10125C007C007D0AAF03AE02120F357C007D0A12B2
:10126C000F358C3D8D3EAE02AF037C007D0A120F14
:10127C00358C3F8D407FCA1215FFAF82EF90154819
:10128C0093FF1215827FCB1215FFE53E93FF1215CB
:10129C00827FCC1215FF7F2E1215827FCD1215FF87
:1012AC00E54093FF1215827FCE1215FF7FDF1215DA
:0B12BC00827FCF1215FF7F43021582D6
:100BB600020EFEE86480F8E933E83360110460F061
:100BC600ED33EC337009E8FCE9FDEAFEEBFF2204A5
:100BD60060DED3EB9FEA9EE99DE8C2E78CF0C2F7A0
:100BE60095F0400CE8CCF8E9CDF9EACEFAEBCFFB6C
:100BF600120EC985D0F05804700320D5B3E80470EE
:100C0600075002B2D5020F0892D5EC0460F7E4CC87
:100C1600C0E0C398F8603B94186008400DD0E0FB34
:100C2600020EE0E4FBFAC9FC8028E830E406E4C9D9
:100C3600FBE4CAFCE830E305E4C9CACBFCE8540788
:100C46006010F8C3E913F9EA13FAEB13FBEC13FC93
:100C5600D8F130F52FC3E49CFCEF9BFFEE9AFEED36
:100C660099FDD0E0FBEF4E4D4C701222DB03020FD4
:100C760005EC2CFCEF33FFEE33FEED33FDED30E7F4
:100C8600EB020EE0EF2BFFEE3AFEED39FDD0E0FB76
:100C960050130BBB0003020F08ED13FDEE13FEEF1E
:080CA60013FFEC13FC020EE049
:100CAE00EC4D6011E8497017ED33EC3304600DE440
:100CBE00FCFFFEFD22E933E8330470F8020EFE124B
:100CCE000EC958046009E4CC24815006285009024C
:100CDE000F08284003020F05C0E0EB4A7044B980AC
:100CEE0006D0E0FB020EF4EF4E701CBD8008EBFF49
:100CFE00EAFEE9FD80EBE98DF0A4FEE5F0020D972A
:100D0E00E9CDF9EAFEEBFFEF89F0A4FCE5F0CE8920
:100D1E00F0A42EFFE435F0CD89F0A42DFEE435F0DD
:100D2E008067EF4E7005BD80D780C3EF8BF0A4AC0B
:100D3E00F0EE8BF0A42CFCE435F0F8EF8AF0A42C46
:100D4E00E5F038FCE433CB8DF0A42CFCE5F03BF859
:100D5E00EE8AF0A42CFCE5F038F8E433CF89F0A449
:100D6E002CFCE5F038CF3400CE89F0A42FFFE5F04F
:100D7E003EFEE433C98DF0A42EFEE5F039CD8AF0A7
:100D8E00A42FFFE5F03EFEE43DFD33D0E0FB50071F
:100D9E000BBB000F020F08EC2CFCEF33FFEE33FE03
:060DAE00ED33FD020EE032
:100DB400020F08EC5D046005E859047003020EFE9E
:100DC400120EC9580460F6EC4860F2EC7004FDFEA3
:100DD400FF22C860DB2481C85009C3986002500612
:100DE400020F059850CAF582E9294B4A7005AB8277
:100DF400020EF475F0007C1A7880C3EF9BEE9AED36
:100E040099400DC3EF9BFFEE9AFEED99FDE842F089
:100E1400DC23ACF0D0E0FFD0E0FED0E0FDAB8220DC
:100E2400E7101BEB60BAEC2CFCEF33FFEE33FEED66
:100E340033FD020EE0E803F830E705C0F075F0007A
:100E4400EF2FFFEE33FEED33FD40B830E7C280AA4A
:100E540075F020800E75F010800575F0087D007E19
:100E6400007F003392D530D503120FD9EC334010F4
:100E7400EF33FFEE33FEED33FDEC33FCD5F0ED2222
:0E0E8400E5F0247EA2D513CC92E7CDCEFF225E
:100E9200EDD2E7CD33EC3392D524814006E4FFFE58
:100EA200FDFC22FCE4CFCECDCC24E0501174FF80B7
:100EB200EDC3CC13CCCD13CDCE13CECF13CF047054
:070EC200F030D5DE020FD96C
:100EC900E9D2E7C933E833F892D5EDD2E7CD33EC6F
:070ED90033FC5002B2D522E8
:100EE000EC30E7100FBF000C0EBE00080DBD000473
:100EF0000BEB6014A2D5EB13FCED92E7FD2274FF1F
:100F0000FCFDFEFF22E480F8A2D574FF13FC7D8077
:030F1000E480EF8B
:1011CC0002167CE493A3F8E493A34003F68001F2A7
:1011DC0008DFF48029E493A3F85407240CC8C33324
:1011EC00C4540F4420C8834004F456800146F6DFF3
:1011FC00E4800B01020408102040809016C7E47EA6
:10120C00019360BCA3FF543F30E509541FFEE493E7
:10121C00A360010ECF54C025E060A840B8E493A3AE
:10122C00FAE493A3F8E493A3C8C582C8CAC583CAD9
:10123C00F0A3C8C582C8CAC583CADFE9DEE780BE91
:0116D7000012
:100F1300C2D530F707B2D563F0FF05F030E70CB266
:100F2300D5F4048463F0FF05F080018430D502F426
:020F3300042296
:100F3500BC000BBE0029EF8DF084FFADF022E4CCA0
:100F4500F875F008EF2FFFEE33FEEC33FCEE9DEC69
:100F5500984005FCEE9DFE0FD5F0E9E4CEFD22EDAF
:100F6500F8F5F0EE8420D21CFEADF075F008EF2FF9
:100F7500FFED33FD4007985006D5F0F222C398FDEA
:050F85000FD5F0EA2287
:100F8A00E88FF0A4CC8BF0A42CFCE98EF0A42CFC06
:100F9A008AF0EDA42CFCEA8EF0A4CDA8F08BF0A484
:100FAA002DCC3825F0FDE98FF0A42CCD35F0FCEBE3
:100FBA008EF0A4FEA9F0EB8FF0A4CFC5F02ECD39A8
:0F0FCA00FEE43CFCEAA42DCE35F0FDE43CFC2215
:10142D00C2D5E830E70FB2D5E4C39BFBE49AFAE4EA
:10143D0099F9E498F8EC30E717B2D512146312104D
:10144D0039E4C39BFBE49AFAE499F9E498F8800334
:10145D0012103930D50DE4C39FFFE49EFEE49DFDCF
:04146D00E49CFC22DD
:0E0FD900C3E49FFFE49EFEE49DFDE49CFC2229
:100FE700EB9FF5F0EA9E42F0E99D42F0EC6480C881
:060FF70064809845F02221
:100FFD0075F008758200EF2FFFEE33FECD33CDCCAB
:10100D0033CCC58233C5829BED9AEC99E58298402D
:10101D000CF582EE9BFEED9AFDEC99FC0FD5F0D60A
:10102D00E4CEFBE4CDFAE4CCF9A88222B800C1B934
:10103D000059BA002DEC8BF084CFCECDFCE5F0CB72
:10104D00F97818EF2FFFEE33FEED33FDEC33FCEBAB
:10105D0033FB10D703994004EB99FB0FD8E5E4F966
:10106D00FA227818EF2FFFEE33FEED33FDEC33FC53
:10107D00C933C910D7059BE99A4007EC9BFCE99A47
:10108D00F90FD8E0E4C9FAE4CCFB2275F010EF2F8C
:10109D00FFEE33FEED33FDCC33CCC833C810D7078C
:1010AD009BEC9AE899400AED9BFDEC9AFCE899F8C7
:0E10BD000FD5F0DAE4CDFBE4CCFAE4C8F9225A
:00000001FF
