:100CAE00FFE7DBDBDBDBE7FFFFE7EFEFEFEFC3FF9A
:100CBE00FFE3DFDFE7FBC3FFE3DFDFE7DFDFE3FFBA
:100CCE00FFEFE7EBC3EFEFFFFBC3FBE3DFDFE3FF7A
:100CDE00E7FBFBE3DBDBE7FFFFC3DFDFDFDFDFFF8E
:100CEE00E7DBDBE7DBDBE7FFE7DBDBC7DFDFE7FFCE
:100CFE00FF9900000081C3E7FFFFDB8181C3E7FF9F
:100D0E00FFFFFFDBC3E7FFFFFEFFE3E3F7FFFFFF9E
:100D1E00FEFFFFE3E3F7FFFFFEFFFFFFE3E3F7FF57
:100D2E00FEFFFFFFF3E3F3FFFEFFFFFFE7C7E7FF63
:100D3E00FEFFFFFFCF8FCFFFFEFFFFFFDF8F8FFF87
:100D4E00FEFFFFDF8F8FFFFFFEFFDF8F8FFFFFFFA7
:100D5E00FEDF8F8FFFFFFFFFFFE7DB5A5ADBE7FF58
:100D6E00FFE7EF6E6EEFC3FFFFE3DF5E66FBC3FFD1
:100D7E00E3DFDF665EDFE3FFFFEFE76A42EFEFFFE1
:100D8E00FBC3FB625EDFE3FFE7FBFB625ADBE7FFC1
:100D9E00FFC3DF5E5EDFDFFFE7DBDB665ADBE7FF0D
:080DAE00E7DBDB465EDFE7FF37
:0D0E8E00020D03E8010800010900010A003F
:080E9C007F147E71DEFEDFFC15
:010EA400222B
:100E4200D2AFC293758901758CFC758A67D2A9D21B
:100E52008CD3E50C9403E50B94004005E4F50BF507
:100E62000C20B50E120E9C30B508050CE50C700274
:100E7200050BC3E510950EE50F950D40D4E4F50F73
:0C0E8200F5100512E51270C9051180C5BD
:03000B00020800E8
:0F080000C0E0C083C082C0D075D000C000C00669
:10080F00758CFC758A677580FF0510E51070020501
:10081F000FE50C450B600302095A750D03750EE8C1
:10082F00C3E512940AE51194004006751100751284
:10083F0000E508B408004003020CA1900851F82805
:10084F0028730208690208870208A50208C3020874
:10085F00E10208FF02091D02093BC292C291C29038
:10086F000508AE11E5127803C333CE33CED8F92481
:10087F00AEF582740C020BCAC292C291D2900508D7
:10088F00AE11E5127803C333CE33CED8F924AFF5CA
:10089F0082740C020BCAC292D291C2900508AE119B
:1008AF00E5127803C333CE33CED8F924B0F5827472
:1008BF000C020BCAC292D291D2900508AE11E5126A
:1008CF007803C333CE33CED8F924B1F582740C023A
:1008DF000BCAD292C291C2900508AE11E5127803ED
:1008EF00C333CE33CED8F924B2F582740C020BCABF
:1008FF00D292C291D2900508AE11E5127803C3339C
:10090F00CE33CED8F924B3F582740C020BCAD2922F
:10091F00D291C2900508AE11E5127803C333CE33DE
:10092F00CED8F924B4F582740C020BCAD292D291AC
:10093F00D290750800AE11E5127803C333CE33CED3
:10094F00D8F924B5F582740C020BCAE50C64014585
:10095F000B6003020A95F50D750E96C3E51294030D
:10096F00E51194004006751100751200E508B408F2
:10097F00004003020CA190098CF82828730209A4E7
:10098F000209C20209E00209FE020A1C020A3A0227
:10099F000A58020A76C292C291C2900508AE11E5BA
:1009AF00127803C333CE33CED8F924FEF582740CFC
:1009BF00020BCAC292C291D2900508AE11E512780D
:1009CF0003C333CE33CED8F924FFF582740C020B58
:1009DF00CAC292D291C2900508AE11E5127803C334
:1009EF0033CE33CED8F92400F582740D020BCAC270
:1009FF0092D291D2900508AE11E5127803C333CE8F
:100A0F0033CED8F92401F582740D020BCAD292C2EB
:100A1F0091C2900508AE11E5127803C333CE33CEE1
:100A2F00D8F92402F582740D020BCAD292C291D268
:100A3F00900508AE11E5127803C333CE33CED8F943
:100A4F002403F582740D020BCAD292D291C2900583
:100A5F0008AE11E5127803C333CE33CED8F9240490
:100A6F00F582740D020BCAD292D291D29075080002
:100A7F00AE11E5127803C333CE33CED8F92405F582
:100A8F0082740D020BCAE50C6402450B6003020B66
:100A9F00D4750D03750E20C3E512940AE511940069
:100AAF004006751100751200E508B40800400302F6
:100ABF000CA1900AC8F8282873020AE0020AFE0265
:100ACF000B1C020B3A020B57020B74020B91020B19
:100ADF00AEC292C291C2900508AE11E5127803C35F
:100AEF0033CE33CED8F92416F582740D020BCAC259
:100AFF0092C291D2900508AE11E5127803C333CE9E
:100B0F0033CED8F92417F582740D020BCAC292D2D4
:100B1F0091C2900508AE11E5127803C333CE33CEE0
:100B2F00D8F92418F582740D020BCAC292D291D251
:100B3F00900508AE11E5127803C333CE33CED8F942
:100B4F002419F582740D8073D292C291C290050858
:100B5F00AE11E5127803C333CE33CED8F9241AF58C
:100B6F0082740D8056D292C291D2900508AE11E5D3
:100B7F00127803C333CE33CED8F9241BF582740D0C
:100B8F008039D292D291C2900508AE11E512780346
:100B9F00C333CE33CED8F9241CF582740D801CD20A
:100BAF0092D291D290750800AE11E5127803C3333B
:100BBF00CE33CED8F9241DF582740D3EF583E49320
:100BCF00F580020CA1E50C6403450B6003020CA138
:100BDF00E508B408004003020C82900BF0F82828B7
:100BEF0073020C08020C17020C26020C35020C447F
:100BFF00020C53020C62020C71C292C291C2900598
:100C0F0008E50A900D668068C292C291D2900508DD
:100C1F00E50A900D678059C292D291C2900508E5FE
:100C2F000A900D68804AC292D291D2900508E50AC7
:100C3F00900D69803BD292C291C2900508E50A904F
:100C4F000D6A802CD292C291D2900508E50A900DC0
:100C5F006B801DD292D291C2900508E50A900D6C5F
:100C6F00800ED292D291D290750800E50A900D6D48
:100C7F0093F5800509C3E50994FA748094804012B6
:100C8F00750900050AE50A9448748094804003753D
:020C9F000A0049
:0D0CA100D006D000D0D0D082D083D0E03279
:03000000020DB638
:0C0DB600787FE4F6D8FD758112020DFD77
:100DC200020E42E493A3F8E493A34003F68001F2F7
:100DD20008DFF48029E493A3F85407240CC8C33332
:100DE200C4540F4420C8834004F456800146F6DF01
:100DF200E4800B0102040810204080900E8EE47EF5
:100E0200019360BCA3FF543F30E509541FFEE493F5
:100E1200A360010ECF54C025E060A840B8E493A3BC
:100E2200FAE493A3F8E493A3C8C582C8CAC583CAE7
:100E3200F0A3C8C582C8CAC583CADFE9DEE780BE9F
:010E9B000056
:00000001FF
