:0300000002027584
:0C027500787FE4F6D8FD7581240202BCFD
:10038600C2B18BA07F017E001203AFD2B27F057E81
:10039600001203AFC2B2EBC454F0F5A07F017E0099
:0903A6001203AFD2B27F057E0004
:1003AF00D3EF9400EE9400400F7DC77C01DCFEDD9F
:0803BF00FAEF1F70EB1E80E84D
:0103C7002213
:0C051300AB07C2B2C2B0120386C2B22213
:0C051F00AB07C2B2D2B0120386C2B222F7
:100480007F321205137F281205137F0C1205137F8C
:0E049000061205137F011205137F800205136B
:100409007F801205139000007F2012051FA3E5824B
:100419006410458370F27FC0120513E4F583F582F9
:0E0429007F2012051FA3E5826410458370F248
:0104370022A2
:1004BA00041C06070607010F0001120001170001BC
:0804CA001100041800000000FD
:10000E00E4F520F521F5221204801204091204E60B
:10001E007F057E001203AF7D067F011204A17D07CE
:10002E007F021204A17D067F031204A17D077F04C7
:10003E001204A1E412049ED2B4D2B5120301E5104B
:10004E00D394094003020114E5176003020114E57D
:10005E0011600302011474082520F8A610E5126041
:10006E0006120409E4F512E5202480FF1205137F21
:10007E002A12051F0520C3E52064809484500302D4
:10008E000114E4F512F521741C2521F8E6FF74081D
:10009E002521F8E66F60037512010521E521B404F0
:1000AE00E6120409E512701CC2B5F50C750D01E5DA
:1000BE00202482FF1205137F4F12051F7F4B12055E
:1000CE001FE4803CD2B5E5202482FF1205137F4544
:1000DE0012051F7F5212051F7F0612045E8F0EE55A
:1000EE000EC394024017751101C2B4E5202482FF9D
:1000FE001205137F4C12051F7F4B12051FE50E04D0
:10010E0012049EE4F520E510D39409400302021474
:10011E00E5177003020214E511600302021474085D
:10012E002522F8A610E5222480FF1205137F2A123D
:10013E00051F0522C3E52264809484500302021435
:10014E00E51764027036F52174082521F8E6FF7470
:10015E001C2521F8A607E52104FF741C2521F8E6CD
:10016E00FD1204A10521C3E5216480948440D912B7
:10017E000409E4F517C2B3F50C750D01E51764011A
:10018E006003020211F50FF521741C2521F8E6FF1C
:10019E0074082521F8E66F6003750F010521E5212E
:1001AE00B404E6120409E50F70197517027FC01228
:1001BE0005137F4E12051F7F4512051F7F5712052F
:1001CE001F8040E5222482FF1205137F4512051F72
:1001DE007F5212051F7F0612045E8F0EE50EC3942A
:1001EE00024017751101C2B4E5202482FF120513D7
:1001FE007F4C12051F7F4B12051FE50E04FD7F0677
:10020E001204A1E4F522E510640A7023E511701FB3
:10021E001204097517017FC01205137F4F12051FB7
:10022E007F4C12051F7F4412051FE4F522800EE558
:10023E0010B40B09E5117005D2B5120409E50D4590
:10024E000C601A050DE50D7002050CD394D0E50C6B
:10025E0094074009D2B3D2B5E4F50CF50D7F017EBB
:07026E00001203AF0200497A
:10030100E4F52375104275900FE590640F60757FD9
:100311000A7E001203AFE590640F606875900FAF1D
:1003210090EF24F5601024FE60111460132407700F
:1003310012E4F510800D751001800875100280031C
:100341007510037590F0AF90EF2450601124E060B8
:100351001124F0601124707013851010800E740444
:10036100800674088002740C2510F510E523C394EF
:10037100FA5011E59064F0600B7F027E001203AF2A
:04038100052380E8E8
:010385002255
:03049E00FD7F06D9
:1004A1008F238D241204F67FA01203C8AF231203F9
:0904B100C8AF241203C802052B98
:02045E008F23EA
:100460001204F67FA01203C8AF231203C81204F6C9
:0F0470007FA11203C81204388F2412052BAF246A
:01047F00225A
:1004E600758901758C3C758AB0D2AFD2A9D28C229F
:03000B000204D319
:1004D300C0E0758C3C758AB00514E51470020513F1
:0304E300D0E03234
:0505050012050AD2B648
:08050A007F017E02DEFEDFFA34
:0105120022C6
:0F04F600D2B7120505C2B712050AC2B602050A2F
:0A052B00C2B7120505D2B702050A97
:0203C800AD077F
:1003CA00E4FBFAEDC4131313540124FF92B7ED258D
:1003DA00E0FD120505C2B612050A0BBB08E5D2B745
:1003EA0012050AD2B630B70F0AEAD394C840F6C249
:0E03FA00B612050A7F0022C2B612050A7F0164
:0104080022D1
:10043800E4FDFCD2B712050AD2B612050AEC25E093
:10044800FCA2B7E433420412050AC2B612050A0D2B
:05045800BD08E5AF0442
:01045D00227C
:1002810002000EE493A3F8E493A34003F68001F285
:1002910008DFF48029E493A3F85407240CC8C3337E
:1002A100C4540F4420C8834004F456800146F6DF4D
:1002B100E4800B01020408102040809004BAE47E1F
:1002C100019360BCA3FF543F30E509541FFEE49342
:1002D100A360010ECF54C025E060A840B8E493A309
:1002E100FAE493A3F8E493A3C8C582C8CAC583CA34
:1002F100F0A3C8C582C8CAC583CADFE9DEE780BEEC
:0104D2000029
:00000001FF
