:10000300808386898D909396999C9FA2A5A8ABAE79
:10001300B1B4B7BABCBFC2C5C7CACCCFD1D4D6D886
:10002300DADDDFE1E3E5E7E9EAECEEEFF1F2F4F53F
:10003300F6F7F8F9FAFBFCFDFDFEFFFFFFFFFFFFFC
:10004300FFFFFFFFFFFFFEFDFDFCFBFAF9F8F7F6EC
:10005300F5F4F2F1EFEEECEAE9E7E5E3E1DFDDDA0F
:10006300D8D6D4D1CFCCCAC7C5C2BFBCBAB7B4B136
:10007300AEABA8A5A29F9C999693908D8986838009
:10008300807C7976726F6C696663605D5A575551EF
:100093004E4C484543403D3A383533302E2B2927C3
:1000A3002522201E1C1A1816151311100E0D0B0AEB
:1000B300090807060504030202010000000000000E
:1000C30000000000000001020203040506070809FE
:1000D3000A0B0D0E1011131516181A1C1E202225BB
:1000E30027292B2E303335383A3D404345484C4E73
:1000F3005155575A5D606366696C6F7276797C7E81
:10025100E4F509F50AE50A90000393FD7F401202D7
:1002610079AF117E001202BD050AE50A7002050987
:07027100C3E509940140DE22
:010278002263
:10018F00E4F50812032C1201C220A70D050830A7B1
:10019F00FDE508B40403750801E508B40103120175
:1001AF00F3E508B4020312029BE508B403D8120268
:0301BF005180D399
:01033D00229D
:1002BD00D3EF9400EE940040147D647C00ED1D702E
:0D02CD00011CED4C70F7EF1F70E61E80E382
:0102DA002201
:1001C20020A30974052511F51130A3FD20A409749B
:1001D200FB2511F51130A4FD20A5097405250FF5A5
:1001E2000F30A5FD20A60974FB250FF50F30A6FDE3
:0101F20022EA
:03033600011200B1
:0F030E00D2A012033DD2A112033DC2A002033DB3
:0F031D00C2A012033DD2A112033DD2A002033DA4
:1002F600D2A112033D30A00BE50DC394FA500405BC
:080306000D80F2C2A102033DCB
:0A032C00D2A012033DD2A102033D4E
:100224008F0EE4F50DE50E25E0F50EC2A112033D97
:1002340092A012033DD2A112033D050DE50DC39416
:0D0244000840E2C2A112033DD2A002033D1A
:100279008F0B8D0C12030E7F901202241202F6AF1F
:100289000B1202241202F6AF0C1202241202F60219
:02029900031D43
:03033900010F644D
:1001F300AD107F40120279AF117E001202BD0510CF
:10020300E510D3950F4019E510D394004012151053
:10021300AD107F40120279AF117E001202BD80E75C
:0102230022B8
:1002DB00AD107F40120279AF117E001202BD0510E6
:0B02EB00E510D3950F4003E4F510224E
:10029B00850F10AD107F40120279AF117E00120254
:1002AB00BDE4F510AD107F40120279AF117E000254
:0202BB0002BD82
:03000000020103F7
:0C010300787FE4F6D8FD75811202014AF5
:10010F0002018FE493A3F8E493A34003F68001F276
:10011F0008DFF48029E493A3F85407240CC8C333F1
:10012F00C4540F4420C8834004F456800146F6DFC0
:10013F00E4800B0102040810204080900336E47E17
:10014F00019360BCA3FF543F30E509541FFEE493B5
:10015F00A360010ECF54C025E060A840B8E493A37C
:10016F00FAE493A3F8E493A3C8C582C8CAC583CAA7
:10017F00F0A3C8C582C8CAC583CADFE9DEE780BE5F
:01033C0000C0
:00000001FF
