:020000040800F2
:10000000B8060020390A0008690200086B020008DF
:100010006F02000873020008770200080000000069
:100020000000000000000000000000007B0200084B
:100030007D020008000000007F0200088102000825
:10004000530A0008530A0008530A0008530A00081C
:10005000530A0008530A0008530A0008530A00080C
:10006000530A000829060008530A0008530A00082A
:10007000530A0008530A0008530A0008530A0008EC
:10008000530A0008530A0008530A00080000000041
:10009000000000000000000000000000530A0008FB
:1000A000530A0008530A0008530A0008530A0008BC
:1000B000530A0008F9080008530A0008530A000808
:1000C000530A0008530A0008530A0008530A00089C
:1000D000530A0008530A0008530A000800000000F1
:1000E000530A0008530A0008530A000800000000E1
:1000F000000000000000000000000000530A00089B
:1001000000000000530A0008530A0008530A0008C0
:1001100000000000000000000000000000000000DF
:10012000530A0008530A0008530A0008530A00083B
:10013000530A00080000000000000000000000005A
:10014000000000000000000000000000530A00084A
:10015000530A0008530A0008530A0008530A00080B
:10016000530A0008530A00080000000000000000C5
:10017000000000000000000000000000000000007F
:1001800000000000530A000800000000000000000A
:10019000530A000800F002F800F03CF80AA090E8CA
:1001A000000C82448344AAF10107DA4501D100F032
:1001B00031F8AFF2090EBAE80F0013F0010F18BFC3
:1001C000FB1A43F001031847482100006821000092
:1001D000103A24BF78C878C1FAD8520724BF30C873
:1001E00030C144BF04680C60704700000023002445
:1001F00000250026103A28BF78C1FBD8520728BF37
:1002000030C148BF0B6070471FB502F07CF81FBDBE
:1002100010B510BD02F03EF81146FFF7F5FF00F0F3
:1002200009F802F05CF803B4FFF7F2FF03BC02F038
:1002300063F8000000F006FA00F02AF900F0CCF9AB
:1002400040F633010E2000F02BFB0AE00548007851
:10025000012802D100F079FA03E000F058FB00F029
:1002600056FAF3E730000020704700BFFEE700BFFA
:10027000FEE700BFFEE700BFFEE77047704770472C
:10028000704700000CB50020019000907548006890
:1002900040F480307349086000BF7248006800F481
:1002A000003000900198401C0190009818B9019806
:1002B000B0F5A04FF1D16B48006800F4003010B1E8
:1002C0000120009001E0002000900098012844D116
:1002D00064484030006840F0805062494031086016
:1002E0006148006840F440405F4908605D4808305C
:1002F00000685C49083108600846006808600846E4
:10030000006840F4805008605848091F0860081FC2
:10031000006840F08070091F086000BF5148006805
:1003200000F000700028F9D040F2027050490860D7
:100330004C480830006820F003004A490831086042
:100340000846006840F00200086000BF45480830D9
:10035000006800F00C000828F8D10CBD10B5454825
:10036000006840F47000434908603E48006840F06F
:1003700001003C49086000203A49083108603948CA
:1003800000683D490840374908603C48091D08603D
:10039000081F006820F48020091F086000203149F0
:1003A0000C310860FFF76EFF4FF000603149803973
:1003B000086010BD70B50020002202230024022135
:1003C000284D08352D6805F00C0020B1042806D012
:1003D000082834D107E02A4D2A4E356033E02A4DF3
:1003E000284E35602FE01F4D2D1D2D68C5F380541C
:1003F0001C4D2D1D2D6805F03F0154B1224DB5FB5C
:10040000F1F5184E361D3668C6F3881605FB06F260
:1004100009E01B4DB5FBF1F5124E361D3668C6F3EB
:10042000881605FB06F20F4D2D1D2D68C5F30145FD
:100430006D1C6B00B2FBF3F5124E356003E0104DFE
:10044000104E356000BF00BF064D08352D68C5F35E
:1004500003150E4E705D0B4D2D68C540094E35607D
:1004600070BD000000380240007000400854410791
:10047000003C024088ED00E0FFFFF6FE1030002453
:100480000024F4001C00002000127A00200000204C
:100490001CB50121182000F00BFF0F200090002058
:1004A0008DF8040003208DF8050001208DF8070069
:1004B0006946474800F05EFC7020009001208DF8EE
:1004C000040000208DF8060003208DF805000220AE
:1004D0008DF8070069463E4800F04CFC70213C480E
:1004E00000F0C6FC1CBD10B50F2039494861084614
:1004F00000F0ABFC00F00F000F2801D1002010BD70
:100500000120FCE72DE9F04100270024EF2600251B
:1005100029E02F48466100F098FC00F00F000F28FA
:1005200006D1601CC4B2012000EB4600C6B218E040
:100530000121274800F080FC00B90027022124484F
:1005400000F07AFC00B903270421214800F074FC74
:1005500000B9062708211E4800F06EFC00B90927E3
:1005600003E0681CC5B2042DD3DB00BF3819C0B24C
:10057000BDE8F08110B5044612E00F20144948612F
:1005800014B900F0C4F803E01249087800F089F8C3
:100590000F4800F05AFC00F00F000F2800D100E0D7
:1005A000EBE700BF10BD70B504460025FFF79BFFC9
:1005B00060B1642000F020FAFFF795FF30B1FFF73B
:1005C000A1FF401CC5B22046FFF7D4FF284670BDEE
:1005D00000100240320000200EB5FFF759FF012144
:1005E000880300F0BFFE0321042000F0C6FF0820AE
:1005F000009000208DF804000C208DF805000120EB
:100600008DF80600684600F0B5FA09208DF808005C
:1006100000208DF8090001208DF80A008DF80B00EC
:1006200002A800F02EFA0EBD10B501200449087092
:10063000082000F005FB10B1082000F00CFB10BDF5
:10064000300000201CB501210C2000F031FEFF20FD
:10065000009001208DF8040000208DF80600032092
:100660008DF8050000208DF807006946824800F0EB
:1006700081FBFF21804800F0F9FB40F2FF10009061
:1006800000208DF8070069467C4800F073FBFF21CD
:100690007A4800F0EDFB4FF48071784800F0E6FBFB
:1006A0001CBD70B5054600242EE0AC4214D1062CCA
:1006B00012DAF720704914310860714830F81400DC
:1006C0006E4914310860642000F096F94FF4807090
:1006D0006A491431086015E06A48005D6A4931F8DA
:1006E0001000654914310860654830F8140063490A
:1006F00014310860642000F07FF94FF480705F4986
:1007000014310860601CC4B2082CCEDB70BD10B57B
:10071000002417E05B48005D5B4931F81000564942
:1007200014310860564830F81400544914310860F8
:10073000642000F061F94FF4807050491431086072
:10074000601CC4B2082CE5DB10BD10B500240020ED
:10075000FFF729FF04460A2C09DD4C4800780128E0
:1007600005D1002049490870FFF7D1FF82E04849D0
:100770000878FFF796FF7BE00120FFF714FF04469F
:10078000002C71D00A2C24DA4148007808B9022CD8
:1007900062DC3F480078012805D13A4800780228F9
:1007A00001D1032C58DC3A480078022803D038489D
:1007B0000078042801D1052C4EDC3248344991F9E7
:1007C0000010445432480078401C40B23049087050
:1007D00042E00B2C0CD100212A482D4A92F900202E
:1007E00081542B480078401C40B22949087033E0FE
:1007F0000A2C0DD126480078401E40B224490870CA
:10080000084690F90000002826DA0020087023E04E
:1008100000201F4908701D4908701A48407819497E
:10082000097801EB810100EB41001A490870154875
:10083000C0781449897801EB810100EB4100164929
:100840000870104840790F49097901EB810100EBEC
:100850004100124908700CE00D4890F9000005288D
:1008600002DD06200A49087009490878FFF719FFD8
:1008700082E700BF10BD000000080240000C0240EB
:100880000C00002004000020340000203000002074
:1008900032000020000000200100002002000020A3
:1008A0007FB505460C460121022000F04AFD029565
:1008B000ADF804400020ADF80600ADF80C0001A929
:1008C000474800F040FF01221146454801F0DCFB9B
:1008D0000121434800F0C0FF1D208DF800000120D9
:1008E0008DF8010003208DF8020001208DF803002F
:1008F000684600F0C6F87FBD10B53A480078401C45
:10090000384908700121364801F0E6FB10BD354832
:100910000078632853DD002032490870324800789F
:10092000401C31490870084600783C2837D1002027
:1009300008702E480078401C2C4908700846007842
:100940003C281CD10020087029480078401C284908
:10095000087008460078182801D100200870244843
:1009600000780A2190FBF1F02249087020480078B5
:100970000A2190FBF1F201FB12001E4948701B484E
:1009800000780A2190FBF1F01A4988701748007826
:100990000A2190FBF1F201FB12001649C8701248BF
:1009A00000780A2190FBF1F0124908710E48007896
:1009B0000A2190FBF1F201FB12000E49487109482F
:1009C00000780A2190FBF1F00A4988710548007807
:1009D0000A2190FBF1F201FB12000649C871704731
:1009E000000400400300002002000020010000205D
:1009F0000000002004000020002106E00A2100BFC2
:100A00000A1EA1F1010399B2FAD1021EA0F101035D
:100A100098B2F3D17047002107E04FF4FA5100BFBC
:100A20000A1EA1F1010399B2FAD1021EA0F101033D
:100A300098B2F2D170470000094880470948004742
:100A4000FEE7FEE7FEE7FEE7FEE7FEE7FEE7FEE77E
:100A5000FEE7FEE704480549054A064B70470000DB
:100A60005D03000895010008B8000020B8060020CA
:100A7000B8020020B802002032490143324A116016
:100A8000704770B5002100230F22C4781CB32E4C90
:100A9000246804F4E064C4F5E064C4F30721C1F100
:100AA0000404E3B20A4144789C40E1B284781440E3
:100AB00021430C07210E254C05786155047804F07C
:100AC0001F050124AC4005786D11AD0005F1E0254E
:100AD000C5F8004109E0047804F01F050124AC408A
:100AE0001B4D0678761145F8264070BD194A0A401C
:100AF0000243154B1B1F1A60704739B1124A121D71
:100B000012680243104B1B1D1A6006E00E4A121DAC
:100B1000126882430C4B1B1D1A607047042808D1D1
:100B20004FF0E021096941F004014FF0E02211612A
:100B300007E04FF0E021096921F004014FF0E022C5
:100B4000116170470000FA050CED00E000E400E0E0
:100B500080E100E080FFFF1F002041490860091D7F
:100B60000860091D0860091D08603E483C491431B1
:100B70000860704700213A498279002A3AD00A4633
:100B8000126803689A430B461A600A1D12680368CC
:100B90009A430B1D1A60027911440A6803681A43CC
:100BA0000A602F4A0832126803689A432C4B0833B4
:100BB0001A601A1D126803689A43294B0C331A6095
:100BC0004279102A0ED11A1F126803681A43244B67
:100BD00008331A601A1D126803681A43204B0C333D
:100BE0001A600DE01E49427911440A6803681A43ED
:100BF0000A6005E0027911440A6803689A430A60B2
:100C000070470021016001710C2141710021817147
:100C100070471349103109680143114A10321160BD
:100C20007047014600200E4A143212680A400AB189
:100C3000012000E000207047094914310860704726
:100C400001460020064A143212680A400AB1012007
:100C500000E000207047024914310860704700002E
:100C6000003C0140FFFF7F0010B5044698488442D5
:100C700008D10121084600F086FB0021012000F088
:100C800082FB76E09348844208D10121022000F0E3
:100C90007AFB0021022000F076FB6AE08E48844255
:100CA00008D10121042000F06EFB0021042000F097
:100CB0006AFB5EE08948844208D10121082000F0E7
:100CC00062FB0021082000F05EFB52E08448844271
:100CD00008D10121102000F056FB0021102000F067
:100CE00052FB46E07F48844208D10121202000F0D9
:100CF0004AFB0021202000F046FB3AE07A4884427B
:100D000008D10121402000F03EFB0021402000F0EE
:100D10003AFB2EE07548844208D10121802000F082
:100D200032FB0021802000F02EFB22E0704884423C
:100D300008D10121801500F026FB0021A01500F04C
:100D400022FB16E06B48844208D10121401500F0D7
:100D50001AFB0021601500F016FB0AE06648844289
:100D600007D10121001500F00EFB0021201500F035
:100D70000AFB10BDF0B50A4600210023002400BF85
:100D80003DE0012505FA01F3156805EA03049C42DC
:100D900034D105684F000326BE40B5430560157980
:100DA0004E00B5400668354305601579012D02D027
:100DB0001579022D16D185684F000326BE40B54334
:100DC000856055794E00B540866835438560456835
:100DD00001268E40B5434560456896798E40B6B28F
:100DE00035434560C5684F000326BE40B543C56026
:100DF000D5794E00B540C6683543C560491C1029F9
:100E0000BFD3F0BD4FF6FF71016000210171417148
:100E10008171C171704708B54FF480320092009A19
:100E20000A430092009AC261C161009AC261C2691C
:100E30000092C269009208BD0246002013690B406F
:100E40000BB1012000E0002070470146086980B224
:100E500070470246002053690B400BB1012000E0AF
:100E6000002070470146486980B27047018370478F
:100E7000418370470AB1018300E0418370474161BB
:100E8000704742694A4042617047F0B50023002430
:100E90004D07ED0E02FA05F3CE1000F1200555F8CE
:100EA00026504E07F70E0F26BE40B543CF1000F177
:100EB000200646F82750CE1000F1200555F82650A0
:100EC00045EA0304CE1000F1200545F82640F0BDA8
:100ED000000002400004024000080240000C0240F2
:100EE000001002400014024000180240001C0240A2
:100EF000002002400024024000280240F948006817
:100F000040F00100F74908600020F6490831086008
:100F1000F4480068F4490840F2490860F348091DA4
:100F20000860F348EF4984310860F0481038091D23
:100F30000860EC48006820F48020EA49086000203E
:100F4000E8490C310860E7498C310860704700219E
:100F5000E44A921C117011460870704710B50146A2
:100F60000022002300204A11012A02D1DD4C23680F
:100F700008E0022A03D1DB4C7034236802E0D94C2C
:100F80007434236801F01F02012494401C400CB10A
:100F9000012000E0002010BD38B5002000900024A2
:100FA000002500BF3120FFF7D9FF05460098401CFF
:100FB00000900098B0F5A04F01D0002DF2D0312064
:100FC000FFF7CCFF08B1012400E00024204638BD23
:100FD00001460020C34A106820F0F80040EAC10032
:100FE00010607047C349086070470021BD4A7032E5
:100FF00011701170012802D004280AD104E00121E7
:10100000B84A7032117005E00521B64A703211708D
:1010100000E000BF00BF7047B7490860704770B577
:10102000049C41EA82150126C6EB530645EA0645B3
:10103000054345EA0465AB4E361D356070BDAD49CC
:1010400008667047820142EA0172A64B84331A6037
:101050007047A8498866704710B5830143EA016369
:1010600043EA02739F4C8834236010BDA14908678E
:101070007047A049C864704702460020994B083366
:10108000186820F0EC6042EA01031843954B0833DE
:101090001860704702460020924B0833186820F011
:1010A000784042EA010318438E4B083318607047BA
:1010B000014600208B4A0832106820F003000843E4
:1010C0001060704787480830006800F00C007047D7
:1010D00001460020834A0832106820F0F0000843DF
:1010E00010607047014600207E4A0832106820F4E4
:1010F000E05008431060704701460020794A0832EA
:10110000106820F4604040EAC10010607047F0B5FC
:10111000002100220024022500260223714F0837F7
:101120003F6807F00C0121B1042905D0082937D107
:1011300005E0724F076036E0714F076033E0694F9A
:101140003F1D3F68C7F38056664F3F1D3F6807F05D
:101150003F036EB16A4FB7FBF3F7DFF888C10CF1BC
:10116000040CDCF800C0CCF3881C07FB0CF40CE08A
:10117000624FB7FBF3F7DFF86CC10CF1040CDCF83D
:1011800000C0CCF3881C07FB0CF4564F3F1D3F6892
:10119000C7F301477F1C7D00B4FBF5F7076002E051
:1011A000564F076000BF00BF4E4F08373F6807F03B
:1011B000F0010909534F7A5C0768D7404760494FEF
:1011C00008373F6807F4E051890A4E4F7A5C476858
:1011D000D7408760434F08373F6807F46041490BA9
:1011E000484F7A5C4768D740C760F0BD002100F4E3
:1011F0004072B2F5407F0AD13A4A0832116821F4B0
:10120000F811414A02401143364A08321160354A0A
:1012100070321268C0F30B031A43324B70331A60FA
:101220007047354944390860704733494039086090
:10123000704736490860704701460020294A8C32C1
:10124000106820F01F004A1E1043264A8C3210609E
:10125000704701460020234A8C32106820F4F85071
:101260004A1E40EA02201F4A8C3210607047014635
:1012700000201C4A8C32106820F440100843106093
:10128000704701460020174A8C32106820F4400055
:1012900008431060704701460020124A8C321068E3
:1012A00020F44030084310607047194908607047C7
:1012B00039B10C4A3032126802430A4B30331A609B
:1012C00006E0084A303212688243064B30331A6017
:1012D0007047F9B1034A343212680243014B343388
:1012E0001A601CE000380240FFFFF6EA10300024CC
:1012F0000030002000004742800E47420024F400E6
:1013000000127A0048000020FFFCFF0F5C014742FA
:10131000E01147428F4A126882438E4B1A60704731
:1013200039B18C4A121D126802438A4B1B1D1A6088
:1013300006E0884A121D12688243864B1B1D1A6004
:10134000704739B1834A0C3212680243814B0C3327
:101350001A6006E07F4A0C32126882437D4B0C33E0
:101360001A60704739B17B4A103212680243794BD8
:1013700010331A6006E0774A103212688243754BC8
:1013800010331A60704739B1724A243A1268024326
:10139000704B243B1A6006E06E4A243A126882437E
:1013A0006C4B243B1A60704739B16A4A203A126884
:1013B0000243684B203B1A6006E0664A203A1268F6
:1013C0008243644B203B1A60704739B1614A1C3A32
:1013D000126802435F4B1C3B1A6006E05D4A1C3AF0
:1013E000126882435B4B1C3B1A60704739B1594A03
:1013F000143A12680243574B143B1A6006E0554AF0
:10140000143A12688243534B143B1A60704739B147
:10141000504A103A126802434E4B103B1A6006E0E5
:101420004C4A103A126882434A4B103B1A6070478C
:1014300039B1484A1C3212680243464B1C331A60C9
:1014400006E0444A1C3212688243424B1C331A6045
:10145000704739B13F4A2032126802433D4B203376
:101460001A6006E03B4A203212688243394B20332F
:101470001A60704739B1374A243212680243354B3B
:1014800024331A6006E0334A243212688243314B17
:1014900024331A60704739B12E4A2C321268024345
:1014A0002C4B2C331A6006E02A4A2C3212688243F5
:1014B000284B2C331A60704739B1264A30321268F3
:1014C0000243244B30331A6006E0224A303212685D
:1014D0008243204B30331A607047012808D11D49E0
:1014E0003C31096841F008011A4A3C32116007E0BA
:1014F00018493C31096821F00801164A3C32116054
:10150000704739B1134A273A12780243114B273BEF
:101510001A7006E00F4A273A127882430D4B273B98
:101520001A7070470B484030006840F080700949DD
:1015300040310860704701460020064A283A126888
:101540000A400AB1012000E0002070470149263915
:10155000087070473438024010B501218803FFF746
:1015600056FF00214FF48040FFF751FF10BD1C498A
:10157000086070471B490862704730B500228B072E
:101580001C0F0F2303FA04F2154B08338C1053F889
:1015900024309343124C08348D1044F825302346F0
:1015A0008C1053F824308C07240F00FA04F42343E2
:1015B0000B4C08348D1044F8253030BD0949DC311E
:1015C00008607047084908607047002004492031CE
:1015D000096801F4807109B1012000E00020704722
:1015E00000380140000027420004274210B504469D
:1015F000FE48844208D101210846FFF708FF002178
:101600000120FFF704FF9DE0B4F1804F08D10121D4
:101610000846FFF7EBFE00210120FFF7E7FE91E00F
:10162000F348844208D101210220FFF7DFFE0021A8
:101630000220FFF7DBFE85E0EE48844208D101215D
:101640000420FFF7D3FE00210420FFF7CFFE79E04E
:10165000E948844208D101210820FFF7C7FE002194
:101660000820FFF7C3FE6DE0E448844208D1012161
:101670001020FFF7BBFE00211020FFF7B7FE61E04E
:10168000DF48844208D101212020FFF7AFFE00216E
:101690002020FFF7ABFE55E0DA48844208D1012153
:1016A0000220FFF7B4FE00210220FFF7B0FE49E060
:1016B000D548844209D101210804FFF7A8FE002182
:1016C0004FF48030FFF7A3FE3CE0D048844209D1BC
:1016D00001214804FFF79BFE00214FF40030FFF783
:1016E00096FE2FE0CA48844209D101218804FFF701
:1016F0008EFE00214FF48020FFF789FE22E0C548CE
:10170000844208D101214020FFF770FE00214020D3
:10171000FFF76CFE16E0C048844208D1012180200A
:10172000FFF764FE00218020FFF760FE0AE0BB485F
:10173000844207D101218015FFF758FE0021A01532
:10174000FFF754FE10BD00220288A84B98420ED02D
:10175000AC4B98420BD0B0F1804F08D0A44B9842CC
:1017600005D0A44B984202D0A34B984204D14FF627
:101770008F731A404B881A43A04B984207D0A04B56
:10178000984204D04FF6FF431A400B891A43028057
:101790004B68C3620B880385944B984202D0994BE7
:1017A000984201D18B7A03860123838270474FF0E0
:1017B000FF314160002101800181418081727047C9
:1017C0000185828270470A46002101884FF68F7397
:1017D000194011430180704741627047C1627047F0
:1017E0000146486A70470146088D704721B102885A
:1017F00042F00202028004E002884FF6FD731A40B4
:101800000280704721B1028842F00402028004E0A5
:1018100002884FF6FB731A400280704721B102889C
:1018200042F08002028004E002884FF67F731A4083
:101830000280704702884FF6F7731A4002800288D0
:101840000A430280704702884FF6FF431A40028025
:1018500002880A430280704721B1028842F00102E7
:10186000028004E002884FF6FE731A40028070473F
:1018700070B5002400220023058C4FF6FE7635401B
:101880000584028C8388048B4FF68F752C40B51E1F
:101890002C400D882C43751E2A408D892A434D8883
:1018A0002A43524DA84202D0564DA84213D14FF6BA
:1018B000F7752A40CD892A434FF6FB752A408D885B
:1018C0002A434FF6FF652B404FF6FF552B400D8AFC
:1018D0002B434D8A2B43838004838D6845630284A8
:1018E00070BD70B5002400220023058C4FF6EF7602
:1018F00035400584028C8388048B48F6FF752C40A4
:101900004FF6FF452C400D884FF6FF7606EA052579
:101910002C434FF6DF752A408D8906EA05152A43C8
:101920004D8806EA05152A43304DA84202D0354DB0
:10193000A8421DD14FF67F752A40CD894FF6FF761C
:1019400006EA05152A434FF6BF752A408D8806EA38
:1019500005152A434FF6FF352B404FF2FF752B40FC
:101960000D8A06EA85052B434D8A06EA85052B4339
:10197000838004838D688563028470BD70B5002404
:1019800000220023058C4FF6FF6635400584028C4B
:101990008388848B4FF68F752C404FF6FC752C4056
:1019A0000D882C434FF6FF552A408D894FF6FF7660
:1019B00006EA05252A434D8806EA05252A430B4DEC
:1019C000A84202D00F4DA84238D14FF2FF752A40ED
:1019D000CD894FF6FF7606EA05252A434FF6FF35F7
:1019E0002A408D8806EA05252A4319E000000140B7
:1019F0000004004000080040000C004000100040BF
:101A00000014004000040140004001400044014037
:101A10000048014000180040001C00400020004029
:101A20004EF6FF752B404DF6FF752B400D8A06EAEA
:101A300005152B434D8A06EA05152B4383808483C5
:101A40008D68C563028470BD70B500220023002438
:101A5000058C4EF6FF7635400584038C8488828B96
:101A600048F6FF752A404FF6FF452A400D884FF68D
:101A7000FF7606EA05252A434DF6FF752B408D8932
:101A800006EA05352B434D8806EA05352B43FE4D06
:101A9000A84202D0FD4DA84208D14BF6FF752C405C
:101AA0000D8A4FF6FF7606EA85152C4384808283E3
:101AB0008D680564038470BD0021018041808180B0
:101AC00081608181C18101824182704770B5034686
:101AD000002000241846183001258D40ACB21D8C22
:101AE000A5431D8409B108290AD100EB61000568EE
:101AF0004FF68F76354005600568154305600FE0A9
:101B00000D1FC5F34E052844056848F6FF7635409D
:101B1000056005684FF6FF7606EA02263543056044
:101B200070BD4163704781637047C1637047016452
:101B300070470A460021018B4FF68F7319401143FD
:101B4000018370470A460021018B48F6FF73194054
:101B50004FF6FF7303EA02231943018370470A46D5
:101B60000021818B4FF68F73194011438183704799
:101B70000A460021818B48F6FF7319404FF6FF7328
:101B800003EA02231943818370470A460021018B2F
:101B90004FF6F77319401143018370470A4600213D
:101BA000018B4FF2FF7319404FF6FF7303EA0223D4
:101BB0001943018370470A460021818B4FF6F77362
:101BC00019401143818370470A460021818B4FF2EF
:101BD000FF7319404FF6FF7303EA02231943818311
:101BE00070470A460021018B4FF6FB7319401143E1
:101BF000018370470A460021018B4FF6FF331940DD
:101C00004FF6FF7303EA02231943018370470A4624
:101C10000021818B4FF6FB7319401143818370477C
:101C20000A460021818B4FF6FF3319404FF6FF73B0
:101C300003EA02231943818370470A460021018B7E
:101C40004FF67F7319401143018370470A46002104
:101C5000018BC1F30E014FF6FF7303EA0223194310
:101C6000018370470A460021818B4FF67F7319402C
:101C70001143818370470A460021818BC1F30E0115
:101C80004FF6FF7303EA02231943818370470A4624
:101C90000021018C4FF6FD731940114301847047F8
:101CA0000A460021018C4FF6F77319401143018455
:101CB00070470A460021018C4FF6DF7319404FF63A
:101CC000FF7303EA02131943018470470A46002197
:101CD000018C4FF67F7319404FF6FF7303EA02132E
:101CE0001943018470470A460021018C4FF6FF53C7
:101CF00019404FF6FF7303EA02231943018470472A
:101D00000A460021018C4FF2FF7319404FF6FF7312
:101D100003EA02231943018470470A460021018C1B
:101D20004DF6FF7319404FF6FF7303EA0233194370
:101D30000184704730B5002301248C40A3B2048C89
:101D40009C430484048C02FA01F5ADB22C43048454
:101D500030BD30B5002304248C40A3B2048C9C43D6
:101D60000484048C02FA01F5ADB22C43048430BD26
:101D7000828B4FF2FF331A408283828B4FF6FF73C0
:101D800003EA01231A4382837047F0B50C461546D7
:101D9000002100220026078C4EF6FF7C07EA0C0784
:101DA0000784818B028C4FF6FF7707EA043640F6F2
:101DB000FF4739404FF6FF7707EA052739434FF6CB
:101DC000FF7707EA0337394345F6FF773A4046F491
:101DD00080573A4381830284F0BD828B4FF6F373C0
:101DE0001A408283828B0A4382837047F0B50C4687
:101DF0001546002100220026078C4FF6FF6C07EAEB
:101E00000C070784818B028C4FF6FF7707EA0426C4
:101E10004FF60C7739404FF6FF7707EA03172F4349
:101E200039434FF2FF573A4046F480773A43818373
:101E30000284F0BD028B4FF2FF331A400283028B03
:101E40004FF6FF7303EA01231A4302837047F0B58C
:101E50000C461546002100220026078C4FF6EF7C29
:101E600007EA0C070784018B028C4FF6FF7707EA1D
:101E7000041640F6FF4739404FF6FF7707EA03376D
:101E800039434FF6FF7703E00000014000040140B2
:101E900007EA052739434FF65F773A4046F01007C7
:101EA0003A4301830284F0BD028B4FF6F3731A406C
:101EB0000283028B0A4302837047F0B50C46154635
:101EC00000210022068C4FF6FE773E400684018BEF
:101ED000028C4FF60C7631407E1C06EA03162E4328
:101EE00031434FF6F576324044F001063243018328
:101EF0000284F0BD70B505460C46208850B9238990
:101F0000A28861882846FFF7D8FFE1882846FFF7B6
:101F1000CBFF25E0208804280AD12389A288618884
:101F20002846FFF794FFE1882846FFF783FF17E074
:101F3000208808280AD12389A28861882846FFF7CB
:101F400055FFE1882846FFF748FF09E02389A2886A
:101F500061882846FFF719FFE1882846FFF708FF48
:101F600070BD002101804180012181800021C1805C
:101F7000018170472DE9F04105460C4600260127F6
:101F8000608808B9022600E00026A088012801D157
:101F9000022700E001272088A0B92389A288618850
:101FA0002846FFF78AFFE1882846FFF77DFF23894F
:101FB0003A4631462846FFF74AFFE1882846FFF7B0
:101FC00039FF13E02389A28861882846FFF73FFF85
:101FD000E1882846FFF72EFF23893A4631462846F6
:101FE000FFF76BFFE1882846FFF75EFFBDE8F08151
:101FF0000146486B70470146886B70470146C86BC5
:1020000070470146086C70470A884B881A438B88D2
:102010001A43CB881A430B891A434B891A438B897D
:102020001A43A0F84420704700210180418081803C
:10203000C180018141818181704731B1B0F8442074
:1020400042F40042A0F8442005E0B0F84420C2F376
:102050000E02A0F84420704721B1828842F00402A9
:10206000828004E082884FF6FB731A4082807047BA
:1020700021B1828842F00102828004E082884FF61A
:10208000FE731A40828070471AB183890B438381A3
:1020900002E083898B4383817047818270470246C7
:1020A0000020138A0B400BB1012000E00020704794
:1020B000CA430282704730B5024600200023002444
:1020C000158A05EA0103958905EA010413B10CB1EB
:1020D000012000E0002030BDCA430282704741EA7F
:1020E0000203A0F8483070471AB183890B438381FB
:1020F00002E083898B438381704721B1828842F05B
:102100000802828004E082884FF6F7731A408280CA
:10211000704701894FF6F8721140018170470A46F5
:10212000002101894FF68F731940114301817047D7
:1021300030B504460D4629462046FFF7F0FF2089BA
:1021400040F00700208130BD2DE9F04104460D46E6
:1021500016461F46602D06D13B46012231462046D9
:10216000FFF775FE05E03B46012231462046FFF7AA
:10217000A4FE29462046FFF7D2FF208940F0070041
:102180002081BDE8F08130B50C4600210189C9B23B
:102190004FF6FF7505EA03251543254329430181C1
:1021A00030BD2DE9F04105460E46174698460024FD
:1021B00043463A4631462846FFF7E5FF2C894FF65D
:1021C000F870044044F007044FF68F70044044F068
:1021D00070042C81BDE8F081F0B504460D4616462A
:1021E0001F463B46324629462046FFF7CCFF208952
:1021F00040F480402081F0BD82884FF68F731A40F2
:10220000828082880A438280704702894FF6F87381
:102210001A40028102890A430281704702894FF6FF
:102220007F731A40028102890A4302817047F0B528
:102230000C4615461E460021002200230189028B10
:10224000038C4FF6F877394021434FF6FC473A406C
:1022500040F201173A434FF6DD773B404FF6FF77E8
:1022600007EA06172F433B43018102830384F0BD35
:1022700021B1828842F08002828004E082884FF699
:102280007F731A4082807047A0F8501070477047E3
:1022900070477047754600F02BF8AE46050069465A
:1022A000534620F00700854618B020B5FEF7D2FB54
:1022B000BDE820404FF000064FF000074FF0000847
:1022C0004FF0000B21F00701AC46ACE8C009ACE8C8
:1022D000C009ACE8C009ACE8C0098D46704710B52C
:1022E0000446AFF300802046BDE81040FDF79BBFD9
:1022F000004870475800002001491820ABBEFEE797
:102300002600020070474FF04070E1EE100A70475F
:10231000302300080000002058000000D001000811
:10232000882300085800002060060000EC01000827
:102330000000000000000000000000000101020198
:1023400004010801100120014001800100BD0105C8
:102350000000000000000000010203040607080955
:1023600000000000C000F900A400B0009900920035
:102370008200F800800090000000000001020304C9
:0823800001020304060708092D
:040000050800019559
:00000001FF
