:1005A300323020202D20202D2020205765656B0020
:1005B3002020202020203A20203A20202020202004
:0105C3000037
:10058100070E13060B170D0E0007168C8A8886843A
:100591008280010801010C000121000115000109FF
:0105A1000059
:0A05F800C291C2908F80D2907F055F
:0D060200EFD3940040077E6EDEFE1F80F3F4
:01060F0022C8
:10063900E4FEC294EF139295EFC313FFD2940EBE5A
:0206490008F0B7
:01064B00228C
:1004D600FD7F8E1204EEAF0B120610EF4480FD7FF7
:0804E600801204EE7D807F8E80
:1004EE00C296C294D29600120639AF05120639C2D0
:0704FE009600D295D2942272
:10053200C296C294D29600120639E4FFEDC313FDAF
:10054200C294309503430580D2940FBF08EEC29641
:0A05520000C29400D294D295AF05C8
:01055C00227C
:10049500E4FC740E2CF8E6FF75F00A84FEEF75F0A7
:1004A5000A84AFF0EEC454F02FF60CBC07E4E4FD6B
:1004B5007F8E1204EEE4FC74162CF8E6FF740E2C05
:1004C500F8E6FD1204EE0CBC07ED7D807F8E02047C
:0104D500EE38
:08065C00C2921205F8C29022BF
:08064C00FF12065CEC2430FFF4
:08065400D2921205F8C29022B7
:10044E007F3812065C7F0C12065C7F0612065C7FFC
:10045E000112065C7F8012065CE4FDED9005A3930D
:10046E00FF1206547F021206020DBD10EE7FC0125F
:10047E00065CE4FDED9005B393FF1206547F021265
:06048E0006020DBD10EE98
:010494002245
:1005C400ED75F00A84FCED75F00A84ADF0EF24803B
:0A05D40012064CED2430FF0206541D
:1005DE00ED75F00A84FCED75F00A84ADF0EF24C4DD
:0A05EE0012064CED2430FF02065403
:0306250012053289
:10062800EFC4540FFEEF540FFDEE75F00AA42DFF32
:01063800229F
:1003FF00AD077F8F12065CED14B4070050409004D8
:10040F001B75F003A4C58325F0C583730204300266
:10041F00043402043802043C02044002044402047F
:10042F00487F3180167F3280127F33800E7F348079
:0F043F000A7F3580067F3680027F3712065422EF
:10061000EF75F00A84540FC454F0FEEF75F00A84AD
:04062000E5F04EFFB4
:0106240022B3
:0301D30012065CB5
:1001D60030B2030202757F3212060275210130B277
:1001E600FDE50C14B4070040030202759002007589
:1001F600F003A4C58325F0C583730202150202230A
:1002060002023102023F02024D02025B020269054E
:100216000BE50BD3943B4057E4F50B8052051DE5E7
:100226001DD3943B4049E4F51D8044051EE51ED3CD
:100236009417403BE4F51E8036050DE50DD3940773
:10024600402D750D0180280520E520D3941F401F01
:10025600752001801A051FE51FD3940C4011751FE8
:1002660001800C050AE50AD394634003E4F50A30DD
:10027600B3030203037F3212060275150130B3FD84
:10028600E50C14B40700507590029C75F003A4C5E4
:100296008325F0C583730202B10202BC0202C702C3
:1002A60002D20202DF0202EC0202F9150BE50BF4A0
:1002B600704B750B3B22151DE51DF47040751D3BFB
:1002C60022151EE50BF47035751E1722150DE50D6A
:1002D600C394015028750D07221520E520C394010B
:1002E600501B75201F22151FE51FC39401500E7564
:0E02F6001F0C22150AE50AB4FF03750A6322E5
:10055D0020B4207F3212060220B41830B4FD050CF1
:10056D007F0F12065CE50864017008750901F50836
:04057D001204D6226C
:1000030012055DE50C70030201D214B4080040032D
:100013000201D290002475F003A4C58325F0C583A3
:100023007302003C02006402009B0200D502010D32
:100033000201470201810201B47FCB1201D3E52102
:100043007004E5156014E4F521F5151204D6AD0B23
:100053007F061205DE7FC712065CE50C640260D9D9
:10006300227FC81201D3E5217004E5156023E4F56E
:1000730021F515FD7F8E1204EEAF1D120610AD079C
:100083007F821204E7AD1D7F031205DE7FC41206D3
:100093005CE50C640360CA227FC512065C1201D6BC
:1000A300E5217004E5156023E4F521F515FD7F8E48
:1000B3001204EEAF1E120610AD077F841204E7ADE3
:1000C3001EE4FF1205DE7FC112065CE50C640460CA
:1000D300C7227F8F12065C1201D6E5217004E51555
:1000E3006021E4F521F515FD7F8E1204EEAF0D12AC
:1000F3000610AD077F8A1204E7AF0D1203FF7F8E50
:1001030012065CE50C640560C9227F8912065C1245
:1001130001D6E5217004E5156023E4F521F515FD0D
:100123007F8E1204EEAF20120610AD077F861204F5
:10013300E7AD207F081205C47F8912065CE50C64D5
:100143000660C7227F8612065C1201D6E521700481
:10015300E5156023E4F521F515FD7F8E1204EEAF5E
:100163001F120610AD077F881204E7AD1F7F05122B
:1001730005C47F8612065CE50C640760C7227F8393
:1001830012065C1201D6E5217004E5156041E4F521
:1001930021F515FD7F8E1204EEAF0A120610AD078E
:1001A3007F8C1204E7AD0A7F021205C47F83020627
:1001B3005C7F0C12065C750801E4F509F50CFD7F04
:1001C3008E1204EEAF0B120610EF547F1204E422DA
:100390007F811206258F0B7F831206258F1D7F8597
:1003A0001205321206288F1E7F8712053212062888
:1003B0008F207F891205321206288F1F7F8D12052C
:1003C000321206288F0A7F8B1205321206288F0DF3
:1003D000AD0B7F061205DEAD1D7F031205DEAD1EDF
:1003E000E4FF1205DEAD207F081205C4AD1F7F05B6
:0F03F0001205C4AD0A7F021205C4AF0D0203FF50
:10050500C2907580FF12044E7F81120532EFC4132D
:10051500131354016003120495E509B40103120095
:0D05250003E50970F412039012055D80ECEF
:03000000020304F4
:0C030400787FE4F6D8FD75812102034BE0
:10031000020505E493A3F8E493A34003F68001F2F9
:1003200008DFF48029E493A3F85407240CC8C333EE
:10033000C4540F4420C8834004F456800146F6DFBD
:10034000E4800B0102040810204080900581E47EC7
:10035000019360BCA3FF543F30E509541FFEE493B2
:10036000A360010ECF54C025E060A840B8E493A379
:10037000FAE493A3F8E493A3C8C582C8CAC583CAA4
:10038000F0A3C8C582C8CAC583CADFE9DEE780BE5C
:0105A2000058
:00000001FF
