:0300000002000EED
:0C000E00787FE4F6D8FD758120020055D3
:0B021D00C100010800010900010A00F7
:10009A00E508701EE5905407FFBF0704050A8003B0
:1000AA00E4F50AE50AC394054023E4F50A75080154
:1000BA00801BE590540764076004050A8003E4F591
:1000CA000AE50AC394054005E4F50AF50875111412
:1000DA00E5087021E509B4011CE590540724FD6088
:1000EA001124FE600814700D751101800875110243
:0800FA0080037511038508095C
:0101020022DA
:0A022900D2AF758901D2A9D28C2250
:1001FF00E50DB40104B2A2B2A3E510B40102B2A19D
:0E020F00E512B40108C2A1309303750D01225F
:1001BC00E511B40103750D01E511B40203751001CD
:1001CC00E511B4030EE4F50DF512F510F50EF50F6F
:0401DC0075A0FF22E9
:1001E00012022912009AA293B392A0E511C3940AB5
:0F01F00050031201BC3000EBC2001201FF80E48B
:03000B00020103EC
:10010300C0E0C0F0C0D075D000C000C004C005C0BE
:0301130006C0071C
:10011600758C3C758AB0050CE50C7002050BAE0BB0
:10012600FF7C007D06120167ED4C7002D200E510DF
:10013600B4011D050FE50F7002050EC39458E50EB8
:100146009402400C751201751000750E00750F00B3
:10015600D007D006D005D004D000D0D0D0F0D0E063
:010166003266
:10001A000201E0E493A3F8E493A34003F68001F21B
:10002A0008DFF48029E493A3F85407240CC8C333E7
:10003A00C4540F4420C8834004F456800146F6DFB6
:10004A00E4800B010204081020408090021DE47E27
:10005A00019360BCA3FF543F30E509541FFEE493AB
:10006A00A360010ECF54C025E060A840B8E493A372
:10007A00FAE493A3F8E493A3C8C582C8CAC583CA9D
:10008A00F0A3C8C582C8CAC583CADFE9DEE780BE55
:0102280000D5
:10016700BC000BBE0029EF8DF084FFADF022E4CC7C
:10017700F875F008EF2FFFEE33FEEC33FCEE9DEC45
:10018700984005FCEE9DFE0FD5F0E9E4CEFD22ED8B
:10019700F8F5F0EE8420D21CFEADF075F008EF2FD5
:1001A700FFED33FD4007985006D5F0F222C398FDC6
:0501B7000FD5F0EA2263
:00000001FF
