:100352004672657175656E63792069733A20202053
:10036200303030303030303020487A202020202089
:0A0372003031323334353637383974
:03000300010A00EF
:0703D3007F381203B87F051B
:1003DA00AD071FED600BE4FEEEC3947850F20E8079
:0103EA00F71B
:0103EB0022EF
:10037C00C295C293C294D293C294D2958FA0C295C7
:0F038C00C293C294E4F50A050AE50AB414F922F3
:1003B800C295C293C294D2958FA0C293C294C2959B
:0B03C800E4F50A050AE50AB414F92266
:0303EC00E493FD9A
:0E03EF00AE05EF2480FF1203B8AF0602037CB8
:10029100E4FC1203D31203D31203D37F011203D55B
:1002A1007F061203B81F1203DA7F381203B87F0CDE
:1002B1001203B87F401203B8AF04ECFB3395E0FAA8
:1002C10074522BF58274033AF583E493FD1203EF24
:1002D1000CBC10E4E4FCEC2440FFECFB3395E0FAA9
:1002E10074622BF58274033AF583E493FD1203EFF4
:0402F1000CBC10E24F
:0102F50022E6
:10001E00AB07AA067C007D0A12016174722DF5826F
:10002E0074033CF5837F471203EC7C007D0AAF031B
:10003E00AE02120161AA06AB077C007D0A120161B5
:10004E0074722DF58274033CF5837F461203EC7CAB
:10005E00007D0AAF03AE02120161AA06AB077C0057
:10006E007D0A12016174722DF58274033CF583E4EE
:10007E0093FD7F451203EF7C007D0AAF03AE0212A3
:10008E000161AA06AB077C007D0A12016174722D14
:10009E00F58274033CF583E493FD7F441203EF7CF9
:1000AE00007D0AAF03AE02120161AA06AB077C0007
:1000BE007D0A12016174722DF58274033CF583E49E
:1000CE0093FD7F431203EF7C007D0AAF03AE021255
:1000DE000161AA06AB077C007D0A12016174722DC4
:1000EE00F58274033CF583E493FD7F421203EF7CAB
:1000FE00007D0AAF03AE02120161AA06AB077C00B7
:10010E007D0A12016174722DF58274033CF583E44D
:10011E0093FD7F411203EF7C007D0AAF03AE021206
:10012E000161AA06AB077C007D0A12016174722D73
:10013E00F58274033CF583E493FD7F401203EF7C5C
:10014E00007D0AAF03AE02120161AA06AB077FC89B
:03015E000203DABF
:1002F600758915E4F58CF58A758D3C758BBBD28EA8
:10030600D2A9D2ABD2AFD28C1202913000FDC2007C
:10031600AF08E4FCFDFEFBFA7901F81201B6AD0761
:10032600AC06AF8CEFFEE42DFFEE3CFEAD8A7C0002
:10033600EF2DF50CEC3EF50BE4F509F508F58CF51B
:0C0346008AD28CAF0CAE0B12001E80BFE0
:03000B00020007E9
:03000700050832B7
:03001B0002039B42
:10039B00C0E0C0D0758D3C758B830509E509B4149D
:0D03AB0007C28C750900D200D0D0D0E0321E
:03000000020205F4
:0C020500787FE4F6D8FD75812002024CE1
:10016100BC000BBE0029EF8DF084FFADF022E4CC82
:10017100F875F008EF2FFFEE33FEEC33FCEE9DEC4B
:10018100984005FCEE9DFE0FD5F0E9E4CEFD22ED91
:10019100F8F5F0EE8420D21CFEADF075F008EF2FDB
:1001A100FFED33FD4007985006D5F0F222C398FDCC
:0501B1000FD5F0EA2269
:1001B600E88FF0A4CC8BF0A42CFCE98EF0A42CFCE8
:1001C6008AF0EDA42CFCEA8EF0A4CDA8F08BF0A466
:1001D6002DCC3825F0FDE98FF0A42CCD35F0FCEBC5
:1001E6008EF0A4FEA9F0EB8FF0A4CFC5F02ECD398A
:0F01F600FEE43CFCEAA42DCE35F0FDE43CFC22F7
:100211000202F6E493A3F8E493A34003F68001F20B
:1002210008DFF48029E493A3F85407240CC8C333EE
:10023100C4540F4420C8834004F456800146F6DFBD
:10024100E4800B0102040810204080900003E47E4A
:10025100019360BCA3FF543F30E509541FFEE493B2
:10026100A360010ECF54C025E060A840B8E493A379
:10027100FAE493A3F8E493A3C8C582C8CAC583CAA4
:10028100F0A3C8C582C8CAC583CADFE9DEE780BE5C
:0100060000F9
:00000001FF
