:10031200101E50617373776F72643A000000000020
:100322000000100C000000000000000000000000AF
:100332000000000010340000000000000000000077
:100342000000000000001044000100010002000251
:10035200000300030004000402300000021C00003D
:1003620002080010020A0000022E00000232000001
:070472001204C37F327E007B
:10047900D3EF9400EE9400400B7D6EDDFEEF1F700C
:04048900EF1E80ECF6
:01048D00224C
:0B04C300C2A2C2A38F80D2B7C2B72232
:0B04CE00D2A2C2A38F80D2B7C2B72217
:06042D008B548A5589562C
:10043300120472E4FCAB54AA55A9568C827583004E
:0E0443001203D9FF1204CE1204750CBC10E790
:010451002288
:100452007F301204727F381204727F011204727F9D
:10046200061204727F0C1204C37F327E00020479EA
:10048E007B007A00791E7F8012042D7B007A007922
:06049E000C7FC002042DDA
:0C04B6007F017E267D82DDFEDEFADFF68F
:0104C2002217
:10018A00E4F55475900FE590640F700302021B1298
:10019A0004B6E590640F607975900FAF90EF24F57F
:1001AA00601224FE601614601B2407701DE4F50813
:1001BA00F5098016750800750901800E7508007525
:1001CA00090280067508007509037590F0AF90EF73
:1001DA002450601424E0601424F060142470701B0E
:1001EA00850808850909801374048006740880024A
:1001FA00740C2509F509E43508F508C3E55464804B
:10020A00948A500DE59064F060071204B605548094
:01021A00EAF9
:01021B0022C0
:10000E00E508600302017DE509B40C00400302011E
:10001E007D900026F828287302004A02006702002D
:10002E00850200A30200C10200DF0200FD02011AD8
:10003E0002013702015402017D020171AF31740CCD
:10004E002FF87630EF25E02434F8E4F608F6053183
:10005E00E531705C053002017DAF31740C2FF876FE
:10006E0031EF25E02434F876000876010531E531CC
:10007E007002053002017DAF31740C2FF87632EF2D
:10008E0025E02434F876000876020531E531700259
:10009E00053002017DAF31740C2FF87633EF25E079
:1000AE002434F876000876030531E5317002053008
:1000BE0002017DAF31740C2FF87634EF25E0243435
:1000CE00F876000876040531E5317002053002013C
:1000DE007DAF31740C2FF87635EF25E02434F876A9
:1000EE00000876050531E5317002053002017DAF5D
:1000FE0031740C2FF87636EF25E02434F8760008AC
:10010E0076060531E531706705308063AF31740CCA
:10011E002FF87637EF25E02434F8760008760705B9
:10012E0031E531704A05308046AF31740C2FF876C8
:10013E0038EF25E02434F876000876080531E531ED
:10014E00702D05308029AF31740C2FF87639EF25DC
:10015E00E02434F876000876090531E53170100593
:10016E0030800C752A53752B55752C52752D45E51F
:0C017E0031640845307004F530F5312282
:1002A800E509640B45087061FFEF25E02434F8E6A2
:1002B800FC08E6FDEF25E02444F8E6FA08E66D7050
:1002C80002EA6C6008051DE51D7002051C0FBF08D9
:1002D800D8E51D451C700C75194F751A4BD2A0D264
:1002E800A9C2A1E51D451C602075184575195275F0
:1002F8001A4F751B52050BE50B7002050A6403457E
:090308000A7006D2A1F50AF50BFA
:0103110022C9
:1003AB007F10780C7420F608DFFC7F107834E4F6AD
:1003BB0008DFFC752A20752B20752C20752D20E469
:0D03CB00F530F531F51CF51DF5087509102C
:0103D8002202
:1004A400E509640A450870031203AB750800750971
:0204B400102214
:03000B00020406E6
:10040600C0E0758C3C758AB0052FE52F7002052E6D
:100416006414452E700E0533E53370020532752ED1
:0704260000752F00D0E03249
:10037300758901758C3C758AB0D2AFD28CC2A0C28C
:10038300A112045212018A12000E12048E1202A844
:100393001204A4E5336403453270E9C2A0F532F5D3
:0803A300331203ABC2A980DC98
:0300000002021CDD
:0C021C00787FE4F6D8FD7581560202637D
:1003D900BB010CE58229F582E5833AF583E02250D9
:1003E90006E92582F8E622BBFE06E92582F8E22223
:0D03F900E58229F582E5833AF583E493223D
:10022800020373E493A3F8E493A34003F68001F276
:1002380008DFF48029E493A3F85407240CC8C333D7
:10024800C4540F4420C8834004F456800146F6DFA6
:10025800E4800B0102040810204080900312E47E21
:10026800019360BCA3FF543F30E509541FFEE4939B
:10027800A360010ECF54C025E060A840B8E493A362
:10028800FAE493A3F8E493A3C8C582C8CAC583CA8D
:10029800F0A3C8C582C8CAC583CADFE9DEE780BE45
:01037200008A
:00000001FF
